{
    "contractName": "LimeToken",
    "abi": [
        {
            "inputs": [],
            "stateMutability": "nonpayable",
            "type": "constructor"
        },
        {
            "anonymous": false,
            "inputs": [
                {
                    "indexed": true,
                    "internalType": "address",
                    "name": "owner",
                    "type": "address"
                },
                {
                    "indexed": true,
                    "internalType": "address",
                    "name": "spender",
                    "type": "address"
                },
                {
                    "indexed": false,
                    "internalType": "uint256",
                    "name": "value",
                    "type": "uint256"
                }
            ],
            "name": "Approval",
            "type": "event"
        },
        {
            "anonymous": false,
            "inputs": [
                {
                    "indexed": true,
                    "internalType": "address",
                    "name": "delegator",
                    "type": "address"
                },
                {
                    "indexed": true,
                    "internalType": "address",
                    "name": "fromDelegate",
                    "type": "address"
                },
                {
                    "indexed": true,
                    "internalType": "address",
                    "name": "toDelegate",
                    "type": "address"
                }
            ],
            "name": "DelegateChanged",
            "type": "event"
        },
        {
            "anonymous": false,
            "inputs": [
                {
                    "indexed": true,
                    "internalType": "address",
                    "name": "delegate",
                    "type": "address"
                },
                {
                    "indexed": false,
                    "internalType": "uint256",
                    "name": "previousBalance",
                    "type": "uint256"
                },
                {
                    "indexed": false,
                    "internalType": "uint256",
                    "name": "newBalance",
                    "type": "uint256"
                }
            ],
            "name": "DelegateVotesChanged",
            "type": "event"
        },
        {
            "anonymous": false,
            "inputs": [
                {
                    "indexed": true,
                    "internalType": "address",
                    "name": "previousOwner",
                    "type": "address"
                },
                {
                    "indexed": true,
                    "internalType": "address",
                    "name": "newOwner",
                    "type": "address"
                }
            ],
            "name": "OwnershipTransferred",
            "type": "event"
        },
        {
            "anonymous": false,
            "inputs": [
                {
                    "indexed": true,
                    "internalType": "address",
                    "name": "from",
                    "type": "address"
                },
                {
                    "indexed": true,
                    "internalType": "address",
                    "name": "to",
                    "type": "address"
                },
                {
                    "indexed": false,
                    "internalType": "uint256",
                    "name": "value",
                    "type": "uint256"
                }
            ],
            "name": "Transfer",
            "type": "event"
        },
        {
            "inputs": [],
            "name": "DOMAIN_SEPARATOR",
            "outputs": [
                {
                    "internalType": "bytes32",
                    "name": "",
                    "type": "bytes32"
                }
            ],
            "stateMutability": "view",
            "type": "function"
        },
        {
            "inputs": [
                {
                    "internalType": "address",
                    "name": "owner",
                    "type": "address"
                },
                {
                    "internalType": "address",
                    "name": "spender",
                    "type": "address"
                }
            ],
            "name": "allowance",
            "outputs": [
                {
                    "internalType": "uint256",
                    "name": "",
                    "type": "uint256"
                }
            ],
            "stateMutability": "view",
            "type": "function"
        },
        {
            "inputs": [
                {
                    "internalType": "address",
                    "name": "spender",
                    "type": "address"
                },
                {
                    "internalType": "uint256",
                    "name": "amount",
                    "type": "uint256"
                }
            ],
            "name": "approve",
            "outputs": [
                {
                    "internalType": "bool",
                    "name": "",
                    "type": "bool"
                }
            ],
            "stateMutability": "nonpayable",
            "type": "function"
        },
        {
            "inputs": [
                {
                    "internalType": "address",
                    "name": "account",
                    "type": "address"
                }
            ],
            "name": "balanceOf",
            "outputs": [
                {
                    "internalType": "uint256",
                    "name": "",
                    "type": "uint256"
                }
            ],
            "stateMutability": "view",
            "type": "function"
        },
        {
            "inputs": [
                {
                    "internalType": "uint256",
                    "name": "amount",
                    "type": "uint256"
                }
            ],
            "name": "burn",
            "outputs": [],
            "stateMutability": "nonpayable",
            "type": "function"
        },
        {
            "inputs": [
                {
                    "internalType": "address",
                    "name": "account",
                    "type": "address"
                },
                {
                    "internalType": "uint256",
                    "name": "amount",
                    "type": "uint256"
                }
            ],
            "name": "burnFrom",
            "outputs": [],
            "stateMutability": "nonpayable",
            "type": "function"
        },
        {
            "inputs": [
                {
                    "internalType": "address",
                    "name": "account",
                    "type": "address"
                },
                {
                    "internalType": "uint32",
                    "name": "pos",
                    "type": "uint32"
                }
            ],
            "name": "checkpoints",
            "outputs": [
                {
                    "components": [
                        {
                            "internalType": "uint32",
                            "name": "fromBlock",
                            "type": "uint32"
                        },
                        {
                            "internalType": "uint224",
                            "name": "votes",
                            "type": "uint224"
                        }
                    ],
                    "internalType": "struct ERC20Votes.Checkpoint",
                    "name": "",
                    "type": "tuple"
                }
            ],
            "stateMutability": "view",
            "type": "function"
        },
        {
            "inputs": [],
            "name": "decimals",
            "outputs": [
                {
                    "internalType": "uint8",
                    "name": "",
                    "type": "uint8"
                }
            ],
            "stateMutability": "view",
            "type": "function"
        },
        {
            "inputs": [
                {
                    "internalType": "address",
                    "name": "spender",
                    "type": "address"
                },
                {
                    "internalType": "uint256",
                    "name": "subtractedValue",
                    "type": "uint256"
                }
            ],
            "name": "decreaseAllowance",
            "outputs": [
                {
                    "internalType": "bool",
                    "name": "",
                    "type": "bool"
                }
            ],
            "stateMutability": "nonpayable",
            "type": "function"
        },
        {
            "inputs": [
                {
                    "internalType": "address",
                    "name": "delegatee",
                    "type": "address"
                }
            ],
            "name": "delegate",
            "outputs": [],
            "stateMutability": "nonpayable",
            "type": "function"
        },
        {
            "inputs": [
                {
                    "internalType": "address",
                    "name": "delegatee",
                    "type": "address"
                },
                {
                    "internalType": "uint256",
                    "name": "nonce",
                    "type": "uint256"
                },
                {
                    "internalType": "uint256",
                    "name": "expiry",
                    "type": "uint256"
                },
                {
                    "internalType": "uint8",
                    "name": "v",
                    "type": "uint8"
                },
                {
                    "internalType": "bytes32",
                    "name": "r",
                    "type": "bytes32"
                },
                {
                    "internalType": "bytes32",
                    "name": "s",
                    "type": "bytes32"
                }
            ],
            "name": "delegateBySig",
            "outputs": [],
            "stateMutability": "nonpayable",
            "type": "function"
        },
        {
            "inputs": [
                {
                    "internalType": "address",
                    "name": "account",
                    "type": "address"
                }
            ],
            "name": "delegates",
            "outputs": [
                {
                    "internalType": "address",
                    "name": "",
                    "type": "address"
                }
            ],
            "stateMutability": "view",
            "type": "function"
        },
        {
            "inputs": [
                {
                    "internalType": "uint256",
                    "name": "blockNumber",
                    "type": "uint256"
                }
            ],
            "name": "getPastTotalSupply",
            "outputs": [
                {
                    "internalType": "uint256",
                    "name": "",
                    "type": "uint256"
                }
            ],
            "stateMutability": "view",
            "type": "function"
        },
        {
            "inputs": [
                {
                    "internalType": "address",
                    "name": "account",
                    "type": "address"
                },
                {
                    "internalType": "uint256",
                    "name": "blockNumber",
                    "type": "uint256"
                }
            ],
            "name": "getPastVotes",
            "outputs": [
                {
                    "internalType": "uint256",
                    "name": "",
                    "type": "uint256"
                }
            ],
            "stateMutability": "view",
            "type": "function"
        },
        {
            "inputs": [
                {
                    "internalType": "address",
                    "name": "account",
                    "type": "address"
                }
            ],
            "name": "getVotes",
            "outputs": [
                {
                    "internalType": "uint256",
                    "name": "",
                    "type": "uint256"
                }
            ],
            "stateMutability": "view",
            "type": "function"
        },
        {
            "inputs": [
                {
                    "internalType": "address",
                    "name": "spender",
                    "type": "address"
                },
                {
                    "internalType": "uint256",
                    "name": "addedValue",
                    "type": "uint256"
                }
            ],
            "name": "increaseAllowance",
            "outputs": [
                {
                    "internalType": "bool",
                    "name": "",
                    "type": "bool"
                }
            ],
            "stateMutability": "nonpayable",
            "type": "function"
        },
        {
            "inputs": [],
            "name": "name",
            "outputs": [
                {
                    "internalType": "string",
                    "name": "",
                    "type": "string"
                }
            ],
            "stateMutability": "view",
            "type": "function"
        },
        {
            "inputs": [
                {
                    "internalType": "address",
                    "name": "owner",
                    "type": "address"
                }
            ],
            "name": "nonces",
            "outputs": [
                {
                    "internalType": "uint256",
                    "name": "",
                    "type": "uint256"
                }
            ],
            "stateMutability": "view",
            "type": "function"
        },
        {
            "inputs": [
                {
                    "internalType": "address",
                    "name": "account",
                    "type": "address"
                }
            ],
            "name": "numCheckpoints",
            "outputs": [
                {
                    "internalType": "uint32",
                    "name": "",
                    "type": "uint32"
                }
            ],
            "stateMutability": "view",
            "type": "function"
        },
        {
            "inputs": [],
            "name": "owner",
            "outputs": [
                {
                    "internalType": "address",
                    "name": "",
                    "type": "address"
                }
            ],
            "stateMutability": "view",
            "type": "function"
        },
        {
            "inputs": [
                {
                    "internalType": "address",
                    "name": "owner",
                    "type": "address"
                },
                {
                    "internalType": "address",
                    "name": "spender",
                    "type": "address"
                },
                {
                    "internalType": "uint256",
                    "name": "value",
                    "type": "uint256"
                },
                {
                    "internalType": "uint256",
                    "name": "deadline",
                    "type": "uint256"
                },
                {
                    "internalType": "uint8",
                    "name": "v",
                    "type": "uint8"
                },
                {
                    "internalType": "bytes32",
                    "name": "r",
                    "type": "bytes32"
                },
                {
                    "internalType": "bytes32",
                    "name": "s",
                    "type": "bytes32"
                }
            ],
            "name": "permit",
            "outputs": [],
            "stateMutability": "nonpayable",
            "type": "function"
        },
        {
            "inputs": [],
            "name": "renounceOwnership",
            "outputs": [],
            "stateMutability": "nonpayable",
            "type": "function"
        },
        {
            "inputs": [],
            "name": "symbol",
            "outputs": [
                {
                    "internalType": "string",
                    "name": "",
                    "type": "string"
                }
            ],
            "stateMutability": "view",
            "type": "function"
        },
        {
            "inputs": [],
            "name": "totalSupply",
            "outputs": [
                {
                    "internalType": "uint256",
                    "name": "",
                    "type": "uint256"
                }
            ],
            "stateMutability": "view",
            "type": "function"
        },
        {
            "inputs": [
                {
                    "internalType": "address",
                    "name": "recipient",
                    "type": "address"
                },
                {
                    "internalType": "uint256",
                    "name": "amount",
                    "type": "uint256"
                }
            ],
            "name": "transfer",
            "outputs": [
                {
                    "internalType": "bool",
                    "name": "",
                    "type": "bool"
                }
            ],
            "stateMutability": "nonpayable",
            "type": "function"
        },
        {
            "inputs": [
                {
                    "internalType": "address",
                    "name": "sender",
                    "type": "address"
                },
                {
                    "internalType": "address",
                    "name": "recipient",
                    "type": "address"
                },
                {
                    "internalType": "uint256",
                    "name": "amount",
                    "type": "uint256"
                }
            ],
            "name": "transferFrom",
            "outputs": [
                {
                    "internalType": "bool",
                    "name": "",
                    "type": "bool"
                }
            ],
            "stateMutability": "nonpayable",
            "type": "function"
        },
        {
            "inputs": [
                {
                    "internalType": "address",
                    "name": "newOwner",
                    "type": "address"
                }
            ],
            "name": "transferOwnership",
            "outputs": [],
            "stateMutability": "nonpayable",
            "type": "function"
        },
        {
            "inputs": [
                {
                    "internalType": "address",
                    "name": "to",
                    "type": "address"
                },
                {
                    "internalType": "uint256",
                    "name": "amount",
                    "type": "uint256"
                }
            ],
            "name": "mint",
            "outputs": [],
            "stateMutability": "nonpayable",
            "type": "function"
        },
        {
            "inputs": [
                {
                    "internalType": "address",
                    "name": "_account",
                    "type": "address"
                },
                {
                    "internalType": "bool",
                    "name": "_excluded",
                    "type": "bool"
                }
            ],
            "name": "setExcludedFromAntiWhale",
            "outputs": [],
            "stateMutability": "nonpayable",
            "type": "function"
        },
        {
            "inputs": [
                {
                    "internalType": "address",
                    "name": "_account",
                    "type": "address"
                }
            ],
            "name": "isExcludedFromAntiWhale",
            "outputs": [
                {
                    "internalType": "bool",
                    "name": "",
                    "type": "bool"
                }
            ],
            "stateMutability": "view",
            "type": "function"
        }
    ],
    "bytecode": "0x6101406040527f6e71edae12b1b97f4d1f60370fef10105fa2faae0126114a169c64845d6126c9610120908152503480156200003a57600080fd5b506040518060400160405280600981526020017f4c696d65546f6b656e0000000000000000000000000000000000000000000000815250806040518060400160405280600181526020017f31000000000000000000000000000000000000000000000000000000000000008152506040518060400160405280600981526020017f4c696d65546f6b656e00000000000000000000000000000000000000000000008152506040518060400160405280600481526020017f4c494d450000000000000000000000000000000000000000000000000000000081525081600390805190602001906200012c92919062000e8c565b5080600490805190602001906200014592919062000e8c565b505050620001686200015c6200022a60201b60201c565b6200023260201b60201c565b60008280519060200120905060008280519060200120905060007f8b73c3c69bb8fe3d512ecc4cf759cc79239f7b179b0ffacaa9a75d522b39400f90508260c081815250508160e081815250504660a08181525050620001d0818484620002f860201b60201c565b608081815250508061010081815250505050505050506200022433620001fb6200033460201b60201c565b600a62000209919062001284565b614e20620002189190620013c1565b6200033d60201b60201c565b620016e7565b600033905090565b6000600560009054906101000a900473ffffffffffffffffffffffffffffffffffffffff16905081600560006101000a81548173ffffffffffffffffffffffffffffffffffffffff021916908373ffffffffffffffffffffffffffffffffffffffff1602179055508173ffffffffffffffffffffffffffffffffffffffff168173ffffffffffffffffffffffffffffffffffffffff167f8be0079c531659141344cd1fd0a4f28419497f9722a3daafe3b4186f6b6457e060405160405180910390a35050565b600083838346306040516020016200031595949392919062001032565b6040516020818303038152906040528051906020012090509392505050565b60006012905090565b6200035482826200035860201b620015db1760201c565b5050565b6200036f82826200041660201b620016681760201c565b6200037f6200058f60201b60201c565b7bffffffffffffffffffffffffffffffffffffffffffffffffffffffff16620003ad620005b360201b60201c565b1115620003f1576040517f08c379a0000000000000000000000000000000000000000000000000000000008152600401620003e8906200108f565b60405180910390fd5b620004106009620005bd60201b620017c81783620005d560201b60201c565b50505050565b600073ffffffffffffffffffffffffffffffffffffffff168273ffffffffffffffffffffffffffffffffffffffff16141562000489576040517f08c379a0000000000000000000000000000000000000000000000000000000008152600401620004809062001117565b60405180910390fd5b6200049d60008383620008f260201b60201c565b8060026000828254620004b1919062001194565b92505081905550806000808473ffffffffffffffffffffffffffffffffffffffff1673ffffffffffffffffffffffffffffffffffffffff168152602001908152602001600020600082825462000508919062001194565b925050819055508173ffffffffffffffffffffffffffffffffffffffff16600073ffffffffffffffffffffffffffffffffffffffff167fddf252ad1be2c89b69c2b068fc378daa952ba7f163c4a11628f55a4df523b3ef836040516200056f919062001139565b60405180910390a36200058b6000838362000a8360201b60201c565b5050565b60007bffffffffffffffffffffffffffffffffffffffffffffffffffffffff905090565b6000600254905090565b60008183620005cd919062001194565b905092915050565b600080600085805490509050600081146200066e5785600182620005fa919062001422565b8154811062000632577f4e487b7100000000000000000000000000000000000000000000000000000000600052603260045260246000fd5b9060005260206000200160000160049054906101000a90047bffffffffffffffffffffffffffffffffffffffffffffffffffffffff1662000671565b60005b7bffffffffffffffffffffffffffffffffffffffffffffffffffffffff1692506200069d83858760201c565b91506000811180156200071a57504386600183620006bc919062001422565b81548110620006f4577f4e487b7100000000000000000000000000000000000000000000000000000000600052603260045260246000fd5b9060005260206000200160000160009054906101000a900463ffffffff1663ffffffff16145b15620007df57620007368262000aa060201b620017de1760201c565b8660018362000746919062001422565b815481106200077e577f4e487b7100000000000000000000000000000000000000000000000000000000600052603260045260246000fd5b9060005260206000200160000160046101000a8154817bffffffffffffffffffffffffffffffffffffffffffffffffffffffff02191690837bffffffffffffffffffffffffffffffffffffffffffffffffffffffff160217905550620008e9565b856040518060400160405280620008014362000b0e60201b620018491760201c565b63ffffffff168152602001620008228562000aa060201b620017de1760201c565b7bffffffffffffffffffffffffffffffffffffffffffffffffffffffff168152509080600181540180825580915050600190039060005260206000200160009091909190915060008201518160000160006101000a81548163ffffffff021916908363ffffffff16021790555060208201518160000160046101000a8154817bffffffffffffffffffffffffffffffffffffffffffffffffffffffff02191690837bffffffffffffffffffffffffffffffffffffffffffffffffffffffff16021790555050505b50935093915050565b6200090a83838362000b6460201b6200189c1760201c565b60001515600a60008573ffffffffffffffffffffffffffffffffffffffff1673ffffffffffffffffffffffffffffffffffffffff16815260200190815260200160002060009054906101000a900460ff161515148015620009bb575060001515600a60008473ffffffffffffffffffffffffffffffffffffffff1673ffffffffffffffffffffffffffffffffffffffff16815260200190815260200160002060009054906101000a900460ff161515145b801562000a035750620009d362000b6960201b60201c565b73ffffffffffffffffffffffffffffffffffffffff163373ffffffffffffffffffffffffffffffffffffffff1614155b801562000a3b57506103e8603262000a20620005b360201b60201c565b62000a2c9190620013c1565b62000a389190620011f1565b81115b1562000a7e576040517f08c379a000000000000000000000000000000000000000000000000000000000815260040162000a7590620010f5565b60405180910390fd5b505050565b62000a9b83838362000b9360201b620018a11760201c565b505050565b60007bffffffffffffffffffffffffffffffffffffffffffffffffffffffff801682111562000b06576040517f08c379a000000000000000000000000000000000000000000000000000000000815260040162000afd90620010b1565b60405180910390fd5b819050919050565b600063ffffffff801682111562000b5c576040517f08c379a000000000000000000000000000000000000000000000000000000000815260040162000b5390620010d3565b60405180910390fd5b819050919050565b505050565b6000600560009054906101000a900473ffffffffffffffffffffffffffffffffffffffff16905090565b62000bab83838362000be360201b620018cc1760201c565b62000bde62000bc08462000be860201b60201c565b62000bd18462000be860201b60201c565b8362000c5160201b60201c565b505050565b505050565b6000600760008373ffffffffffffffffffffffffffffffffffffffff1673ffffffffffffffffffffffffffffffffffffffff16815260200190815260200160002060009054906101000a900473ffffffffffffffffffffffffffffffffffffffff169050919050565b8173ffffffffffffffffffffffffffffffffffffffff168373ffffffffffffffffffffffffffffffffffffffff161415801562000c8e5750600081115b1562000e6f57600073ffffffffffffffffffffffffffffffffffffffff168373ffffffffffffffffffffffffffffffffffffffff161462000d815760008062000d28600860008773ffffffffffffffffffffffffffffffffffffffff1673ffffffffffffffffffffffffffffffffffffffff16815260200190815260200160002062000e7460201b620018d11785620005d560201b60201c565b915091508473ffffffffffffffffffffffffffffffffffffffff167fdec2bacdd2f05b59de34da9b523dff8be42e5e38e818c82fdb0bae774387a724838360405162000d7692919062001156565b60405180910390a250505b600073ffffffffffffffffffffffffffffffffffffffff168273ffffffffffffffffffffffffffffffffffffffff161462000e6e5760008062000e15600860008673ffffffffffffffffffffffffffffffffffffffff1673ffffffffffffffffffffffffffffffffffffffff168152602001908152602001600020620005bd60201b620017c81785620005d560201b60201c565b915091508373ffffffffffffffffffffffffffffffffffffffff167fdec2bacdd2f05b59de34da9b523dff8be42e5e38e818c82fdb0bae774387a724838360405162000e6392919062001156565b60405180910390a250505b5b505050565b6000818362000e84919062001422565b905092915050565b82805462000e9a90620014b2565b90600052602060002090601f01602090048101928262000ebe576000855562000f0a565b82601f1062000ed957805160ff191683800117855562000f0a565b8280016001018555821562000f0a579182015b8281111562000f0957825182559160200191906001019062000eec565b5b50905062000f19919062000f1d565b5090565b5b8082111562000f3857600081600090555060010162000f1e565b5090565b62000f47816200145d565b82525050565b62000f588162001471565b82525050565b600062000f6d60308362001183565b915062000f7a8262001582565b604082019050919050565b600062000f9460278362001183565b915062000fa182620015d1565b604082019050919050565b600062000fbb60268362001183565b915062000fc88262001620565b604082019050919050565b600062000fe260378362001183565b915062000fef826200166f565b604082019050919050565b600062001009601f8362001183565b91506200101682620016be565b602082019050919050565b6200102c816200149b565b82525050565b600060a08201905062001049600083018862000f4d565b62001058602083018762000f4d565b62001067604083018662000f4d565b62001076606083018562001021565b62001085608083018462000f3c565b9695505050505050565b60006020820190508181036000830152620010aa8162000f5e565b9050919050565b60006020820190508181036000830152620010cc8162000f85565b9050919050565b60006020820190508181036000830152620010ee8162000fac565b9050919050565b60006020820190508181036000830152620011108162000fd3565b9050919050565b60006020820190508181036000830152620011328162000ffa565b9050919050565b600060208201905062001150600083018462001021565b92915050565b60006040820190506200116d600083018562001021565b6200117c602083018462001021565b9392505050565b600082825260208201905092915050565b6000620011a1826200149b565b9150620011ae836200149b565b9250827fffffffffffffffffffffffffffffffffffffffffffffffffffffffffffffffff03821115620011e657620011e5620014e8565b5b828201905092915050565b6000620011fe826200149b565b91506200120b836200149b565b9250826200121e576200121d62001517565b5b828204905092915050565b6000808291508390505b60018511156200127b57808604811115620012535762001252620014e8565b5b6001851615620012635780820291505b8081029050620012738562001575565b945062001233565b94509492505050565b600062001291826200149b565b91506200129e83620014a5565b9250620012cd7fffffffffffffffffffffffffffffffffffffffffffffffffffffffffffffffff8484620012d5565b905092915050565b600082620012e75760019050620013ba565b81620012f75760009050620013ba565b81600181146200131057600281146200131b5762001351565b6001915050620013ba565b60ff84111562001330576200132f620014e8565b5b8360020a9150848211156200134a5762001349620014e8565b5b50620013ba565b5060208310610133831016604e8410600b84101617156200138b5782820a905083811115620013855762001384620014e8565b5b620013ba565b6200139a848484600162001229565b92509050818404811115620013b457620013b3620014e8565b5b81810290505b9392505050565b6000620013ce826200149b565b9150620013db836200149b565b9250817fffffffffffffffffffffffffffffffffffffffffffffffffffffffffffffffff0483118215151615620014175762001416620014e8565b5b828202905092915050565b60006200142f826200149b565b91506200143c836200149b565b925082821015620014525762001451620014e8565b5b828203905092915050565b60006200146a826200147b565b9050919050565b6000819050919050565b600073ffffffffffffffffffffffffffffffffffffffff82169050919050565b6000819050919050565b600060ff82169050919050565b60006002820490506001821680620014cb57607f821691505b60208210811415620014e257620014e162001546565b5b50919050565b7f4e487b7100000000000000000000000000000000000000000000000000000000600052601160045260246000fd5b7f4e487b7100000000000000000000000000000000000000000000000000000000600052601260045260246000fd5b7f4e487b7100000000000000000000000000000000000000000000000000000000600052602260045260246000fd5b60008160011c9050919050565b7f4552433230566f7465733a20746f74616c20737570706c79207269736b73206f60008201527f766572666c6f77696e6720766f74657300000000000000000000000000000000602082015250565b7f53616665436173743a2076616c756520646f65736e27742066697420696e203260008201527f3234206269747300000000000000000000000000000000000000000000000000602082015250565b7f53616665436173743a2076616c756520646f65736e27742066697420696e203360008201527f3220626974730000000000000000000000000000000000000000000000000000602082015250565b7f416e74692d7768616c653a20547820616d6f756e74206973206772656174657260008201527f207468616e203525206f6620746f74616c537570706c79000000000000000000602082015250565b7f45524332303a206d696e7420746f20746865207a65726f206164647265737300600082015250565b60805160a05160c05160e05161010051610120516144da62001737600039600061122b01526000611d9201526000611dd401526000611db301526000611d3f01526000611d6701526144da6000f3fe608060405234801561001057600080fd5b50600436106101da5760003560e01c8063715018a611610104578063a457c2d7116100a2578063d505accf11610071578063d505accf146105b5578063dd62ed3e146105d1578063f1127ed814610601578063f2fde38b14610631576101da565b8063a457c2d71461051d578063a9059cbb1461054d578063c3cda5201461057d578063c7f59a6714610599576101da565b80638da5cb5b116100de5780638da5cb5b146104815780638e539e8c1461049f57806395d89b41146104cf5780639ab24eb0146104ed576101da565b8063715018a61461042b57806379cc6790146104355780637ecebe0014610451576101da565b8063395093511161017c578063587cde1e1161014b578063587cde1e1461037f5780635c19a95c146103af5780636fcfff45146103cb57806370a08231146103fb576101da565b806339509351146102e75780633a46b1a81461031757806340c10f191461034757806342966c6814610363576101da565b806323b872dd116101b857806323b872dd1461024b578063269f534c1461027b578063313ce567146102ab5780633644e515146102c9576101da565b806306fdde03146101df578063095ea7b3146101fd57806318160ddd1461022d575b600080fd5b6101e761064d565b6040516101f49190613682565b60405180910390f35b61021760048036038101906102129190612f0d565b6106df565b604051610224919061350e565b60405180910390f35b6102356106fd565b60405161024291906139df565b60405180910390f35b61026560048036038101906102609190612de4565b610707565b604051610272919061350e565b60405180910390f35b61029560048036038101906102909190612d7f565b6107ff565b6040516102a2919061350e565b60405180910390f35b6102b3610855565b6040516102c09190613a3e565b60405180910390f35b6102d161085e565b6040516102de9190613529565b60405180910390f35b61030160048036038101906102fc9190612f0d565b61086d565b60405161030e919061350e565b60405180910390f35b610331600480360381019061032c9190612f0d565b610919565b60405161033e91906139df565b60405180910390f35b610361600480360381019061035c9190612f0d565b6109ad565b005b61037d6004803603810190610378919061300e565b610a37565b005b61039960048036038101906103949190612d7f565b610a4b565b6040516103a691906134f3565b60405180910390f35b6103c960048036038101906103c49190612d7f565b610ab4565b005b6103e560048036038101906103e09190612d7f565b610ac8565b6040516103f29190613a23565b60405180910390f35b61041560048036038101906104109190612d7f565b610b1c565b60405161042291906139df565b60405180910390f35b610433610b64565b005b61044f600480360381019061044a9190612f0d565b610bec565b005b61046b60048036038101906104669190612d7f565b610c67565b60405161047891906139df565b60405180910390f35b610489610cb7565b60405161049691906134f3565b60405180910390f35b6104b960048036038101906104b4919061300e565b610ce1565b6040516104c691906139df565b60405180910390f35b6104d7610d37565b6040516104e49190613682565b60405180910390f35b61050760048036038101906105029190612d7f565b610dc9565b60405161051491906139df565b60405180910390f35b61053760048036038101906105329190612f0d565b610f00565b604051610544919061350e565b60405180910390f35b61056760048036038101906105629190612f0d565b610feb565b604051610574919061350e565b60405180910390f35b61059760048036038101906105929190612f49565b611009565b005b6105b360048036038101906105ae9190612ed1565b61110d565b005b6105cf60048036038101906105ca9190612e33565b6111e4565b005b6105eb60048036038101906105e69190612da8565b611326565b6040516105f891906139df565b60405180910390f35b61061b60048036038101906106169190612fd2565b6113ad565b60405161062891906139c4565b60405180910390f35b61064b60048036038101906106469190612d7f565b6114e3565b005b60606003805461065c90613c5f565b80601f016020809104026020016040519081016040528092919081815260200182805461068890613c5f565b80156106d55780601f106106aa576101008083540402835291602001916106d5565b820191906000526020600020905b8154815290600101906020018083116106b857829003601f168201915b5050505050905090565b60006106f36106ec6118e7565b84846118ef565b6001905092915050565b6000600254905090565b6000610714848484611aba565b6000600160008673ffffffffffffffffffffffffffffffffffffffff1673ffffffffffffffffffffffffffffffffffffffff168152602001908152602001600020600061075f6118e7565b73ffffffffffffffffffffffffffffffffffffffff1673ffffffffffffffffffffffffffffffffffffffff168152602001908152602001600020549050828110156107df576040517f08c379a00000000000000000000000000000000000000000000000000000000081526004016107d690613844565b60405180910390fd5b6107f3856107eb6118e7565b8584036118ef565b60019150509392505050565b6000600a60008373ffffffffffffffffffffffffffffffffffffffff1673ffffffffffffffffffffffffffffffffffffffff16815260200190815260200160002060009054906101000a900460ff169050919050565b60006012905090565b6000610868611d3b565b905090565b600061090f61087a6118e7565b8484600160006108886118e7565b73ffffffffffffffffffffffffffffffffffffffff1673ffffffffffffffffffffffffffffffffffffffff16815260200190815260200160002060008873ffffffffffffffffffffffffffffffffffffffff1673ffffffffffffffffffffffffffffffffffffffff1681526020019081526020016000205461090a9190613a80565b6118ef565b6001905092915050565b600043821061095d576040517f08c379a0000000000000000000000000000000000000000000000000000000008152600401610954906136e4565b60405180910390fd5b6109a5600860008573ffffffffffffffffffffffffffffffffffffffff1673ffffffffffffffffffffffffffffffffffffffff16815260200190815260200160002083611dfe565b905092915050565b6109b56118e7565b73ffffffffffffffffffffffffffffffffffffffff166109d3610cb7565b73ffffffffffffffffffffffffffffffffffffffff1614610a29576040517f08c379a0000000000000000000000000000000000000000000000000000000008152600401610a2090613884565b60405180910390fd5b610a338282611f56565b5050565b610a48610a426118e7565b82611f64565b50565b6000600760008373ffffffffffffffffffffffffffffffffffffffff1673ffffffffffffffffffffffffffffffffffffffff16815260200190815260200160002060009054906101000a900473ffffffffffffffffffffffffffffffffffffffff169050919050565b610ac5610abf6118e7565b82611f72565b50565b6000610b15600860008473ffffffffffffffffffffffffffffffffffffffff1673ffffffffffffffffffffffffffffffffffffffff16815260200190815260200160002080549050611849565b9050919050565b60008060008373ffffffffffffffffffffffffffffffffffffffff1673ffffffffffffffffffffffffffffffffffffffff168152602001908152602001600020549050919050565b610b6c6118e7565b73ffffffffffffffffffffffffffffffffffffffff16610b8a610cb7565b73ffffffffffffffffffffffffffffffffffffffff1614610be0576040517f08c379a0000000000000000000000000000000000000000000000000000000008152600401610bd790613884565b60405180910390fd5b610bea600061208c565b565b6000610bff83610bfa6118e7565b611326565b905081811015610c44576040517f08c379a0000000000000000000000000000000000000000000000000000000008152600401610c3b906138c4565b60405180910390fd5b610c5883610c506118e7565b8484036118ef565b610c628383611f64565b505050565b6000610cb0600660008473ffffffffffffffffffffffffffffffffffffffff1673ffffffffffffffffffffffffffffffffffffffff168152602001908152602001600020612152565b9050919050565b6000600560009054906101000a900473ffffffffffffffffffffffffffffffffffffffff16905090565b6000438210610d25576040517f08c379a0000000000000000000000000000000000000000000000000000000008152600401610d1c906136e4565b60405180910390fd5b610d30600983611dfe565b9050919050565b606060048054610d4690613c5f565b80601f0160208091040260200160405190810160405280929190818152602001828054610d7290613c5f565b8015610dbf5780601f10610d9457610100808354040283529160200191610dbf565b820191906000526020600020905b815481529060010190602001808311610da257829003601f168201915b5050505050905090565b600080600860008473ffffffffffffffffffffffffffffffffffffffff1673ffffffffffffffffffffffffffffffffffffffff16815260200190815260200160002080549050905060008114610ed757600860008473ffffffffffffffffffffffffffffffffffffffff1673ffffffffffffffffffffffffffffffffffffffff168152602001908152602001600020600182610e659190613b61565b81548110610e9c577f4e487b7100000000000000000000000000000000000000000000000000000000600052603260045260246000fd5b9060005260206000200160000160049054906101000a90047bffffffffffffffffffffffffffffffffffffffffffffffffffffffff16610eda565b60005b7bffffffffffffffffffffffffffffffffffffffffffffffffffffffff16915050919050565b60008060016000610f0f6118e7565b73ffffffffffffffffffffffffffffffffffffffff1673ffffffffffffffffffffffffffffffffffffffff16815260200190815260200160002060008573ffffffffffffffffffffffffffffffffffffffff1673ffffffffffffffffffffffffffffffffffffffff16815260200190815260200160002054905082811015610fcc576040517f08c379a0000000000000000000000000000000000000000000000000000000008152600401610fc390613984565b60405180910390fd5b610fe0610fd76118e7565b858584036118ef565b600191505092915050565b6000610fff610ff86118e7565b8484611aba565b6001905092915050565b8342111561104c576040517f08c379a000000000000000000000000000000000000000000000000000000000815260040161104390613704565b60405180910390fd5b60006110ae6110a67fe48329057bfd03d55e49b547132e39cffd9c1820ad7b9d4c5307691425d15adf89898960405160200161108b94939291906135a5565b60405160208183030381529060405280519060200120612160565b85858561217a565b90506110b981612305565b86146110fa576040517f08c379a00000000000000000000000000000000000000000000000000000000081526004016110f190613744565b60405180910390fd5b6111048188611f72565b50505050505050565b6111156118e7565b73ffffffffffffffffffffffffffffffffffffffff16611133610cb7565b73ffffffffffffffffffffffffffffffffffffffff1614611189576040517f08c379a000000000000000000000000000000000000000000000000000000000815260040161118090613884565b60405180910390fd5b80600a60008473ffffffffffffffffffffffffffffffffffffffff1673ffffffffffffffffffffffffffffffffffffffff16815260200190815260200160002060006101000a81548160ff0219169083151502179055505050565b83421115611227576040517f08c379a000000000000000000000000000000000000000000000000000000000815260040161121e906137a4565b60405180910390fd5b60007f00000000000000000000000000000000000000000000000000000000000000008888886112568c612305565b8960405160200161126c96959493929190613544565b604051602081830303815290604052805190602001209050600061128f82612160565b9050600061129f8287878761217a565b90508973ffffffffffffffffffffffffffffffffffffffff168173ffffffffffffffffffffffffffffffffffffffff161461130f576040517f08c379a000000000000000000000000000000000000000000000000000000000815260040161130690613824565b60405180910390fd5b61131a8a8a8a6118ef565b50505050505050505050565b6000600160008473ffffffffffffffffffffffffffffffffffffffff1673ffffffffffffffffffffffffffffffffffffffff16815260200190815260200160002060008373ffffffffffffffffffffffffffffffffffffffff1673ffffffffffffffffffffffffffffffffffffffff16815260200190815260200160002054905092915050565b6113b5612cc3565b600860008473ffffffffffffffffffffffffffffffffffffffff1673ffffffffffffffffffffffffffffffffffffffff1681526020019081526020016000208263ffffffff1681548110611432577f4e487b7100000000000000000000000000000000000000000000000000000000600052603260045260246000fd5b906000526020600020016040518060400160405290816000820160009054906101000a900463ffffffff1663ffffffff1663ffffffff1681526020016000820160049054906101000a90047bffffffffffffffffffffffffffffffffffffffffffffffffffffffff167bffffffffffffffffffffffffffffffffffffffffffffffffffffffff167bffffffffffffffffffffffffffffffffffffffffffffffffffffffff1681525050905092915050565b6114eb6118e7565b73ffffffffffffffffffffffffffffffffffffffff16611509610cb7565b73ffffffffffffffffffffffffffffffffffffffff161461155f576040517f08c379a000000000000000000000000000000000000000000000000000000000815260040161155690613884565b60405180910390fd5b600073ffffffffffffffffffffffffffffffffffffffff168173ffffffffffffffffffffffffffffffffffffffff1614156115cf576040517f08c379a00000000000000000000000000000000000000000000000000000000081526004016115c690613764565b60405180910390fd5b6115d88161208c565b50565b6115e58282611668565b6115ed612363565b7bffffffffffffffffffffffffffffffffffffffffffffffffffffffff166116136106fd565b1115611654576040517f08c379a000000000000000000000000000000000000000000000000000000000815260040161164b90613864565b60405180910390fd5b61166260096117c883612387565b50505050565b600073ffffffffffffffffffffffffffffffffffffffff168273ffffffffffffffffffffffffffffffffffffffff1614156116d8576040517f08c379a00000000000000000000000000000000000000000000000000000000081526004016116cf906139a4565b60405180910390fd5b6116e460008383612671565b80600260008282546116f69190613a80565b92505081905550806000808473ffffffffffffffffffffffffffffffffffffffff1673ffffffffffffffffffffffffffffffffffffffff168152602001908152602001600020600082825461174b9190613a80565b925050819055508173ffffffffffffffffffffffffffffffffffffffff16600073ffffffffffffffffffffffffffffffffffffffff167fddf252ad1be2c89b69c2b068fc378daa952ba7f163c4a11628f55a4df523b3ef836040516117b091906139df565b60405180910390a36117c4600083836127db565b5050565b600081836117d69190613a80565b905092915050565b60007bffffffffffffffffffffffffffffffffffffffffffffffffffffffff8016821115611841576040517f08c379a0000000000000000000000000000000000000000000000000000000008152600401611838906138a4565b60405180910390fd5b819050919050565b600063ffffffff8016821115611894576040517f08c379a000000000000000000000000000000000000000000000000000000000815260040161188b90613924565b60405180910390fd5b819050919050565b505050565b6118ac8383836118cc565b6118c76118b884610a4b565b6118c184610a4b565b836127eb565b505050565b505050565b600081836118df9190613b61565b905092915050565b600033905090565b600073ffffffffffffffffffffffffffffffffffffffff168373ffffffffffffffffffffffffffffffffffffffff16141561195f576040517f08c379a000000000000000000000000000000000000000000000000000000000815260040161195690613944565b60405180910390fd5b600073ffffffffffffffffffffffffffffffffffffffff168273ffffffffffffffffffffffffffffffffffffffff1614156119cf576040517f08c379a00000000000000000000000000000000000000000000000000000000081526004016119c690613784565b60405180910390fd5b80600160008573ffffffffffffffffffffffffffffffffffffffff1673ffffffffffffffffffffffffffffffffffffffff16815260200190815260200160002060008473ffffffffffffffffffffffffffffffffffffffff1673ffffffffffffffffffffffffffffffffffffffff168152602001908152602001600020819055508173ffffffffffffffffffffffffffffffffffffffff168373ffffffffffffffffffffffffffffffffffffffff167f8c5be1e5ebec7d5bd14f71427d1e84f3dd0314c0f7b2291e5b200ac8c7c3b92583604051611aad91906139df565b60405180910390a3505050565b600073ffffffffffffffffffffffffffffffffffffffff168373ffffffffffffffffffffffffffffffffffffffff161415611b2a576040517f08c379a0000000000000000000000000000000000000000000000000000000008152600401611b2190613904565b60405180910390fd5b600073ffffffffffffffffffffffffffffffffffffffff168273ffffffffffffffffffffffffffffffffffffffff161415611b9a576040517f08c379a0000000000000000000000000000000000000000000000000000000008152600401611b91906136c4565b60405180910390fd5b611ba5838383612671565b60008060008573ffffffffffffffffffffffffffffffffffffffff1673ffffffffffffffffffffffffffffffffffffffff16815260200190815260200160002054905081811015611c2b576040517f08c379a0000000000000000000000000000000000000000000000000000000008152600401611c22906137c4565b60405180910390fd5b8181036000808673ffffffffffffffffffffffffffffffffffffffff1673ffffffffffffffffffffffffffffffffffffffff16815260200190815260200160002081905550816000808573ffffffffffffffffffffffffffffffffffffffff1673ffffffffffffffffffffffffffffffffffffffff1681526020019081526020016000206000828254611cbe9190613a80565b925050819055508273ffffffffffffffffffffffffffffffffffffffff168473ffffffffffffffffffffffffffffffffffffffff167fddf252ad1be2c89b69c2b068fc378daa952ba7f163c4a11628f55a4df523b3ef84604051611d2291906139df565b60405180910390a3611d358484846127db565b50505050565b60007f0000000000000000000000000000000000000000000000000000000000000000461415611d8d577f00000000000000000000000000000000000000000000000000000000000000009050611dfb565b611df87f00000000000000000000000000000000000000000000000000000000000000007f00000000000000000000000000000000000000000000000000000000000000007f00000000000000000000000000000000000000000000000000000000000000006129e4565b90505b90565b6000808380549050905060005b81811015611ea3576000611e1f8284612a1e565b905084868281548110611e5b577f4e487b7100000000000000000000000000000000000000000000000000000000600052603260045260246000fd5b9060005260206000200160000160009054906101000a900463ffffffff1663ffffffff161115611e8d57809250611e9d565b600181611e9a9190613a80565b91505b50611e0b565b60008214611f2b5784600183611eb99190613b61565b81548110611ef0577f4e487b7100000000000000000000000000000000000000000000000000000000600052603260045260246000fd5b9060005260206000200160000160049054906101000a90047bffffffffffffffffffffffffffffffffffffffffffffffffffffffff16611f2e565b60005b7bffffffffffffffffffffffffffffffffffffffffffffffffffffffff169250505092915050565b611f6082826115db565b5050565b611f6e8282612a85565b5050565b6000611f7d83610a4b565b90506000611f8a84610b1c565b905082600760008673ffffffffffffffffffffffffffffffffffffffff1673ffffffffffffffffffffffffffffffffffffffff16815260200190815260200160002060006101000a81548173ffffffffffffffffffffffffffffffffffffffff021916908373ffffffffffffffffffffffffffffffffffffffff1602179055508273ffffffffffffffffffffffffffffffffffffffff168273ffffffffffffffffffffffffffffffffffffffff168573ffffffffffffffffffffffffffffffffffffffff167f3134e8a2e6d97e929a7e54011ea5485d7d196dd5f0ba4d4ef95803e8e3fc257f60405160405180910390a46120868284836127eb565b50505050565b6000600560009054906101000a900473ffffffffffffffffffffffffffffffffffffffff16905081600560006101000a81548173ffffffffffffffffffffffffffffffffffffffff021916908373ffffffffffffffffffffffffffffffffffffffff1602179055508173ffffffffffffffffffffffffffffffffffffffff168173ffffffffffffffffffffffffffffffffffffffff167f8be0079c531659141344cd1fd0a4f28419497f9722a3daafe3b4186f6b6457e060405160405180910390a35050565b600081600001549050919050565b600061217361216d611d3b565b83612aa3565b9050919050565b60007f7fffffffffffffffffffffffffffffff5d576e7357a4501ddfe92f46681b20a08260001c11156121e2576040517f08c379a00000000000000000000000000000000000000000000000000000000081526004016121d9906137e4565b60405180910390fd5b601b8460ff1614806121f75750601c8460ff16145b612236576040517f08c379a000000000000000000000000000000000000000000000000000000000815260040161222d90613804565b60405180910390fd5b60006001868686866040516000815260200160405260405161225b949392919061363d565b6020604051602081039080840390855afa15801561227d573d6000803e3d6000fd5b505050602060405103519050600073ffffffffffffffffffffffffffffffffffffffff168173ffffffffffffffffffffffffffffffffffffffff1614156122f9576040517f08c379a00000000000000000000000000000000000000000000000000000000081526004016122f0906136a4565b60405180910390fd5b80915050949350505050565b600080600660008473ffffffffffffffffffffffffffffffffffffffff1673ffffffffffffffffffffffffffffffffffffffff168152602001908152602001600020905061235281612152565b915061235d81612ad6565b50919050565b60007bffffffffffffffffffffffffffffffffffffffffffffffffffffffff905090565b6000806000858054905090506000811461241b57856001826123a99190613b61565b815481106123e0577f4e487b7100000000000000000000000000000000000000000000000000000000600052603260045260246000fd5b9060005260206000200160000160049054906101000a90047bffffffffffffffffffffffffffffffffffffffffffffffffffffffff1661241e565b60005b7bffffffffffffffffffffffffffffffffffffffffffffffffffffffff16925061244c83858763ffffffff16565b91506000811180156124c5575043866001836124689190613b61565b8154811061249f577f4e487b7100000000000000000000000000000000000000000000000000000000600052603260045260246000fd5b9060005260206000200160000160009054906101000a900463ffffffff1663ffffffff16145b15612578576124d3826117de565b866001836124e19190613b61565b81548110612518577f4e487b7100000000000000000000000000000000000000000000000000000000600052603260045260246000fd5b9060005260206000200160000160046101000a8154817bffffffffffffffffffffffffffffffffffffffffffffffffffffffff02191690837bffffffffffffffffffffffffffffffffffffffffffffffffffffffff160217905550612668565b85604051806040016040528061258d43611849565b63ffffffff1681526020016125a1856117de565b7bffffffffffffffffffffffffffffffffffffffffffffffffffffffff168152509080600181540180825580915050600190039060005260206000200160009091909190915060008201518160000160006101000a81548163ffffffff021916908363ffffffff16021790555060208201518160000160046101000a8154817bffffffffffffffffffffffffffffffffffffffffffffffffffffffff02191690837bffffffffffffffffffffffffffffffffffffffffffffffffffffffff16021790555050505b50935093915050565b61267c83838361189c565b60001515600a60008573ffffffffffffffffffffffffffffffffffffffff1673ffffffffffffffffffffffffffffffffffffffff16815260200190815260200160002060009054906101000a900460ff16151514801561272c575060001515600a60008473ffffffffffffffffffffffffffffffffffffffff1673ffffffffffffffffffffffffffffffffffffffff16815260200190815260200160002060009054906101000a900460ff161515145b801561276b575061273b610cb7565b73ffffffffffffffffffffffffffffffffffffffff163373ffffffffffffffffffffffffffffffffffffffff1614155b801561279657506103e8603261277f6106fd565b6127899190613b07565b6127939190613ad6565b81115b156127d6576040517f08c379a00000000000000000000000000000000000000000000000000000000081526004016127cd90613964565b60405180910390fd5b505050565b6127e68383836118a1565b505050565b8173ffffffffffffffffffffffffffffffffffffffff168373ffffffffffffffffffffffffffffffffffffffff16141580156128275750600081115b156129df57600073ffffffffffffffffffffffffffffffffffffffff168373ffffffffffffffffffffffffffffffffffffffff1614612905576000806128ae600860008773ffffffffffffffffffffffffffffffffffffffff1673ffffffffffffffffffffffffffffffffffffffff1681526020019081526020016000206118d185612387565b915091508473ffffffffffffffffffffffffffffffffffffffff167fdec2bacdd2f05b59de34da9b523dff8be42e5e38e818c82fdb0bae774387a72483836040516128fa9291906139fa565b60405180910390a250505b600073ffffffffffffffffffffffffffffffffffffffff168273ffffffffffffffffffffffffffffffffffffffff16146129de57600080612987600860008673ffffffffffffffffffffffffffffffffffffffff1673ffffffffffffffffffffffffffffffffffffffff1681526020019081526020016000206117c885612387565b915091508373ffffffffffffffffffffffffffffffffffffffff167fdec2bacdd2f05b59de34da9b523dff8be42e5e38e818c82fdb0bae774387a72483836040516129d39291906139fa565b60405180910390a250505b5b505050565b600083838346306040516020016129ff9594939291906135ea565b6040516020818303038152906040528051906020012090509392505050565b600060028083612a2e9190613c9b565b600285612a3b9190613c9b565b612a459190613a80565b612a4f9190613ad6565b600283612a5c9190613ad6565b600285612a699190613ad6565b612a739190613a80565b612a7d9190613a80565b905092915050565b612a8f8282612aec565b612a9d60096118d183612387565b50505050565b60008282604051602001612ab89291906134bc565b60405160208183030381529060405280519060200120905092915050565b6001816000016000828254019250508190555050565b600073ffffffffffffffffffffffffffffffffffffffff168273ffffffffffffffffffffffffffffffffffffffff161415612b5c576040517f08c379a0000000000000000000000000000000000000000000000000000000008152600401612b53906138e4565b60405180910390fd5b612b6882600083612671565b60008060008473ffffffffffffffffffffffffffffffffffffffff1673ffffffffffffffffffffffffffffffffffffffff16815260200190815260200160002054905081811015612bee576040517f08c379a0000000000000000000000000000000000000000000000000000000008152600401612be590613724565b60405180910390fd5b8181036000808573ffffffffffffffffffffffffffffffffffffffff1673ffffffffffffffffffffffffffffffffffffffff168152602001908152602001600020819055508160026000828254612c459190613b61565b92505081905550600073ffffffffffffffffffffffffffffffffffffffff168373ffffffffffffffffffffffffffffffffffffffff167fddf252ad1be2c89b69c2b068fc378daa952ba7f163c4a11628f55a4df523b3ef84604051612caa91906139df565b60405180910390a3612cbe836000846127db565b505050565b6040518060400160405280600063ffffffff16815260200160007bffffffffffffffffffffffffffffffffffffffffffffffffffffffff1681525090565b600081359050612d108161441a565b92915050565b600081359050612d2581614431565b92915050565b600081359050612d3a81614448565b92915050565b600081359050612d4f8161445f565b92915050565b600081359050612d6481614476565b92915050565b600081359050612d798161448d565b92915050565b600060208284031215612d9157600080fd5b6000612d9f84828501612d01565b91505092915050565b60008060408385031215612dbb57600080fd5b6000612dc985828601612d01565b9250506020612dda85828601612d01565b9150509250929050565b600080600060608486031215612df957600080fd5b6000612e0786828701612d01565b9350506020612e1886828701612d01565b9250506040612e2986828701612d40565b9150509250925092565b600080600080600080600060e0888a031215612e4e57600080fd5b6000612e5c8a828b01612d01565b9750506020612e6d8a828b01612d01565b9650506040612e7e8a828b01612d40565b9550506060612e8f8a828b01612d40565b9450506080612ea08a828b01612d6a565b93505060a0612eb18a828b01612d2b565b92505060c0612ec28a828b01612d2b565b91505092959891949750929550565b60008060408385031215612ee457600080fd5b6000612ef285828601612d01565b9250506020612f0385828601612d16565b9150509250929050565b60008060408385031215612f2057600080fd5b6000612f2e85828601612d01565b9250506020612f3f85828601612d40565b9150509250929050565b60008060008060008060c08789031215612f6257600080fd5b6000612f7089828a01612d01565b9650506020612f8189828a01612d40565b9550506040612f9289828a01612d40565b9450506060612fa389828a01612d6a565b9350506080612fb489828a01612d2b565b92505060a0612fc589828a01612d2b565b9150509295509295509295565b60008060408385031215612fe557600080fd5b6000612ff385828601612d01565b925050602061300485828601612d55565b9150509250929050565b60006020828403121561302057600080fd5b600061302e84828501612d40565b91505092915050565b61304081613b95565b82525050565b61304f81613ba7565b82525050565b61305e81613bb3565b82525050565b61307561307082613bb3565b613c91565b82525050565b600061308682613a59565b6130908185613a64565b93506130a0818560208601613c2c565b6130a981613d59565b840191505092915050565b60006130c1601883613a64565b91506130cc82613d6a565b602082019050919050565b60006130e4602383613a64565b91506130ef82613d93565b604082019050919050565b6000613107601f83613a64565b915061311282613de2565b602082019050919050565b600061312a601d83613a64565b915061313582613e0b565b602082019050919050565b600061314d602283613a64565b915061315882613e34565b604082019050919050565b6000613170601983613a64565b915061317b82613e83565b602082019050919050565b6000613193602683613a64565b915061319e82613eac565b604082019050919050565b60006131b6602283613a64565b91506131c182613efb565b604082019050919050565b60006131d9600283613a75565b91506131e482613f4a565b600282019050919050565b60006131fc601d83613a64565b915061320782613f73565b602082019050919050565b600061321f602683613a64565b915061322a82613f9c565b604082019050919050565b6000613242602283613a64565b915061324d82613feb565b604082019050919050565b6000613265602283613a64565b91506132708261403a565b604082019050919050565b6000613288601e83613a64565b915061329382614089565b602082019050919050565b60006132ab602883613a64565b91506132b6826140b2565b604082019050919050565b60006132ce603083613a64565b91506132d982614101565b604082019050919050565b60006132f1602083613a64565b91506132fc82614150565b602082019050919050565b6000613314602783613a64565b915061331f82614179565b604082019050919050565b6000613337602483613a64565b9150613342826141c8565b604082019050919050565b600061335a602183613a64565b915061336582614217565b604082019050919050565b600061337d602583613a64565b915061338882614266565b604082019050919050565b60006133a0602683613a64565b91506133ab826142b5565b604082019050919050565b60006133c3602483613a64565b91506133ce82614304565b604082019050919050565b60006133e6603783613a64565b91506133f182614353565b604082019050919050565b6000613409602583613a64565b9150613414826143a2565b604082019050919050565b600061342c601f83613a64565b9150613437826143f1565b602082019050919050565b604082016000820151613458600085018261348f565b50602082015161346b6020850182613471565b50505050565b61347a81613bdd565b82525050565b61348981613c05565b82525050565b61349881613c0f565b82525050565b6134a781613c0f565b82525050565b6134b681613c1f565b82525050565b60006134c7826131cc565b91506134d38285613064565b6020820191506134e38284613064565b6020820191508190509392505050565b60006020820190506135086000830184613037565b92915050565b60006020820190506135236000830184613046565b92915050565b600060208201905061353e6000830184613055565b92915050565b600060c0820190506135596000830189613055565b6135666020830188613037565b6135736040830187613037565b6135806060830186613480565b61358d6080830185613480565b61359a60a0830184613480565b979650505050505050565b60006080820190506135ba6000830187613055565b6135c76020830186613037565b6135d46040830185613480565b6135e16060830184613480565b95945050505050565b600060a0820190506135ff6000830188613055565b61360c6020830187613055565b6136196040830186613055565b6136266060830185613480565b6136336080830184613037565b9695505050505050565b60006080820190506136526000830187613055565b61365f60208301866134ad565b61366c6040830185613055565b6136796060830184613055565b95945050505050565b6000602082019050818103600083015261369c818461307b565b905092915050565b600060208201905081810360008301526136bd816130b4565b9050919050565b600060208201905081810360008301526136dd816130d7565b9050919050565b600060208201905081810360008301526136fd816130fa565b9050919050565b6000602082019050818103600083015261371d8161311d565b9050919050565b6000602082019050818103600083015261373d81613140565b9050919050565b6000602082019050818103600083015261375d81613163565b9050919050565b6000602082019050818103600083015261377d81613186565b9050919050565b6000602082019050818103600083015261379d816131a9565b9050919050565b600060208201905081810360008301526137bd816131ef565b9050919050565b600060208201905081810360008301526137dd81613212565b9050919050565b600060208201905081810360008301526137fd81613235565b9050919050565b6000602082019050818103600083015261381d81613258565b9050919050565b6000602082019050818103600083015261383d8161327b565b9050919050565b6000602082019050818103600083015261385d8161329e565b9050919050565b6000602082019050818103600083015261387d816132c1565b9050919050565b6000602082019050818103600083015261389d816132e4565b9050919050565b600060208201905081810360008301526138bd81613307565b9050919050565b600060208201905081810360008301526138dd8161332a565b9050919050565b600060208201905081810360008301526138fd8161334d565b9050919050565b6000602082019050818103600083015261391d81613370565b9050919050565b6000602082019050818103600083015261393d81613393565b9050919050565b6000602082019050818103600083015261395d816133b6565b9050919050565b6000602082019050818103600083015261397d816133d9565b9050919050565b6000602082019050818103600083015261399d816133fc565b9050919050565b600060208201905081810360008301526139bd8161341f565b9050919050565b60006040820190506139d96000830184613442565b92915050565b60006020820190506139f46000830184613480565b92915050565b6000604082019050613a0f6000830185613480565b613a1c6020830184613480565b9392505050565b6000602082019050613a38600083018461349e565b92915050565b6000602082019050613a5360008301846134ad565b92915050565b600081519050919050565b600082825260208201905092915050565b600081905092915050565b6000613a8b82613c05565b9150613a9683613c05565b9250827fffffffffffffffffffffffffffffffffffffffffffffffffffffffffffffffff03821115613acb57613aca613ccc565b5b828201905092915050565b6000613ae182613c05565b9150613aec83613c05565b925082613afc57613afb613cfb565b5b828204905092915050565b6000613b1282613c05565b9150613b1d83613c05565b9250817fffffffffffffffffffffffffffffffffffffffffffffffffffffffffffffffff0483118215151615613b5657613b55613ccc565b5b828202905092915050565b6000613b6c82613c05565b9150613b7783613c05565b925082821015613b8a57613b89613ccc565b5b828203905092915050565b6000613ba082613bbd565b9050919050565b60008115159050919050565b6000819050919050565b600073ffffffffffffffffffffffffffffffffffffffff82169050919050565b60007bffffffffffffffffffffffffffffffffffffffffffffffffffffffff82169050919050565b6000819050919050565b600063ffffffff82169050919050565b600060ff82169050919050565b60005b83811015613c4a578082015181840152602081019050613c2f565b83811115613c59576000848401525b50505050565b60006002820490506001821680613c7757607f821691505b60208210811415613c8b57613c8a613d2a565b5b50919050565b6000819050919050565b6000613ca682613c05565b9150613cb183613c05565b925082613cc157613cc0613cfb565b5b828206905092915050565b7f4e487b7100000000000000000000000000000000000000000000000000000000600052601160045260246000fd5b7f4e487b7100000000000000000000000000000000000000000000000000000000600052601260045260246000fd5b7f4e487b7100000000000000000000000000000000000000000000000000000000600052602260045260246000fd5b6000601f19601f8301169050919050565b7f45434453413a20696e76616c6964207369676e61747572650000000000000000600082015250565b7f45524332303a207472616e7366657220746f20746865207a65726f206164647260008201527f6573730000000000000000000000000000000000000000000000000000000000602082015250565b7f4552433230566f7465733a20626c6f636b206e6f7420796574206d696e656400600082015250565b7f4552433230566f7465733a207369676e61747572652065787069726564000000600082015250565b7f45524332303a206275726e20616d6f756e7420657863656564732062616c616e60008201527f6365000000000000000000000000000000000000000000000000000000000000602082015250565b7f4552433230566f7465733a20696e76616c6964206e6f6e636500000000000000600082015250565b7f4f776e61626c653a206e6577206f776e657220697320746865207a65726f206160008201527f6464726573730000000000000000000000000000000000000000000000000000602082015250565b7f45524332303a20617070726f766520746f20746865207a65726f20616464726560008201527f7373000000000000000000000000000000000000000000000000000000000000602082015250565b7f1901000000000000000000000000000000000000000000000000000000000000600082015250565b7f45524332305065726d69743a206578706972656420646561646c696e65000000600082015250565b7f45524332303a207472616e7366657220616d6f756e742065786365656473206260008201527f616c616e63650000000000000000000000000000000000000000000000000000602082015250565b7f45434453413a20696e76616c6964207369676e6174757265202773272076616c60008201527f7565000000000000000000000000000000000000000000000000000000000000602082015250565b7f45434453413a20696e76616c6964207369676e6174757265202776272076616c60008201527f7565000000000000000000000000000000000000000000000000000000000000602082015250565b7f45524332305065726d69743a20696e76616c6964207369676e61747572650000600082015250565b7f45524332303a207472616e7366657220616d6f756e742065786365656473206160008201527f6c6c6f77616e6365000000000000000000000000000000000000000000000000602082015250565b7f4552433230566f7465733a20746f74616c20737570706c79207269736b73206f60008201527f766572666c6f77696e6720766f74657300000000000000000000000000000000602082015250565b7f4f776e61626c653a2063616c6c6572206973206e6f7420746865206f776e6572600082015250565b7f53616665436173743a2076616c756520646f65736e27742066697420696e203260008201527f3234206269747300000000000000000000000000000000000000000000000000602082015250565b7f45524332303a206275726e20616d6f756e74206578636565647320616c6c6f7760008201527f616e636500000000000000000000000000000000000000000000000000000000602082015250565b7f45524332303a206275726e2066726f6d20746865207a65726f2061646472657360008201527f7300000000000000000000000000000000000000000000000000000000000000602082015250565b7f45524332303a207472616e736665722066726f6d20746865207a65726f20616460008201527f6472657373000000000000000000000000000000000000000000000000000000602082015250565b7f53616665436173743a2076616c756520646f65736e27742066697420696e203360008201527f3220626974730000000000000000000000000000000000000000000000000000602082015250565b7f45524332303a20617070726f76652066726f6d20746865207a65726f2061646460008201527f7265737300000000000000000000000000000000000000000000000000000000602082015250565b7f416e74692d7768616c653a20547820616d6f756e74206973206772656174657260008201527f207468616e203525206f6620746f74616c537570706c79000000000000000000602082015250565b7f45524332303a2064656372656173656420616c6c6f77616e63652062656c6f7760008201527f207a65726f000000000000000000000000000000000000000000000000000000602082015250565b7f45524332303a206d696e7420746f20746865207a65726f206164647265737300600082015250565b61442381613b95565b811461442e57600080fd5b50565b61443a81613ba7565b811461444557600080fd5b50565b61445181613bb3565b811461445c57600080fd5b50565b61446881613c05565b811461447357600080fd5b50565b61447f81613c0f565b811461448a57600080fd5b50565b61449681613c1f565b81146144a157600080fd5b5056fea2646970667358221220e6ffdcdde7575655d32da2e77d327d5edb6aaf37cf0ef1259300a21719b9974564736f6c63430008020033",
    "immutableReferences": {
        "6384": [
            {
                "length": 32,
                "start": 4651
            }
        ],
        "7141": [
            {
                "length": 32,
                "start": 7527
            }
        ],
        "7143": [
            {
                "length": 32,
                "start": 7487
            }
        ],
        "7145": [
            {
                "length": 32,
                "start": 7603
            }
        ],
        "7147": [
            {
                "length": 32,
                "start": 7636
            }
        ],
        "7149": [
            {
                "length": 32,
                "start": 7570
            }
        ]
    },
    "source": "// SPDX-License-Identifier: MIT\npragma solidity ^0.8.2;\n\nimport \"@openzeppelin/contracts/token/ERC20/ERC20.sol\";\nimport \"@openzeppelin/contracts/token/ERC20/extensions/ERC20Burnable.sol\";\nimport \"@openzeppelin/contracts/access/Ownable.sol\";\nimport \"@openzeppelin/contracts/token/ERC20/extensions/draft-ERC20Permit.sol\";\nimport \"@openzeppelin/contracts/token/ERC20/extensions/ERC20Votes.sol\";\n\ncontract LimeToken is ERC20, ERC20Burnable, Ownable, ERC20Permit, ERC20Votes {\n    mapping(address => bool) _excludedFromAntiWhale;\n\n    constructor() ERC20(\"LimeToken\", \"LIME\") ERC20Permit(\"LimeToken\") {\n        _mint(msg.sender, 20000 * 10 ** decimals());\n    }\n\n    function mint(address to, uint256 amount) public onlyOwner {\n        _mint(to, amount);\n    }\n\n    function _beforeTokenTransfer(address from, address to, uint256 amount)\n        internal virtual override\n    {\n        super._beforeTokenTransfer(from, to, amount); // Call parent hook\n\n        // Apply anti-whale\n        if (\n            _excludedFromAntiWhale[from] == false\n            && _excludedFromAntiWhale[to] == false\n            && msg.sender != owner()\n            && amount > totalSupply() * 50 / 1000\n            ){\n            revert(\"Anti-whale: Tx amount is greater than 5% of totalSupply\");\n        }\n    }\n\n    function setExcludedFromAntiWhale(address _account, bool _excluded) public onlyOwner {\n        _excludedFromAntiWhale[_account] = _excluded;\n    }\n\n    function isExcludedFromAntiWhale(address _account) public view returns (bool) {\n        return _excludedFromAntiWhale[_account];\n    }\n\n    function _afterTokenTransfer(address from, address to, uint256 amount)\n        internal\n        override(ERC20, ERC20Votes)\n    {\n        super._afterTokenTransfer(from, to, amount);\n    }\n\n    function _mint(address to, uint256 amount)\n        internal\n        override(ERC20, ERC20Votes)\n    {\n        super._mint(to, amount);\n    }\n\n    function _burn(address account, uint256 amount)\n        internal\n        override(ERC20, ERC20Votes)\n    {\n        super._burn(account, amount);\n    }\n}",
    "sourcePath": "/root/crypto/lemon-finance/core-contracts/contracts/LimeToken.sol",
    "compiler": {
        "name": "solc",
        "version": "0.8.2+commit.661d1103.Emscripten.clang"
    },
    "schemaVersion": "3.3.4",
    "updatedAt": "2021-08-02T02:53:26.630Z",
    "devdoc": {
        "kind": "dev",
        "methods": {
            "DOMAIN_SEPARATOR()": {
                "details": "See {IERC20Permit-DOMAIN_SEPARATOR}."
            },
            "allowance(address,address)": {
                "details": "See {IERC20-allowance}."
            },
            "approve(address,uint256)": {
                "details": "See {IERC20-approve}. Requirements: - `spender` cannot be the zero address."
            },
            "balanceOf(address)": {
                "details": "See {IERC20-balanceOf}."
            },
            "burn(uint256)": {
                "details": "Destroys `amount` tokens from the caller. See {ERC20-_burn}."
            },
            "burnFrom(address,uint256)": {
                "details": "Destroys `amount` tokens from `account`, deducting from the caller's allowance. See {ERC20-_burn} and {ERC20-allowance}. Requirements: - the caller must have allowance for ``accounts``'s tokens of at least `amount`."
            },
            "checkpoints(address,uint32)": {
                "details": "Get the `pos`-th checkpoint for `account`."
            },
            "decimals()": {
                "details": "Returns the number of decimals used to get its user representation. For example, if `decimals` equals `2`, a balance of `505` tokens should be displayed to a user as `5,05` (`505 / 10 ** 2`). Tokens usually opt for a value of 18, imitating the relationship between Ether and Wei. This is the value {ERC20} uses, unless this function is overridden; NOTE: This information is only used for _display_ purposes: it in no way affects any of the arithmetic of the contract, including {IERC20-balanceOf} and {IERC20-transfer}."
            },
            "decreaseAllowance(address,uint256)": {
                "details": "Atomically decreases the allowance granted to `spender` by the caller. This is an alternative to {approve} that can be used as a mitigation for problems described in {IERC20-approve}. Emits an {Approval} event indicating the updated allowance. Requirements: - `spender` cannot be the zero address. - `spender` must have allowance for the caller of at least `subtractedValue`."
            },
            "delegate(address)": {
                "details": "Delegate votes from the sender to `delegatee`."
            },
            "delegateBySig(address,uint256,uint256,uint8,bytes32,bytes32)": {
                "details": "Delegates votes from signer to `delegatee`"
            },
            "delegates(address)": {
                "details": "Get the address `account` is currently delegating to."
            },
            "getPastTotalSupply(uint256)": {
                "details": "Retrieve the `totalSupply` at the end of `blockNumber`. Note, this value is the sum of all balances. It is but NOT the sum of all the delegated votes! Requirements: - `blockNumber` must have been already mined"
            },
            "getPastVotes(address,uint256)": {
                "details": "Retrieve the number of votes for `account` at the end of `blockNumber`. Requirements: - `blockNumber` must have been already mined"
            },
            "getVotes(address)": {
                "details": "Gets the current votes balance for `account`"
            },
            "increaseAllowance(address,uint256)": {
                "details": "Atomically increases the allowance granted to `spender` by the caller. This is an alternative to {approve} that can be used as a mitigation for problems described in {IERC20-approve}. Emits an {Approval} event indicating the updated allowance. Requirements: - `spender` cannot be the zero address."
            },
            "name()": {
                "details": "Returns the name of the token."
            },
            "nonces(address)": {
                "details": "See {IERC20Permit-nonces}."
            },
            "numCheckpoints(address)": {
                "details": "Get number of checkpoints for `account`."
            },
            "owner()": {
                "details": "Returns the address of the current owner."
            },
            "permit(address,address,uint256,uint256,uint8,bytes32,bytes32)": {
                "details": "See {IERC20Permit-permit}."
            },
            "renounceOwnership()": {
                "details": "Leaves the contract without owner. It will not be possible to call `onlyOwner` functions anymore. Can only be called by the current owner. NOTE: Renouncing ownership will leave the contract without an owner, thereby removing any functionality that is only available to the owner."
            },
            "symbol()": {
                "details": "Returns the symbol of the token, usually a shorter version of the name."
            },
            "totalSupply()": {
                "details": "See {IERC20-totalSupply}."
            },
            "transfer(address,uint256)": {
                "details": "See {IERC20-transfer}. Requirements: - `recipient` cannot be the zero address. - the caller must have a balance of at least `amount`."
            },
            "transferFrom(address,address,uint256)": {
                "details": "See {IERC20-transferFrom}. Emits an {Approval} event indicating the updated allowance. This is not required by the EIP. See the note at the beginning of {ERC20}. Requirements: - `sender` and `recipient` cannot be the zero address. - `sender` must have a balance of at least `amount`. - the caller must have allowance for ``sender``'s tokens of at least `amount`."
            },
            "transferOwnership(address)": {
                "details": "Transfers ownership of the contract to a new account (`newOwner`). Can only be called by the current owner."
            }
        },
        "version": 1
    },
    "userdoc": {
        "kind": "user",
        "methods": {},
        "version": 1
    }
}