{
    "contractName": "TokenFarm",
    "abi": [
        {
            "inputs": [
                {
                    "internalType": "contract IDistribution",
                    "name": "_distribution",
                    "type": "address"
                },
                {
                    "internalType": "contract LimeToken",
                    "name": "_limeToken",
                    "type": "address"
                }
            ],
            "stateMutability": "nonpayable",
            "type": "constructor"
        },
        {
            "anonymous": false,
            "inputs": [
                {
                    "indexed": true,
                    "internalType": "address",
                    "name": "user",
                    "type": "address"
                },
                {
                    "indexed": true,
                    "internalType": "uint256",
                    "name": "poolIndex",
                    "type": "uint256"
                },
                {
                    "indexed": false,
                    "internalType": "uint256",
                    "name": "amount",
                    "type": "uint256"
                }
            ],
            "name": "Deposit",
            "type": "event"
        },
        {
            "anonymous": false,
            "inputs": [
                {
                    "indexed": true,
                    "internalType": "address",
                    "name": "previousOwner",
                    "type": "address"
                },
                {
                    "indexed": true,
                    "internalType": "address",
                    "name": "newOwner",
                    "type": "address"
                }
            ],
            "name": "OwnershipTransferred",
            "type": "event"
        },
        {
            "anonymous": false,
            "inputs": [
                {
                    "indexed": true,
                    "internalType": "address",
                    "name": "user",
                    "type": "address"
                },
                {
                    "indexed": true,
                    "internalType": "uint256",
                    "name": "poolIndex",
                    "type": "uint256"
                },
                {
                    "indexed": false,
                    "internalType": "uint256",
                    "name": "amount",
                    "type": "uint256"
                }
            ],
            "name": "Withdrawal",
            "type": "event"
        },
        {
            "inputs": [],
            "name": "distribution",
            "outputs": [
                {
                    "internalType": "contract IDistribution",
                    "name": "",
                    "type": "address"
                }
            ],
            "stateMutability": "view",
            "type": "function"
        },
        {
            "inputs": [
                {
                    "internalType": "uint256",
                    "name": "",
                    "type": "uint256"
                },
                {
                    "internalType": "address",
                    "name": "",
                    "type": "address"
                }
            ],
            "name": "holdings",
            "outputs": [
                {
                    "internalType": "uint256",
                    "name": "stakedAmount",
                    "type": "uint256"
                },
                {
                    "internalType": "uint256",
                    "name": "stakeBlock",
                    "type": "uint256"
                },
                {
                    "internalType": "uint256",
                    "name": "debt",
                    "type": "uint256"
                }
            ],
            "stateMutability": "view",
            "type": "function"
        },
        {
            "inputs": [],
            "name": "limeToken",
            "outputs": [
                {
                    "internalType": "contract LimeToken",
                    "name": "",
                    "type": "address"
                }
            ],
            "stateMutability": "view",
            "type": "function"
        },
        {
            "inputs": [],
            "name": "name",
            "outputs": [
                {
                    "internalType": "string",
                    "name": "",
                    "type": "string"
                }
            ],
            "stateMutability": "view",
            "type": "function"
        },
        {
            "inputs": [],
            "name": "owner",
            "outputs": [
                {
                    "internalType": "address",
                    "name": "",
                    "type": "address"
                }
            ],
            "stateMutability": "view",
            "type": "function"
        },
        {
            "inputs": [
                {
                    "internalType": "uint256",
                    "name": "",
                    "type": "uint256"
                }
            ],
            "name": "pools",
            "outputs": [
                {
                    "internalType": "uint256",
                    "name": "poolSize",
                    "type": "uint256"
                },
                {
                    "internalType": "uint256",
                    "name": "limePerBlock",
                    "type": "uint256"
                },
                {
                    "internalType": "bool",
                    "name": "taxFree",
                    "type": "bool"
                },
                {
                    "internalType": "bool",
                    "name": "isLp",
                    "type": "bool"
                },
                {
                    "internalType": "contract IERC20",
                    "name": "token",
                    "type": "address"
                }
            ],
            "stateMutability": "view",
            "type": "function"
        },
        {
            "inputs": [],
            "name": "renounceOwnership",
            "outputs": [],
            "stateMutability": "nonpayable",
            "type": "function"
        },
        {
            "inputs": [
                {
                    "internalType": "address",
                    "name": "newOwner",
                    "type": "address"
                }
            ],
            "name": "transferOwnership",
            "outputs": [],
            "stateMutability": "nonpayable",
            "type": "function"
        },
        {
            "inputs": [
                {
                    "internalType": "contract IERC20",
                    "name": "_token",
                    "type": "address"
                },
                {
                    "internalType": "uint256",
                    "name": "_limePerBlock",
                    "type": "uint256"
                },
                {
                    "internalType": "bool",
                    "name": "_taxFree",
                    "type": "bool"
                }
            ],
            "name": "createPool",
            "outputs": [],
            "stateMutability": "nonpayable",
            "type": "function"
        },
        {
            "inputs": [
                {
                    "internalType": "uint256",
                    "name": "_amount",
                    "type": "uint256"
                },
                {
                    "internalType": "uint128",
                    "name": "_poolIndex",
                    "type": "uint128"
                }
            ],
            "name": "depositTokens",
            "outputs": [
                {
                    "internalType": "bool",
                    "name": "",
                    "type": "bool"
                }
            ],
            "stateMutability": "nonpayable",
            "type": "function"
        },
        {
            "inputs": [
                {
                    "internalType": "uint256",
                    "name": "_amount",
                    "type": "uint256"
                },
                {
                    "internalType": "uint128",
                    "name": "_poolIndex",
                    "type": "uint128"
                }
            ],
            "name": "withdrawTokens",
            "outputs": [
                {
                    "internalType": "bool",
                    "name": "",
                    "type": "bool"
                }
            ],
            "stateMutability": "nonpayable",
            "type": "function"
        },
        {
            "inputs": [
                {
                    "internalType": "uint128",
                    "name": "_poolIndex",
                    "type": "uint128"
                }
            ],
            "name": "harvestLimes",
            "outputs": [],
            "stateMutability": "nonpayable",
            "type": "function"
        },
        {
            "inputs": [
                {
                    "internalType": "uint128",
                    "name": "_poolIndex",
                    "type": "uint128"
                }
            ],
            "name": "checkpoint",
            "outputs": [],
            "stateMutability": "nonpayable",
            "type": "function"
        },
        {
            "inputs": [],
            "name": "isHarvestingPeriod",
            "outputs": [
                {
                    "internalType": "bool",
                    "name": "",
                    "type": "bool"
                }
            ],
            "stateMutability": "view",
            "type": "function"
        },
        {
            "inputs": [
                {
                    "internalType": "uint128",
                    "name": "_poolIndex",
                    "type": "uint128"
                }
            ],
            "name": "userStakeInPool",
            "outputs": [
                {
                    "internalType": "uint256",
                    "name": "",
                    "type": "uint256"
                }
            ],
            "stateMutability": "view",
            "type": "function"
        },
        {
            "inputs": [
                {
                    "internalType": "uint128",
                    "name": "_poolIndex",
                    "type": "uint128"
                }
            ],
            "name": "userDebtInPool",
            "outputs": [
                {
                    "internalType": "uint256",
                    "name": "",
                    "type": "uint256"
                }
            ],
            "stateMutability": "view",
            "type": "function"
        },
        {
            "inputs": [
                {
                    "internalType": "uint128",
                    "name": "_poolIndex",
                    "type": "uint128"
                }
            ],
            "name": "userAvailableHarvest",
            "outputs": [
                {
                    "internalType": "uint256",
                    "name": "",
                    "type": "uint256"
                }
            ],
            "stateMutability": "view",
            "type": "function"
        },
        {
            "inputs": [],
            "name": "totalPools",
            "outputs": [
                {
                    "internalType": "uint256",
                    "name": "",
                    "type": "uint256"
                }
            ],
            "stateMutability": "view",
            "type": "function"
        },
        {
            "inputs": [
                {
                    "internalType": "uint128",
                    "name": "_poolIndex",
                    "type": "uint128"
                }
            ],
            "name": "getPoolSize",
            "outputs": [
                {
                    "internalType": "uint256",
                    "name": "",
                    "type": "uint256"
                }
            ],
            "stateMutability": "view",
            "type": "function"
        },
        {
            "inputs": [],
            "name": "getPools",
            "outputs": [
                {
                    "components": [
                        {
                            "internalType": "uint256",
                            "name": "poolSize",
                            "type": "uint256"
                        },
                        {
                            "internalType": "uint256",
                            "name": "limePerBlock",
                            "type": "uint256"
                        },
                        {
                            "internalType": "bool",
                            "name": "taxFree",
                            "type": "bool"
                        },
                        {
                            "internalType": "bool",
                            "name": "isLp",
                            "type": "bool"
                        },
                        {
                            "internalType": "contract IERC20",
                            "name": "token",
                            "type": "address"
                        }
                    ],
                    "internalType": "struct ITokenFarm.Pool[]",
                    "name": "",
                    "type": "tuple[]"
                }
            ],
            "stateMutability": "view",
            "type": "function"
        }
    ],
    "bytecode": "0x60806040526040518060400160405280600f81526020017f4c494d4520546f6b656e204661726d00000000000000000000000000000000008152506001908051906020019062000051929190620001fb565b503480156200005f57600080fd5b5060405162002e5138038062002e518339818101604052810190620000859190620002d9565b620000a5620000996200012f60201b60201c565b6200013760201b60201c565b80600260006101000a81548173ffffffffffffffffffffffffffffffffffffffff021916908373ffffffffffffffffffffffffffffffffffffffff16021790555081600360006101000a81548173ffffffffffffffffffffffffffffffffffffffff021916908373ffffffffffffffffffffffffffffffffffffffff16021790555050506200040f565b600033905090565b60008060009054906101000a900473ffffffffffffffffffffffffffffffffffffffff169050816000806101000a81548173ffffffffffffffffffffffffffffffffffffffff021916908373ffffffffffffffffffffffffffffffffffffffff1602179055508173ffffffffffffffffffffffffffffffffffffffff168173ffffffffffffffffffffffffffffffffffffffff167f8be0079c531659141344cd1fd0a4f28419497f9722a3daafe3b4186f6b6457e060405160405180910390a35050565b828054620002099062000376565b90600052602060002090601f0160209004810192826200022d576000855562000279565b82601f106200024857805160ff191683800117855562000279565b8280016001018555821562000279579182015b82811115620002785782518255916020019190600101906200025b565b5b5090506200028891906200028c565b5090565b5b80821115620002a75760008160009055506001016200028d565b5090565b600081519050620002bc81620003db565b92915050565b600081519050620002d381620003f5565b92915050565b60008060408385031215620002ed57600080fd5b6000620002fd85828601620002ab565b92505060206200031085828601620002c2565b9150509250929050565b6000620003278262000356565b9050919050565b60006200033b826200031a565b9050919050565b60006200034f826200031a565b9050919050565b600073ffffffffffffffffffffffffffffffffffffffff82169050919050565b600060028204905060018216806200038f57607f821691505b60208210811415620003a657620003a5620003ac565b5b50919050565b7f4e487b7100000000000000000000000000000000000000000000000000000000600052602260045260246000fd5b620003e6816200032e565b8114620003f257600080fd5b50565b620004008162000342565b81146200040c57600080fd5b50565b612a32806200041f6000396000f3fe608060405234801561001057600080fd5b506004361061012c5760003560e01c8063a1823a61116100ad578063e01de29711610071578063e01de29714610339578063e28c552714610369578063f2fde38b14610385578063f7e251f8146103a1578063fa62b61f146103d15761012c565b8063a1823a611461026b578063a1fc069c1461029b578063ab3c7e52146102b7578063ac4afa38146102d5578063bdc30898146103095761012c565b80633c3837e0116100f45780633c3837e0146101eb5780635ee58efc14610207578063673a2a1f14610225578063715018a6146102435780638da5cb5b1461024d5761012c565b806301d65ca41461013157806306fdde0314610161578063197bdb331461017f578063223649821461019d5780632af04478146101bb575b600080fd5b61014b60048036038101906101469190611ddd565b610403565b604051610158919061232a565b60405180910390f35b610169610523565b6040516101769190612228565b60405180910390f35b6101876105b1565b604051610194919061220d565b60405180910390f35b6101a56105d7565b6040516101b291906121d7565b60405180910390f35b6101d560048036038101906101d09190611ddd565b610600565b6040516101e2919061232a565b60405180910390f35b61020560048036038101906102009190611d8e565b61066f565b005b61020f61086e565b60405161021c91906121f2565b60405180910390f35b61022d610894565b60405161023a91906121b5565b60405180910390f35b61024b610993565b005b610255610a1b565b604051610262919061213a565b60405180910390f35b61028560048036038101906102809190611ddd565b610a44565b604051610292919061232a565b60405180910390f35b6102b560048036038101906102b09190611ddd565b610ab3565b005b6102bf610abf565b6040516102cc919061232a565b60405180910390f35b6102ef60048036038101906102ea9190611e06565b610acc565b60405161030095949392919061237c565b60405180910390f35b610323600480360381019061031e9190611e6b565b610b4c565b60405161033091906121d7565b60405180910390f35b610353600480360381019061034e9190611e6b565b611065565b60405161036091906121d7565b60405180910390f35b610383600480360381019061037e9190611ddd565b6115f1565b005b61039f600480360381019061039a9190611d13565b6117fe565b005b6103bb60048036038101906103b69190611ddd565b6118f6565b6040516103c8919061232a565b60405180910390f35b6103eb60048036038101906103e69190611e2f565b61195d565b6040516103fa939291906123cf565b60405180910390f35b60008060056000846fffffffffffffffffffffffffffffffff16815260200190815260200160002060003373ffffffffffffffffffffffffffffffffffffffff1673ffffffffffffffffffffffffffffffffffffffff168152602001908152602001600020905060006004846fffffffffffffffffffffffffffffffff16815481106104b8577f4e487b7100000000000000000000000000000000000000000000000000000000600052603260045260246000fd5b9060005260206000209060030201905060008083600001541115610504576104fd8360010154436104e9919061253c565b836001015485600001548560000154611994565b9050610509565b600090505b808360020154610519919061245b565b9350505050919050565b6001805461053090612685565b80601f016020809104026020016040519081016040528092919081815260200182805461055c90612685565b80156105a95780601f1061057e576101008083540402835291602001916105a9565b820191906000526020600020905b81548152906001019060200180831161058c57829003601f168201915b505050505081565b600260009054906101000a900473ffffffffffffffffffffffffffffffffffffffff1681565b600062015180621275006202a300426105f0919061245b565b6105fa91906126b7565b10905090565b600060056000836fffffffffffffffffffffffffffffffff16815260200190815260200160002060003373ffffffffffffffffffffffffffffffffffffffff1673ffffffffffffffffffffffffffffffffffffffff168152602001908152602001600020600001549050919050565b610677611a05565b73ffffffffffffffffffffffffffffffffffffffff16610695610a1b565b73ffffffffffffffffffffffffffffffffffffffff16146106eb576040517f08c379a00000000000000000000000000000000000000000000000000000000081526004016106e2906122ea565b60405180910390fd5b6006600480549050101580156106fe5750805b806107115750680d8d726b7177a8000082115b15610751576040517f08c379a00000000000000000000000000000000000000000000000000000000081526004016107489061226a565b60405180910390fd5b600061075c84611a0d565b905060046040518060a0016040528060008152602001858152602001841515815260200183151581526020018673ffffffffffffffffffffffffffffffffffffffff168152509080600181540180825580915050600190039060005260206000209060030201600090919091909150600082015181600001556020820151816001015560408201518160020160006101000a81548160ff02191690831515021790555060608201518160020160016101000a81548160ff02191690831515021790555060808201518160020160026101000a81548173ffffffffffffffffffffffffffffffffffffffff021916908373ffffffffffffffffffffffffffffffffffffffff160217905550505050505050565b600360009054906101000a900473ffffffffffffffffffffffffffffffffffffffff1681565b60606004805480602002602001604051908101604052809291908181526020016000905b8282101561098a57838290600052602060002090600302016040518060a001604052908160008201548152602001600182015481526020016002820160009054906101000a900460ff161515151581526020016002820160019054906101000a900460ff161515151581526020016002820160029054906101000a900473ffffffffffffffffffffffffffffffffffffffff1673ffffffffffffffffffffffffffffffffffffffff1673ffffffffffffffffffffffffffffffffffffffff1681525050815260200190600101906108b8565b50505050905090565b61099b611a05565b73ffffffffffffffffffffffffffffffffffffffff166109b9610a1b565b73ffffffffffffffffffffffffffffffffffffffff1614610a0f576040517f08c379a0000000000000000000000000000000000000000000000000000000008152600401610a06906122ea565b60405180910390fd5b610a196000611aa3565b565b60008060009054906101000a900473ffffffffffffffffffffffffffffffffffffffff16905090565b600060056000836fffffffffffffffffffffffffffffffff16815260200190815260200160002060003373ffffffffffffffffffffffffffffffffffffffff1673ffffffffffffffffffffffffffffffffffffffff168152602001908152602001600020600201549050919050565b610abc81611b67565b50565b6000600480549050905090565b60048181548110610adc57600080fd5b90600052602060002090600302016000915090508060000154908060010154908060020160009054906101000a900460ff16908060020160019054906101000a900460ff16908060020160029054906101000a900473ffffffffffffffffffffffffffffffffffffffff16905085565b6000806004836fffffffffffffffffffffffffffffffff1681548110610b9b577f4e487b7100000000000000000000000000000000000000000000000000000000600052603260045260246000fd5b90600052602060002090600302019050600060056000856fffffffffffffffffffffffffffffffff16815260200190815260200160002060003373ffffffffffffffffffffffffffffffffffffffff1673ffffffffffffffffffffffffffffffffffffffff1681526020019081526020016000209050600085118015610c25575084816000015410155b610c64576040517f08c379a0000000000000000000000000000000000000000000000000000000008152600401610c5b906122aa565b60405180910390fd5b610c6d84611b67565b84816000016000828254610c81919061253c565b9250508190555084826000016000828254610c9c919061253c565b925050819055508160020160009054906101000a900460ff1615610d71578160020160029054906101000a900473ffffffffffffffffffffffffffffffffffffffff1673ffffffffffffffffffffffffffffffffffffffff1663a9059cbb33876040518363ffffffff1660e01b8152600401610d1992919061218c565b602060405180830381600087803b158015610d3357600080fd5b505af1158015610d47573d6000803e3d6000fd5b505050506040513d601f19601f82011682018060405250810190610d6b9190611d65565b50610ff8565b60006103e861015e87610d8491906124e2565b610d8e91906124b1565b90508260020160029054906101000a900473ffffffffffffffffffffffffffffffffffffffff1673ffffffffffffffffffffffffffffffffffffffff1663a9059cbb600360009054906101000a900473ffffffffffffffffffffffffffffffffffffffff16836040518363ffffffff1660e01b8152600401610e1192919061218c565b602060405180830381600087803b158015610e2b57600080fd5b505af1158015610e3f573d6000803e3d6000fd5b505050506040513d601f19601f82011682018060405250810190610e639190611d65565b50600360009054906101000a900473ffffffffffffffffffffffffffffffffffffffff1673ffffffffffffffffffffffffffffffffffffffff16639eab736f828560020160029054906101000a900473ffffffffffffffffffffffffffffffffffffffff168660020160019054906101000a900460ff166040518463ffffffff1660e01b8152600401610ef893929190612345565b600060405180830381600087803b158015610f1257600080fd5b505af1158015610f26573d6000803e3d6000fd5b505050508260020160029054906101000a900473ffffffffffffffffffffffffffffffffffffffff1673ffffffffffffffffffffffffffffffffffffffff1663a9059cbb336103e86103c58a610f7c91906124e2565b610f8691906124b1565b6040518363ffffffff1660e01b8152600401610fa392919061218c565b602060405180830381600087803b158015610fbd57600080fd5b505af1158015610fd1573d6000803e3d6000fd5b505050506040513d601f19601f82011682018060405250810190610ff59190611d65565b50505b836fffffffffffffffffffffffffffffffff163373ffffffffffffffffffffffffffffffffffffffff167fdf273cb619d95419a9cd0ec88123a0538c85064229baa6363788f743fff90deb87604051611051919061232a565b60405180910390a360019250505092915050565b60008083116110a9576040517f08c379a00000000000000000000000000000000000000000000000000000000081526004016110a09061230a565b60405180910390fd5b60006004836fffffffffffffffffffffffffffffffff16815481106110f7577f4e487b7100000000000000000000000000000000000000000000000000000000600052603260045260246000fd5b90600052602060002090600302019050600060056000856fffffffffffffffffffffffffffffffff16815260200190815260200160002060003373ffffffffffffffffffffffffffffffffffffffff1673ffffffffffffffffffffffffffffffffffffffff16815260200190815260200160002090506000816000015411156111885761118384611b67565b611192565b4381600101819055505b60008260020160009054906101000a900460ff1615611267578260020160029054906101000a900473ffffffffffffffffffffffffffffffffffffffff1673ffffffffffffffffffffffffffffffffffffffff166323b872dd3330896040518463ffffffff1660e01b815260040161120c93929190612155565b602060405180830381600087803b15801561122657600080fd5b505af115801561123a573d6000803e3d6000fd5b505050506040513d601f19601f8201168201806040525081019061125e9190611d65565b508590506114f4565b6000612710605a8861127991906124e2565b61128391906124b1565b90506103e86103df8861129691906124e2565b6112a091906124b1565b91508360020160029054906101000a900473ffffffffffffffffffffffffffffffffffffffff1673ffffffffffffffffffffffffffffffffffffffff166323b872dd33600360009054906101000a900473ffffffffffffffffffffffffffffffffffffffff16846040518463ffffffff1660e01b815260040161132593929190612155565b602060405180830381600087803b15801561133f57600080fd5b505af1158015611353573d6000803e3d6000fd5b505050506040513d601f19601f820116820180604052508101906113779190611d65565b508360020160029054906101000a900473ffffffffffffffffffffffffffffffffffffffff1673ffffffffffffffffffffffffffffffffffffffff166323b872dd3330856040518463ffffffff1660e01b81526004016113d993929190612155565b602060405180830381600087803b1580156113f357600080fd5b505af1158015611407573d6000803e3d6000fd5b505050506040513d601f19601f8201168201806040525081019061142b9190611d65565b50600360009054906101000a900473ffffffffffffffffffffffffffffffffffffffff1673ffffffffffffffffffffffffffffffffffffffff16639eab736f828660020160029054906101000a900473ffffffffffffffffffffffffffffffffffffffff168760020160019054906101000a900460ff166040518463ffffffff1660e01b81526004016114c093929190612345565b600060405180830381600087803b1580156114da57600080fd5b505af11580156114ee573d6000803e3d6000fd5b50505050505b80826000016000828254611508919061245b565b92505081905550806004866fffffffffffffffffffffffffffffffff168154811061155c577f4e487b7100000000000000000000000000000000000000000000000000000000600052603260045260246000fd5b9060005260206000209060030201600001600082825461157c919061245b565b92505081905550846fffffffffffffffffffffffffffffffff163373ffffffffffffffffffffffffffffffffffffffff167f90890809c654f11d6e72a28fa60149770a0d11ec6c92319d6ceb2bb0a4ea1a15836040516115dc919061232a565b60405180910390a36001935050505092915050565b62015180621275006202a30042611608919061245b565b61161291906126b7565b10611652576040517f08c379a0000000000000000000000000000000000000000000000000000000008152600401611649906122ca565b60405180910390fd5b60006004826fffffffffffffffffffffffffffffffff16815481106116a0577f4e487b7100000000000000000000000000000000000000000000000000000000600052603260045260246000fd5b90600052602060002090600302019050600060056000846fffffffffffffffffffffffffffffffff16815260200190815260200160002060003373ffffffffffffffffffffffffffffffffffffffff1673ffffffffffffffffffffffffffffffffffffffff16815260200190815260200160002090506000816002015490506000611748836001015443611734919061253c565b856001015485600001548760000154611994565b905043836001018190555060008360020181905550600260009054906101000a900473ffffffffffffffffffffffffffffffffffffffff1673ffffffffffffffffffffffffffffffffffffffff166340c10f193383856117a8919061245b565b6040518363ffffffff1660e01b81526004016117c592919061218c565b600060405180830381600087803b1580156117df57600080fd5b505af11580156117f3573d6000803e3d6000fd5b505050505050505050565b611806611a05565b73ffffffffffffffffffffffffffffffffffffffff16611824610a1b565b73ffffffffffffffffffffffffffffffffffffffff161461187a576040517f08c379a0000000000000000000000000000000000000000000000000000000008152600401611871906122ea565b60405180910390fd5b600073ffffffffffffffffffffffffffffffffffffffff168173ffffffffffffffffffffffffffffffffffffffff1614156118ea576040517f08c379a00000000000000000000000000000000000000000000000000000000081526004016118e19061228a565b60405180910390fd5b6118f381611aa3565b50565b60006004826fffffffffffffffffffffffffffffffff1681548110611944577f4e487b7100000000000000000000000000000000000000000000000000000000600052603260045260246000fd5b9060005260206000209060030201600001549050919050565b6005602052816000526040600020602052806000526040600020600091509150508060000154908060010154908060020154905083565b6000818311156119d9576040517f08c379a00000000000000000000000000000000000000000000000000000000081526004016119d09061224a565b60405180910390fd5b818385876119e791906124e2565b6119f191906124e2565b6119fb91906124b1565b9050949350505050565b600033905090565b6000808273ffffffffffffffffffffffffffffffffffffffff16630dfe16816040518163ffffffff1660e01b815260040160206040518083038186803b158015611a5657600080fd5b505afa925050508015611a8757506040513d601f19601f82011682018060405250810190611a849190611d3c565b60015b611a945760009050611a9a565b50600190505b80915050919050565b60008060009054906101000a900473ffffffffffffffffffffffffffffffffffffffff169050816000806101000a81548173ffffffffffffffffffffffffffffffffffffffff021916908373ffffffffffffffffffffffffffffffffffffffff1602179055508173ffffffffffffffffffffffffffffffffffffffff168173ffffffffffffffffffffffffffffffffffffffff167f8be0079c531659141344cd1fd0a4f28419497f9722a3daafe3b4186f6b6457e060405160405180910390a35050565b60006004826fffffffffffffffffffffffffffffffff1681548110611bb5577f4e487b7100000000000000000000000000000000000000000000000000000000600052603260045260246000fd5b90600052602060002090600302019050600060056000846fffffffffffffffffffffffffffffffff16815260200190815260200160002060003373ffffffffffffffffffffffffffffffffffffffff1673ffffffffffffffffffffffffffffffffffffffff16815260200190815260200160002090506000611c54826001015443611c40919061253c565b846001015484600001548660000154611994565b905080826002016000828254611c6a919061245b565b9250508190555043826001018190555050505050565b600081359050611c8f81612989565b92915050565b600081519050611ca481612989565b92915050565b600081359050611cb9816129a0565b92915050565b600081519050611cce816129a0565b92915050565b600081359050611ce3816129b7565b92915050565b600081359050611cf8816129ce565b92915050565b600081359050611d0d816129e5565b92915050565b600060208284031215611d2557600080fd5b6000611d3384828501611c80565b91505092915050565b600060208284031215611d4e57600080fd5b6000611d5c84828501611c95565b91505092915050565b600060208284031215611d7757600080fd5b6000611d8584828501611cbf565b91505092915050565b600080600060608486031215611da357600080fd5b6000611db186828701611cd4565b9350506020611dc286828701611cfe565b9250506040611dd386828701611caa565b9150509250925092565b600060208284031215611def57600080fd5b6000611dfd84828501611ce9565b91505092915050565b600060208284031215611e1857600080fd5b6000611e2684828501611cfe565b91505092915050565b60008060408385031215611e4257600080fd5b6000611e5085828601611cfe565b9250506020611e6185828601611c80565b9150509250929050565b60008060408385031215611e7e57600080fd5b6000611e8c85828601611cfe565b9250506020611e9d85828601611ce9565b9150509250929050565b6000611eb383836120b4565b60a08301905092915050565b611ec881612570565b82525050565b6000611ed982612416565b611ee38185612439565b9350611eee83612406565b8060005b83811015611f1f578151611f068882611ea7565b9750611f118361242c565b925050600181019050611ef2565b5085935050505092915050565b611f3581612582565b82525050565b611f4481612582565b82525050565b611f53816125e6565b82525050565b611f628161260a565b82525050565b611f718161260a565b82525050565b611f808161262e565b82525050565b6000611f9182612421565b611f9b818561244a565b9350611fab818560208601612652565b611fb481612775565b840191505092915050565b6000611fcc60268361244a565b9150611fd782612786565b604082019050919050565b6000611fef60228361244a565b9150611ffa826127d5565b604082019050919050565b600061201260268361244a565b915061201d82612824565b604082019050919050565b600061203560248361244a565b915061204082612873565b604082019050919050565b600061205860238361244a565b9150612063826128c2565b604082019050919050565b600061207b60208361244a565b915061208682612911565b602082019050919050565b600061209e60288361244a565b91506120a98261293a565b604082019050919050565b60a0820160008201516120ca600085018261211c565b5060208201516120dd602085018261211c565b5060408201516120f06040850182611f2c565b5060608201516121036060850182611f2c565b5060808201516121166080850182611f59565b50505050565b612125816125dc565b82525050565b612134816125dc565b82525050565b600060208201905061214f6000830184611ebf565b92915050565b600060608201905061216a6000830186611ebf565b6121776020830185611ebf565b612184604083018461212b565b949350505050565b60006040820190506121a16000830185611ebf565b6121ae602083018461212b565b9392505050565b600060208201905081810360008301526121cf8184611ece565b905092915050565b60006020820190506121ec6000830184611f3b565b92915050565b60006020820190506122076000830184611f4a565b92915050565b60006020820190506122226000830184611f77565b92915050565b600060208201905081810360008301526122428184611f86565b905092915050565b6000602082019050818103600083015261226381611fbf565b9050919050565b6000602082019050818103600083015261228381611fe2565b9050919050565b600060208201905081810360008301526122a381612005565b9050919050565b600060208201905081810360008301526122c381612028565b9050919050565b600060208201905081810360008301526122e38161204b565b9050919050565b600060208201905081810360008301526123038161206e565b9050919050565b6000602082019050818103600083015261232381612091565b9050919050565b600060208201905061233f600083018461212b565b92915050565b600060608201905061235a600083018661212b565b6123676020830185611ebf565b6123746040830184611f3b565b949350505050565b600060a082019050612391600083018861212b565b61239e602083018761212b565b6123ab6040830186611f3b565b6123b86060830185611f3b565b6123c56080830184611f68565b9695505050505050565b60006060820190506123e4600083018661212b565b6123f1602083018561212b565b6123fe604083018461212b565b949350505050565b6000819050602082019050919050565b600081519050919050565b600081519050919050565b6000602082019050919050565b600082825260208201905092915050565b600082825260208201905092915050565b6000612466826125dc565b9150612471836125dc565b9250827fffffffffffffffffffffffffffffffffffffffffffffffffffffffffffffffff038211156124a6576124a56126e8565b5b828201905092915050565b60006124bc826125dc565b91506124c7836125dc565b9250826124d7576124d6612717565b5b828204905092915050565b60006124ed826125dc565b91506124f8836125dc565b9250817fffffffffffffffffffffffffffffffffffffffffffffffffffffffffffffffff0483118215151615612531576125306126e8565b5b828202905092915050565b6000612547826125dc565b9150612552836125dc565b925082821015612565576125646126e8565b5b828203905092915050565b600061257b826125bc565b9050919050565b60008115159050919050565b600061259982612570565b9050919050565b60006fffffffffffffffffffffffffffffffff82169050919050565b600073ffffffffffffffffffffffffffffffffffffffff82169050919050565b6000819050919050565b60006125f1826125f8565b9050919050565b6000612603826125bc565b9050919050565b60006126158261261c565b9050919050565b6000612627826125bc565b9050919050565b600061263982612640565b9050919050565b600061264b826125bc565b9050919050565b60005b83811015612670578082015181840152602081019050612655565b8381111561267f576000848401525b50505050565b6000600282049050600182168061269d57607f821691505b602082108114156126b1576126b0612746565b5b50919050565b60006126c2826125dc565b91506126cd836125dc565b9250826126dd576126dc612717565b5b828206905092915050565b7f4e487b7100000000000000000000000000000000000000000000000000000000600052601160045260246000fd5b7f4e487b7100000000000000000000000000000000000000000000000000000000600052601260045260246000fd5b7f4e487b7100000000000000000000000000000000000000000000000000000000600052602260045260246000fd5b6000601f19601f8301169050919050565b7f4c494d455f4641524d3a20496e76616c696420726577617264732063616c637560008201527f6c6174696f6e0000000000000000000000000000000000000000000000000000602082015250565b7f4c494d455f4641524d3a20416d626974696f757320706f6f6c2063726561746960008201527f6f6e000000000000000000000000000000000000000000000000000000000000602082015250565b7f4f776e61626c653a206e6577206f776e657220697320746865207a65726f206160008201527f6464726573730000000000000000000000000000000000000000000000000000602082015250565b7f4c494d455f4641524d3a20496e76616c6964207769746864726177616c20616d60008201527f6f756e7400000000000000000000000000000000000000000000000000000000602082015250565b7f4c494d455f4641524d3a204e6f7420696e2068617276657374696e672070657260008201527f696f640000000000000000000000000000000000000000000000000000000000602082015250565b7f4f776e61626c653a2063616c6c6572206973206e6f7420746865206f776e6572600082015250565b7f4c494d455f4641524d3a20416d6f756e74206d7573742062652067726561746560008201527f72207468616e2030000000000000000000000000000000000000000000000000602082015250565b61299281612570565b811461299d57600080fd5b50565b6129a981612582565b81146129b457600080fd5b50565b6129c08161258e565b81146129cb57600080fd5b50565b6129d7816125a0565b81146129e257600080fd5b50565b6129ee816125dc565b81146129f957600080fd5b5056fea2646970667358221220d500ba2db61c63f585643a535437136220775f574aef269f0cbeb5eef91f57e764736f6c63430008020033",
    "immutableReferences": {},
    "source": "// SPDX-License-Identifier: MIT\npragma solidity ^0.8.2;\n\nimport \"./LimeToken.sol\";\n\nimport \"@uniswap/v2-core/contracts/interfaces/IUniswapV2Pair.sol\";\n\nimport \"./interfaces/ITokenFarm.sol\";\nimport \"./interfaces/IDistribution.sol\";\n\ncontract TokenFarm is Ownable, ITokenFarm {\n  string public name = \"LIME Token Farm\";\n\n  // The LIME token\n  LimeToken public limeToken;\n\n  IDistribution public distribution;\n\n  Pool[] public pools;\n\n  // holdings stores how many tokens are staked by each user\n  // mapping(poolIndex => mapping(userAddress => UserInfo))\n\n  mapping(uint256 => mapping(address => UserInfo)) public holdings;\n\n  modifier onHarvestingPeriod() {\n    require((block.timestamp + 2 days) % 14 days < 1 days, \"LIME_FARM: Not in harvesting period\");\n    _;\n  }\n\n  constructor(IDistribution _distribution, LimeToken _limeToken) {\n    limeToken = _limeToken;\n    distribution = _distribution;\n  }\n\n  function createPool(\n    IERC20 _token,\n    uint256 _limePerBlock,\n    bool _taxFree\n  ) external override onlyOwner {\n    if ((pools.length >= 6 && _taxFree) || _limePerBlock > 250 ether) {\n      revert(\"LIME_FARM: Ambitious pool creation\");\n    }\n    // TODO: Restrict for governance\n\n    bool _isLp = checkLP(address(_token));\n\n    pools.push(\n      Pool({\n        poolSize: 0,\n        token: _token,\n        limePerBlock: _limePerBlock,\n        taxFree: _taxFree,\n        isLp: _isLp\n      })\n    );\n  }\n\n  function depositTokens(uint256 _amount, uint128 _poolIndex) external override returns (bool) {\n    require(_amount > 0, \"LIME_FARM: Amount must be greater than 0\");\n\n    Pool storage pool = pools[_poolIndex];\n    UserInfo storage _userInfo = holdings[_poolIndex][address(msg.sender)];\n\n    if (_userInfo.stakedAmount > 0) {\n      // Store current rewards as debt and reset the block\n      transferRewardsToDebt(_poolIndex);\n    } else {\n      _userInfo.stakeBlock = block.number;\n    }\n\n    uint256 amountToDeposit;\n\n    if (pool.taxFree) {\n      // Transfer the tokens to the contract\n      pool.token.transferFrom(address(msg.sender), address(this), _amount);\n      amountToDeposit = _amount;\n    } else {\n      // Dist commission (0.9% in deposits)\n      uint256 fee = (_amount * 90) / 10000;\n      amountToDeposit = (_amount * 991) / 1000;\n\n      pool.token.transferFrom(address(msg.sender), address(distribution), fee);\n      pool.token.transferFrom(address(msg.sender), address(this), amountToDeposit);\n\n      distribution.receiveTokensAndConvertToETH(fee, address(pool.token), pool.isLp);\n    }\n\n    _userInfo.stakedAmount += amountToDeposit;\n\n    pools[_poolIndex].poolSize += amountToDeposit;\n\n    emit Deposit(address(msg.sender), _poolIndex, amountToDeposit);\n\n    return true;\n  }\n\n  function withdrawTokens(uint256 _amount, uint128 _poolIndex) external override returns (bool) {\n    Pool storage pool = pools[_poolIndex];\n    UserInfo storage _userInfo = holdings[_poolIndex][address(msg.sender)];\n\n    // Amount shouldn't be 0 and the user needs to have the balance\n    require(\n      _amount > 0 && _userInfo.stakedAmount >= _amount,\n      \"LIME_FARM: Invalid withdrawal amount\"\n    );\n\n    transferRewardsToDebt(_poolIndex);\n\n    _userInfo.stakedAmount -= _amount;\n    pool.poolSize -= _amount;\n\n    if (pool.taxFree) {\n      pool.token.transfer(address(msg.sender), _amount);\n    } else {\n      // Dev comission (3.5% in withdrawals)\n      uint256 fee = (_amount * 350) / 1000;\n\n      pool.token.transfer(address(distribution), fee);\n      distribution.receiveTokensAndConvertToETH(fee, address(pool.token), pool.isLp);\n\n      pool.token.transfer(address(msg.sender), (_amount * 965) / 1000);\n    }\n\n    emit Withdrawal(address(msg.sender), _poolIndex, _amount);\n\n    return true;\n  }\n\n  function harvestLimes(uint128 _poolIndex) external override onHarvestingPeriod {\n    Pool storage pool = pools[_poolIndex];\n    UserInfo storage _userInfo = holdings[_poolIndex][address(msg.sender)];\n\n    uint256 debt = _userInfo.debt;\n    uint256 lastRewards = calculateRewards(\n      block.number - _userInfo.stakeBlock,\n      pool.limePerBlock,\n      _userInfo.stakedAmount,\n      pool.poolSize\n    );\n\n    // Reset the block and debt\n    _userInfo.stakeBlock = block.number;\n    _userInfo.debt = 0;\n\n    limeToken.mint(address(msg.sender), debt + lastRewards);\n  }\n\n  function checkpoint(uint128 _poolIndex) external override {\n    transferRewardsToDebt(_poolIndex);\n  }\n\n  /**\n   * @dev Internal function that checks the user staked amount,\n   * calculates the rewards for it and stores them as debt. Then it\n   * resets the stakeBlock to the current block number.\n   */\n  function transferRewardsToDebt(uint128 _poolIndex) internal {\n    Pool storage pool = pools[_poolIndex];\n    UserInfo storage _userInfo = holdings[_poolIndex][address(msg.sender)];\n    uint256 rewards = calculateRewards(\n      block.number - _userInfo.stakeBlock,\n      pool.limePerBlock,\n      _userInfo.stakedAmount,\n      pool.poolSize\n    );\n    _userInfo.debt += rewards;\n    _userInfo.stakeBlock = block.number;\n  }\n\n  /**\n   * @dev Pure function that calculates how much LIME the user needs to get.\n   * Amount = blocks holded * LIME per block * (stake / poolSize)\n   *\n   */\n  function calculateRewards(\n    uint256 _blocksHolded,\n    uint256 _limePerBlock,\n    uint256 _stake,\n    uint256 _poolSize\n  ) internal pure returns (uint256) {\n    require(_stake <= _poolSize, \"LIME_FARM: Invalid rewards calculation\");\n    return (_blocksHolded * _limePerBlock * _stake) / _poolSize;\n  }\n\n  // --------- VIEW FUNCTIONS -----------\n\n  function checkLP(address token) internal view returns (bool) {\n    bool isLp;\n    try IUniswapV2Pair(token).token0() {\n      isLp = true;\n    } catch {\n      isLp = false;\n    }\n    return isLp;\n  }\n\n  function isHarvestingPeriod() external view override returns (bool) {\n    return (block.timestamp + 2 days) % 14 days < 1 days;\n  }\n\n  function userStakeInPool(uint128 _poolIndex) external view override returns (uint256) {\n    return holdings[_poolIndex][address(msg.sender)].stakedAmount;\n  }\n\n  function userDebtInPool(uint128 _poolIndex) external view override returns (uint256) {\n    return holdings[_poolIndex][address(msg.sender)].debt;\n  }\n\n  function userAvailableHarvest(uint128 _poolIndex) external view override returns (uint256) {\n    UserInfo storage _userInfo = holdings[_poolIndex][address(msg.sender)];\n    Pool storage _poolInfo = pools[_poolIndex];\n\n    uint256 additionalRewards;\n\n    if (_userInfo.stakedAmount > 0) {\n      additionalRewards = calculateRewards(\n        block.number - _userInfo.stakeBlock,\n        _poolInfo.limePerBlock,\n        _userInfo.stakedAmount,\n        _poolInfo.poolSize\n      );\n    } else {\n      additionalRewards = 0;\n    }\n    return _userInfo.debt + additionalRewards;\n  }\n\n  function totalPools() external view override returns (uint256) {\n    return pools.length;\n  }\n\n  function getPoolSize(uint128 _poolIndex) external view override returns (uint256) {\n    return pools[_poolIndex].poolSize;\n  }\n\n  function getPools() external view override returns (Pool[] memory) {\n    return pools;\n  }\n}\n",
    "sourcePath": "/root/crypto/lemon-finance/core-contracts/contracts/TokenFarm.sol",
    "compiler": {
        "name": "solc",
        "version": "0.8.2+commit.661d1103.Emscripten.clang"
    },
    "schemaVersion": "3.3.4",
    "updatedAt": "2021-08-02T02:53:26.698Z",
    "devdoc": {
        "kind": "dev",
        "methods": {
            "checkpoint(uint128)": {
                "details": "Function that transfers rewards to debt in the pool `poolIndex` creating a \"Checkpoint\", meaning that the earned tokens are now fixed."
            },
            "createPool(address,uint256,bool)": {
                "details": "Create a pool with the token `_token` Determine if the pool charges taxes with `_taxFree` Determine how much LIME it's multiplied with the block delta with `_limePerBlock` Can only be called by the owner"
            },
            "depositTokens(uint256,uint128)": {
                "details": "Deposit `_amount` tokens in the pool `_poolIndex` for harvesting. Calls transferRewardsToDebt to store the current rewards. Calls transferFrom in the desired token. Increases taxed(`_amount`) from poolSize Charge 0.9% tax on it (if not tax-free pool)"
            },
            "getPoolSize(uint128)": {
                "details": "View function to check the pool size of `_poolIndex`"
            },
            "getPools()": {
                "details": "View function to get the pools"
            },
            "harvestLimes(uint128)": {
                "details": "Harvest the earned tokens in the pool `_poolIndex`, which are: UserInfo.debt + calculateAmount(pool, holdings) Can only be called on harvesting periods"
            },
            "isHarvestingPeriod()": {
                "details": "View function to check if harvesting is enabled Will check if the timestamp is divisible by 14 days"
            },
            "owner()": {
                "details": "Returns the address of the current owner."
            },
            "renounceOwnership()": {
                "details": "Leaves the contract without owner. It will not be possible to call `onlyOwner` functions anymore. Can only be called by the current owner. NOTE: Renouncing ownership will leave the contract without an owner, thereby removing any functionality that is only available to the owner."
            },
            "totalPools()": {
                "details": "View function to check how many pools there are"
            },
            "transferOwnership(address)": {
                "details": "Transfers ownership of the contract to a new account (`newOwner`). Can only be called by the current owner."
            },
            "userAvailableHarvest(uint128)": {
                "details": "View function to check how much LIME the user would receive if they harvested in the moment in the pool `_poolIndex`"
            },
            "userDebtInPool(uint128)": {
                "details": "View function to check how much debt a user has pending (Useful for differentiating checkpoints)"
            },
            "userStakeInPool(uint128)": {
                "details": "View function to check how much stake a user has in the pool `_poolIndex`"
            },
            "withdrawTokens(uint256,uint128)": {
                "details": "Withdraw `_amount` tokens from the harvesting pool `_poolIndex`. Calls transferRewardsToDebt to store the current rewards Reduces `_amount` from poolSize Charge 3.5% tax on it (if not tax-free pool)"
            }
        },
        "version": 1
    },
    "userdoc": {
        "kind": "user",
        "methods": {},
        "version": 1
    }
}