{
    "contractName": "TokenFarm",
    "abi": [
        {
            "inputs": [
                {
                    "internalType": "address",
                    "name": "_dev",
                    "type": "address"
                },
                {
                    "internalType": "contract LimeToken",
                    "name": "_limeToken",
                    "type": "address"
                }
            ],
            "stateMutability": "nonpayable",
            "type": "constructor"
        },
        {
            "anonymous": false,
            "inputs": [
                {
                    "indexed": true,
                    "internalType": "address",
                    "name": "user",
                    "type": "address"
                },
                {
                    "indexed": true,
                    "internalType": "uint256",
                    "name": "poolIndex",
                    "type": "uint256"
                },
                {
                    "indexed": false,
                    "internalType": "uint256",
                    "name": "amount",
                    "type": "uint256"
                }
            ],
            "name": "Deposit",
            "type": "event"
        },
        {
            "anonymous": false,
            "inputs": [
                {
                    "indexed": true,
                    "internalType": "address",
                    "name": "previousOwner",
                    "type": "address"
                },
                {
                    "indexed": true,
                    "internalType": "address",
                    "name": "newOwner",
                    "type": "address"
                }
            ],
            "name": "OwnershipTransferred",
            "type": "event"
        },
        {
            "anonymous": false,
            "inputs": [
                {
                    "indexed": true,
                    "internalType": "address",
                    "name": "user",
                    "type": "address"
                },
                {
                    "indexed": true,
                    "internalType": "uint256",
                    "name": "poolIndex",
                    "type": "uint256"
                },
                {
                    "indexed": false,
                    "internalType": "uint256",
                    "name": "amount",
                    "type": "uint256"
                }
            ],
            "name": "Withdrawal",
            "type": "event"
        },
        {
            "inputs": [],
            "name": "dev",
            "outputs": [
                {
                    "internalType": "address",
                    "name": "",
                    "type": "address"
                }
            ],
            "stateMutability": "view",
            "type": "function"
        },
        {
            "inputs": [
                {
                    "internalType": "uint256",
                    "name": "",
                    "type": "uint256"
                },
                {
                    "internalType": "address",
                    "name": "",
                    "type": "address"
                }
            ],
            "name": "holdings",
            "outputs": [
                {
                    "internalType": "uint256",
                    "name": "stakedAmount",
                    "type": "uint256"
                },
                {
                    "internalType": "uint256",
                    "name": "stakeBlock",
                    "type": "uint256"
                },
                {
                    "internalType": "uint256",
                    "name": "debt",
                    "type": "uint256"
                }
            ],
            "stateMutability": "view",
            "type": "function"
        },
        {
            "inputs": [],
            "name": "limeToken",
            "outputs": [
                {
                    "internalType": "contract LimeToken",
                    "name": "",
                    "type": "address"
                }
            ],
            "stateMutability": "view",
            "type": "function"
        },
        {
            "inputs": [],
            "name": "name",
            "outputs": [
                {
                    "internalType": "string",
                    "name": "",
                    "type": "string"
                }
            ],
            "stateMutability": "view",
            "type": "function"
        },
        {
            "inputs": [],
            "name": "owner",
            "outputs": [
                {
                    "internalType": "address",
                    "name": "",
                    "type": "address"
                }
            ],
            "stateMutability": "view",
            "type": "function"
        },
        {
            "inputs": [
                {
                    "internalType": "uint256",
                    "name": "",
                    "type": "uint256"
                }
            ],
            "name": "pools",
            "outputs": [
                {
                    "internalType": "uint256",
                    "name": "poolSize",
                    "type": "uint256"
                },
                {
                    "internalType": "uint256",
                    "name": "limePerBlock",
                    "type": "uint256"
                },
                {
                    "internalType": "bool",
                    "name": "taxFree",
                    "type": "bool"
                },
                {
                    "internalType": "contract IERC20",
                    "name": "token",
                    "type": "address"
                }
            ],
            "stateMutability": "view",
            "type": "function"
        },
        {
            "inputs": [],
            "name": "renounceOwnership",
            "outputs": [],
            "stateMutability": "nonpayable",
            "type": "function"
        },
        {
            "inputs": [
                {
                    "internalType": "address",
                    "name": "newOwner",
                    "type": "address"
                }
            ],
            "name": "transferOwnership",
            "outputs": [],
            "stateMutability": "nonpayable",
            "type": "function"
        },
        {
            "inputs": [
                {
                    "internalType": "contract IERC20",
                    "name": "_token",
                    "type": "address"
                },
                {
                    "internalType": "uint256",
                    "name": "_limePerBlock",
                    "type": "uint256"
                },
                {
                    "internalType": "bool",
                    "name": "_taxFree",
                    "type": "bool"
                }
            ],
            "name": "createPool",
            "outputs": [],
            "stateMutability": "nonpayable",
            "type": "function"
        },
        {
            "inputs": [
                {
                    "internalType": "uint256",
                    "name": "_amount",
                    "type": "uint256"
                },
                {
                    "internalType": "uint128",
                    "name": "_poolIndex",
                    "type": "uint128"
                }
            ],
            "name": "depositTokens",
            "outputs": [
                {
                    "internalType": "bool",
                    "name": "",
                    "type": "bool"
                }
            ],
            "stateMutability": "nonpayable",
            "type": "function"
        },
        {
            "inputs": [
                {
                    "internalType": "uint256",
                    "name": "_amount",
                    "type": "uint256"
                },
                {
                    "internalType": "uint128",
                    "name": "_poolIndex",
                    "type": "uint128"
                }
            ],
            "name": "withdrawTokens",
            "outputs": [
                {
                    "internalType": "bool",
                    "name": "",
                    "type": "bool"
                }
            ],
            "stateMutability": "nonpayable",
            "type": "function"
        },
        {
            "inputs": [
                {
                    "internalType": "uint128",
                    "name": "_poolIndex",
                    "type": "uint128"
                }
            ],
            "name": "harvestLimes",
            "outputs": [],
            "stateMutability": "nonpayable",
            "type": "function"
        },
        {
            "inputs": [
                {
                    "internalType": "uint128",
                    "name": "_poolIndex",
                    "type": "uint128"
                }
            ],
            "name": "checkpoint",
            "outputs": [],
            "stateMutability": "nonpayable",
            "type": "function"
        },
        {
            "inputs": [],
            "name": "isHarvestingPeriod",
            "outputs": [
                {
                    "internalType": "bool",
                    "name": "",
                    "type": "bool"
                }
            ],
            "stateMutability": "view",
            "type": "function"
        },
        {
            "inputs": [
                {
                    "internalType": "uint128",
                    "name": "_poolIndex",
                    "type": "uint128"
                }
            ],
            "name": "userStakeInPool",
            "outputs": [
                {
                    "internalType": "uint256",
                    "name": "",
                    "type": "uint256"
                }
            ],
            "stateMutability": "view",
            "type": "function"
        },
        {
            "inputs": [
                {
                    "internalType": "uint128",
                    "name": "_poolIndex",
                    "type": "uint128"
                }
            ],
            "name": "userAvailableHarvest",
            "outputs": [
                {
                    "internalType": "uint256",
                    "name": "",
                    "type": "uint256"
                }
            ],
            "stateMutability": "view",
            "type": "function"
        },
        {
            "inputs": [],
            "name": "totalPools",
            "outputs": [
                {
                    "internalType": "uint256",
                    "name": "",
                    "type": "uint256"
                }
            ],
            "stateMutability": "view",
            "type": "function"
        },
        {
            "inputs": [
                {
                    "internalType": "uint128",
                    "name": "_poolIndex",
                    "type": "uint128"
                }
            ],
            "name": "getPoolSize",
            "outputs": [
                {
                    "internalType": "uint256",
                    "name": "",
                    "type": "uint256"
                }
            ],
            "stateMutability": "view",
            "type": "function"
        },
        {
            "inputs": [],
            "name": "getPools",
            "outputs": [
                {
                    "components": [
                        {
                            "internalType": "uint256",
                            "name": "poolSize",
                            "type": "uint256"
                        },
                        {
                            "internalType": "uint256",
                            "name": "limePerBlock",
                            "type": "uint256"
                        },
                        {
                            "internalType": "bool",
                            "name": "taxFree",
                            "type": "bool"
                        },
                        {
                            "internalType": "contract IERC20",
                            "name": "token",
                            "type": "address"
                        }
                    ],
                    "internalType": "struct ITokenFarm.Pool[]",
                    "name": "",
                    "type": "tuple[]"
                }
            ],
            "stateMutability": "view",
            "type": "function"
        }
    ],
    "bytecode": "0x60806040526040518060400160405280600f81526020017f4c494d4520546f6b656e204661726d00000000000000000000000000000000008152506001908051906020019062000051929190620001fb565b503480156200005f57600080fd5b5060405162002893380380620028938339818101604052810190620000859190620002d9565b620000a5620000996200012f60201b60201c565b6200013760201b60201c565b80600260006101000a81548173ffffffffffffffffffffffffffffffffffffffff021916908373ffffffffffffffffffffffffffffffffffffffff16021790555081600360006101000a81548173ffffffffffffffffffffffffffffffffffffffff021916908373ffffffffffffffffffffffffffffffffffffffff1602179055505050620003fb565b600033905090565b60008060009054906101000a900473ffffffffffffffffffffffffffffffffffffffff169050816000806101000a81548173ffffffffffffffffffffffffffffffffffffffff021916908373ffffffffffffffffffffffffffffffffffffffff1602179055508173ffffffffffffffffffffffffffffffffffffffff168173ffffffffffffffffffffffffffffffffffffffff167f8be0079c531659141344cd1fd0a4f28419497f9722a3daafe3b4186f6b6457e060405160405180910390a35050565b828054620002099062000362565b90600052602060002090601f0160209004810192826200022d576000855562000279565b82601f106200024857805160ff191683800117855562000279565b8280016001018555821562000279579182015b82811115620002785782518255916020019190600101906200025b565b5b5090506200028891906200028c565b5090565b5b80821115620002a75760008160009055506001016200028d565b5090565b600081519050620002bc81620003c7565b92915050565b600081519050620002d381620003e1565b92915050565b60008060408385031215620002ed57600080fd5b6000620002fd85828601620002ab565b92505060206200031085828601620002c2565b9150509250929050565b6000620003278262000342565b9050919050565b60006200033b826200031a565b9050919050565b600073ffffffffffffffffffffffffffffffffffffffff82169050919050565b600060028204905060018216806200037b57607f821691505b6020821081141562000392576200039162000398565b5b50919050565b7f4e487b7100000000000000000000000000000000000000000000000000000000600052602260045260246000fd5b620003d2816200031a565b8114620003de57600080fd5b50565b620003ec816200032e565b8114620003f857600080fd5b50565b612488806200040b6000396000f3fe608060405234801561001057600080fd5b50600436106101215760003560e01c806391cca3db116100ad578063e01de29711610071578063e01de297146102fd578063e28c55271461032d578063f2fde38b14610349578063f7e251f814610365578063fa62b61f1461039557610121565b806391cca3db14610242578063a1fc069c14610260578063ab3c7e521461027c578063ac4afa381461029a578063bdc30898146102cd57610121565b80632af04478116100f45780632af04478146101b05780633c3837e0146101e0578063673a2a1f146101fc578063715018a61461021a5780638da5cb5b1461022457610121565b806301d65ca41461012657806306fdde0314610156578063197bdb33146101745780632236498214610192575b600080fd5b610140600480360381019061013b919061196b565b6103c7565b60405161014d9190611e38565b60405180910390f35b61015e6104e7565b60405161016b9190611d56565b60405180910390f35b61017c610575565b6040516101899190611d3b565b60405180910390f35b61019a61059b565b6040516101a79190611d20565b60405180910390f35b6101ca60048036038101906101c5919061196b565b6105b6565b6040516101d79190611e38565b60405180910390f35b6101fa60048036038101906101f5919061191c565b610625565b005b610204610788565b6040516102119190611cfe565b60405180910390f35b61022261086c565b005b61022c6108f4565b6040516102399190611c83565b60405180910390f35b61024a61091d565b6040516102579190611c83565b60405180910390f35b61027a6004803603810190610275919061196b565b610943565b005b61028461094f565b6040516102919190611e38565b60405180910390f35b6102b460048036038101906102af9190611994565b61095c565b6040516102c49493929190611e53565b60405180910390f35b6102e760048036038101906102e291906119f9565b6109c9565b6040516102f49190611d20565b60405180910390f35b610317600480360381019061031291906119f9565b610e15565b6040516103249190611d20565b60405180910390f35b6103476004803603810190610342919061196b565b61121f565b005b610363600480360381019061035e91906118ca565b61141e565b005b61037f600480360381019061037a919061196b565b611516565b60405161038c9190611e38565b60405180910390f35b6103af60048036038101906103aa91906119bd565b61157d565b6040516103be93929190611e98565b60405180910390f35b60008060056000846fffffffffffffffffffffffffffffffff16815260200190815260200160002060003373ffffffffffffffffffffffffffffffffffffffff1673ffffffffffffffffffffffffffffffffffffffff168152602001908152602001600020905060006004846fffffffffffffffffffffffffffffffff168154811061047c577f4e487b7100000000000000000000000000000000000000000000000000000000600052603260045260246000fd5b90600052602060002090600302019050600080836000015411156104c8576104c18360010154436104ad9190612005565b8360010154856000015485600001546115b4565b90506104cd565b600090505b8083600201546104dd9190611f24565b9350505050919050565b600180546104f49061212a565b80601f01602080910402602001604051908101604052809291908181526020018280546105209061212a565b801561056d5780601f106105425761010080835404028352916020019161056d565b820191906000526020600020905b81548152906001019060200180831161055057829003601f168201915b505050505081565b600260009054906101000a900473ffffffffffffffffffffffffffffffffffffffff1681565b60006201518062127500426105b0919061215c565b10905090565b600060056000836fffffffffffffffffffffffffffffffff16815260200190815260200160002060003373ffffffffffffffffffffffffffffffffffffffff1673ffffffffffffffffffffffffffffffffffffffff168152602001908152602001600020600001549050919050565b61062d611667565b73ffffffffffffffffffffffffffffffffffffffff1661064b6108f4565b73ffffffffffffffffffffffffffffffffffffffff16146106a1576040517f08c379a000000000000000000000000000000000000000000000000000000000815260040161069890611df8565b60405180910390fd5b600460405180608001604052806000815260200184815260200183151581526020018573ffffffffffffffffffffffffffffffffffffffff168152509080600181540180825580915050600190039060005260206000209060030201600090919091909150600082015181600001556020820151816001015560408201518160020160006101000a81548160ff02191690831515021790555060608201518160020160016101000a81548173ffffffffffffffffffffffffffffffffffffffff021916908373ffffffffffffffffffffffffffffffffffffffff1602179055505050505050565b60606004805480602002602001604051908101604052809291908181526020016000905b82821015610863578382906000526020600020906003020160405180608001604052908160008201548152602001600182015481526020016002820160009054906101000a900460ff161515151581526020016002820160019054906101000a900473ffffffffffffffffffffffffffffffffffffffff1673ffffffffffffffffffffffffffffffffffffffff1673ffffffffffffffffffffffffffffffffffffffff1681525050815260200190600101906107ac565b50505050905090565b610874611667565b73ffffffffffffffffffffffffffffffffffffffff166108926108f4565b73ffffffffffffffffffffffffffffffffffffffff16146108e8576040517f08c379a00000000000000000000000000000000000000000000000000000000081526004016108df90611df8565b60405180910390fd5b6108f2600061166f565b565b60008060009054906101000a900473ffffffffffffffffffffffffffffffffffffffff16905090565b600360009054906101000a900473ffffffffffffffffffffffffffffffffffffffff1681565b61094c81611733565b50565b6000600480549050905090565b6004818154811061096c57600080fd5b90600052602060002090600302016000915090508060000154908060010154908060020160009054906101000a900460ff16908060020160019054906101000a900473ffffffffffffffffffffffffffffffffffffffff16905084565b6000806004836fffffffffffffffffffffffffffffffff1681548110610a18577f4e487b7100000000000000000000000000000000000000000000000000000000600052603260045260246000fd5b90600052602060002090600302019050600060056000856fffffffffffffffffffffffffffffffff16815260200190815260200160002060003373ffffffffffffffffffffffffffffffffffffffff1673ffffffffffffffffffffffffffffffffffffffff1681526020019081526020016000209050600085118015610aa2575084816000015410155b610ae1576040517f08c379a0000000000000000000000000000000000000000000000000000000008152600401610ad890611db8565b60405180910390fd5b610aea84611733565b84816000016000828254610afe9190612005565b9250508190555084826000016000828254610b199190612005565b925050819055508160020160009054906101000a900460ff1615610bee578160020160019054906101000a900473ffffffffffffffffffffffffffffffffffffffff1673ffffffffffffffffffffffffffffffffffffffff1663a9059cbb33876040518363ffffffff1660e01b8152600401610b96929190611cd5565b602060405180830381600087803b158015610bb057600080fd5b505af1158015610bc4573d6000803e3d6000fd5b505050506040513d601f19601f82011682018060405250810190610be891906118f3565b50610da8565b8160020160019054906101000a900473ffffffffffffffffffffffffffffffffffffffff1673ffffffffffffffffffffffffffffffffffffffff1663a9059cbb600360009054906101000a900473ffffffffffffffffffffffffffffffffffffffff1660236103e889610c619190611f7a565b610c6b9190611fab565b6040518363ffffffff1660e01b8152600401610c88929190611cd5565b602060405180830381600087803b158015610ca257600080fd5b505af1158015610cb6573d6000803e3d6000fd5b505050506040513d601f19601f82011682018060405250810190610cda91906118f3565b508160020160019054906101000a900473ffffffffffffffffffffffffffffffffffffffff1673ffffffffffffffffffffffffffffffffffffffff1663a9059cbb336103c56103e889610d2d9190611f7a565b610d379190611fab565b6040518363ffffffff1660e01b8152600401610d54929190611cd5565b602060405180830381600087803b158015610d6e57600080fd5b505af1158015610d82573d6000803e3d6000fd5b505050506040513d601f19601f82011682018060405250810190610da691906118f3565b505b836fffffffffffffffffffffffffffffffff163373ffffffffffffffffffffffffffffffffffffffff167fdf273cb619d95419a9cd0ec88123a0538c85064229baa6363788f743fff90deb87604051610e019190611e38565b60405180910390a360019250505092915050565b6000808311610e59576040517f08c379a0000000000000000000000000000000000000000000000000000000008152600401610e5090611e18565b60405180910390fd5b60006004836fffffffffffffffffffffffffffffffff1681548110610ea7577f4e487b7100000000000000000000000000000000000000000000000000000000600052603260045260246000fd5b90600052602060002090600302019050600060056000856fffffffffffffffffffffffffffffffff16815260200190815260200160002060003373ffffffffffffffffffffffffffffffffffffffff1673ffffffffffffffffffffffffffffffffffffffff1681526020019081526020016000209050600081600001541115610f3857610f3384611733565b610f42565b4381600101819055505b8160020160019054906101000a900473ffffffffffffffffffffffffffffffffffffffff1673ffffffffffffffffffffffffffffffffffffffff166323b872dd3330886040518463ffffffff1660e01b8152600401610fa393929190611c9e565b602060405180830381600087803b158015610fbd57600080fd5b505af1158015610fd1573d6000803e3d6000fd5b505050506040513d601f19601f82011682018060405250810190610ff591906118f3565b5060008260020160009054906101000a900460ff161561101757859050611122565b8260020160019054906101000a900473ffffffffffffffffffffffffffffffffffffffff1673ffffffffffffffffffffffffffffffffffffffff1663a9059cbb600360009054906101000a900473ffffffffffffffffffffffffffffffffffffffff16612710605a8a61108a9190611fab565b6110949190611f7a565b6040518363ffffffff1660e01b81526004016110b1929190611cd5565b602060405180830381600087803b1580156110cb57600080fd5b505af11580156110df573d6000803e3d6000fd5b505050506040513d601f19601f8201168201806040525081019061110391906118f3565b506127106126b6876111159190611fab565b61111f9190611f7a565b90505b808260000160008282546111369190611f24565b92505081905550806004866fffffffffffffffffffffffffffffffff168154811061118a577f4e487b7100000000000000000000000000000000000000000000000000000000600052603260045260246000fd5b906000526020600020906003020160000160008282546111aa9190611f24565b92505081905550846fffffffffffffffffffffffffffffffff163373ffffffffffffffffffffffffffffffffffffffff167f90890809c654f11d6e72a28fa60149770a0d11ec6c92319d6ceb2bb0a4ea1a158360405161120a9190611e38565b60405180910390a36001935050505092915050565b620151806212750042611232919061215c565b10611272576040517f08c379a000000000000000000000000000000000000000000000000000000000815260040161126990611dd8565b60405180910390fd5b60006004826fffffffffffffffffffffffffffffffff16815481106112c0577f4e487b7100000000000000000000000000000000000000000000000000000000600052603260045260246000fd5b90600052602060002090600302019050600060056000846fffffffffffffffffffffffffffffffff16815260200190815260200160002060003373ffffffffffffffffffffffffffffffffffffffff1673ffffffffffffffffffffffffffffffffffffffff168152602001908152602001600020905060008160020154905060006113688360010154436113549190612005565b8560010154856000015487600001546115b4565b905043836001018190555060008360020181905550600260009054906101000a900473ffffffffffffffffffffffffffffffffffffffff1673ffffffffffffffffffffffffffffffffffffffff166340c10f193383856113c89190611f24565b6040518363ffffffff1660e01b81526004016113e5929190611cd5565b600060405180830381600087803b1580156113ff57600080fd5b505af1158015611413573d6000803e3d6000fd5b505050505050505050565b611426611667565b73ffffffffffffffffffffffffffffffffffffffff166114446108f4565b73ffffffffffffffffffffffffffffffffffffffff161461149a576040517f08c379a000000000000000000000000000000000000000000000000000000000815260040161149190611df8565b60405180910390fd5b600073ffffffffffffffffffffffffffffffffffffffff168173ffffffffffffffffffffffffffffffffffffffff16141561150a576040517f08c379a000000000000000000000000000000000000000000000000000000000815260040161150190611d98565b60405180910390fd5b6115138161166f565b50565b60006004826fffffffffffffffffffffffffffffffff1681548110611564577f4e487b7100000000000000000000000000000000000000000000000000000000600052603260045260246000fd5b9060005260206000209060030201600001549050919050565b6005602052816000526040600020602052806000526040600020600091509150508060000154908060010154908060020154905083565b6000818311156115f9576040517f08c379a00000000000000000000000000000000000000000000000000000000081526004016115f090611d78565b60405180910390fd5b670de0b6b3a764000082101561161c5783856116159190611fab565b905061165f565b670de0b6b3a764000080836116319190611f7a565b8461163c9190611f7a565b85876116489190611fab565b6116529190611fab565b61165c9190611f7a565b90505b949350505050565b600033905090565b60008060009054906101000a900473ffffffffffffffffffffffffffffffffffffffff169050816000806101000a81548173ffffffffffffffffffffffffffffffffffffffff021916908373ffffffffffffffffffffffffffffffffffffffff1602179055508173ffffffffffffffffffffffffffffffffffffffff168173ffffffffffffffffffffffffffffffffffffffff167f8be0079c531659141344cd1fd0a4f28419497f9722a3daafe3b4186f6b6457e060405160405180910390a35050565b60006004826fffffffffffffffffffffffffffffffff1681548110611781577f4e487b7100000000000000000000000000000000000000000000000000000000600052603260045260246000fd5b90600052602060002090600302019050600060056000846fffffffffffffffffffffffffffffffff16815260200190815260200160002060003373ffffffffffffffffffffffffffffffffffffffff1673ffffffffffffffffffffffffffffffffffffffff1681526020019081526020016000209050600061182082600101544361180c9190612005565b8460010154846000015486600001546115b4565b9050808260020160008282546118369190611f24565b9250508190555043826001018190555050505050565b60008135905061185b816123df565b92915050565b600081359050611870816123f6565b92915050565b600081519050611885816123f6565b92915050565b60008135905061189a8161240d565b92915050565b6000813590506118af81612424565b92915050565b6000813590506118c48161243b565b92915050565b6000602082840312156118dc57600080fd5b60006118ea8482850161184c565b91505092915050565b60006020828403121561190557600080fd5b600061191384828501611876565b91505092915050565b60008060006060848603121561193157600080fd5b600061193f8682870161188b565b9350506020611950868287016118b5565b925050604061196186828701611861565b9150509250925092565b60006020828403121561197d57600080fd5b600061198b848285016118a0565b91505092915050565b6000602082840312156119a657600080fd5b60006119b4848285016118b5565b91505092915050565b600080604083850312156119d057600080fd5b60006119de858286016118b5565b92505060206119ef8582860161184c565b9150509250929050565b60008060408385031215611a0c57600080fd5b6000611a1a858286016118b5565b9250506020611a2b858286016118a0565b9150509250929050565b6000611a418383611c10565b60808301905092915050565b611a5681612039565b82525050565b6000611a6782611edf565b611a718185611f02565b9350611a7c83611ecf565b8060005b83811015611aad578151611a948882611a35565b9750611a9f83611ef5565b925050600181019050611a80565b5085935050505092915050565b611ac38161204b565b82525050565b611ad28161204b565b82525050565b611ae1816120af565b82525050565b611af0816120af565b82525050565b611aff816120d3565b82525050565b6000611b1082611eea565b611b1a8185611f13565b9350611b2a8185602086016120f7565b611b338161221a565b840191505092915050565b6000611b4b602683611f13565b9150611b568261222b565b604082019050919050565b6000611b6e602683611f13565b9150611b798261227a565b604082019050919050565b6000611b91602483611f13565b9150611b9c826122c9565b604082019050919050565b6000611bb4602383611f13565b9150611bbf82612318565b604082019050919050565b6000611bd7602083611f13565b9150611be282612367565b602082019050919050565b6000611bfa602883611f13565b9150611c0582612390565b604082019050919050565b608082016000820151611c266000850182611c65565b506020820151611c396020850182611c65565b506040820151611c4c6040850182611aba565b506060820151611c5f6060850182611ad8565b50505050565b611c6e816120a5565b82525050565b611c7d816120a5565b82525050565b6000602082019050611c986000830184611a4d565b92915050565b6000606082019050611cb36000830186611a4d565b611cc06020830185611a4d565b611ccd6040830184611c74565b949350505050565b6000604082019050611cea6000830185611a4d565b611cf76020830184611c74565b9392505050565b60006020820190508181036000830152611d188184611a5c565b905092915050565b6000602082019050611d356000830184611ac9565b92915050565b6000602082019050611d506000830184611af6565b92915050565b60006020820190508181036000830152611d708184611b05565b905092915050565b60006020820190508181036000830152611d9181611b3e565b9050919050565b60006020820190508181036000830152611db181611b61565b9050919050565b60006020820190508181036000830152611dd181611b84565b9050919050565b60006020820190508181036000830152611df181611ba7565b9050919050565b60006020820190508181036000830152611e1181611bca565b9050919050565b60006020820190508181036000830152611e3181611bed565b9050919050565b6000602082019050611e4d6000830184611c74565b92915050565b6000608082019050611e686000830187611c74565b611e756020830186611c74565b611e826040830185611ac9565b611e8f6060830184611ae7565b95945050505050565b6000606082019050611ead6000830186611c74565b611eba6020830185611c74565b611ec76040830184611c74565b949350505050565b6000819050602082019050919050565b600081519050919050565b600081519050919050565b6000602082019050919050565b600082825260208201905092915050565b600082825260208201905092915050565b6000611f2f826120a5565b9150611f3a836120a5565b9250827fffffffffffffffffffffffffffffffffffffffffffffffffffffffffffffffff03821115611f6f57611f6e61218d565b5b828201905092915050565b6000611f85826120a5565b9150611f90836120a5565b925082611fa057611f9f6121bc565b5b828204905092915050565b6000611fb6826120a5565b9150611fc1836120a5565b9250817fffffffffffffffffffffffffffffffffffffffffffffffffffffffffffffffff0483118215151615611ffa57611ff961218d565b5b828202905092915050565b6000612010826120a5565b915061201b836120a5565b92508282101561202e5761202d61218d565b5b828203905092915050565b600061204482612085565b9050919050565b60008115159050919050565b600061206282612039565b9050919050565b60006fffffffffffffffffffffffffffffffff82169050919050565b600073ffffffffffffffffffffffffffffffffffffffff82169050919050565b6000819050919050565b60006120ba826120c1565b9050919050565b60006120cc82612085565b9050919050565b60006120de826120e5565b9050919050565b60006120f082612085565b9050919050565b60005b838110156121155780820151818401526020810190506120fa565b83811115612124576000848401525b50505050565b6000600282049050600182168061214257607f821691505b60208210811415612156576121556121eb565b5b50919050565b6000612167826120a5565b9150612172836120a5565b925082612182576121816121bc565b5b828206905092915050565b7f4e487b7100000000000000000000000000000000000000000000000000000000600052601160045260246000fd5b7f4e487b7100000000000000000000000000000000000000000000000000000000600052601260045260246000fd5b7f4e487b7100000000000000000000000000000000000000000000000000000000600052602260045260246000fd5b6000601f19601f8301169050919050565b7f4c494d455f4641524d3a20496e76616c696420726577617264732063616c637560008201527f6c6174696f6e0000000000000000000000000000000000000000000000000000602082015250565b7f4f776e61626c653a206e6577206f776e657220697320746865207a65726f206160008201527f6464726573730000000000000000000000000000000000000000000000000000602082015250565b7f4c494d455f4641524d3a20496e76616c6964207769746864726177616c20616d60008201527f6f756e7400000000000000000000000000000000000000000000000000000000602082015250565b7f4c494d455f4641524d3a204e6f7420696e2068617276657374696e672070657260008201527f696f640000000000000000000000000000000000000000000000000000000000602082015250565b7f4f776e61626c653a2063616c6c6572206973206e6f7420746865206f776e6572600082015250565b7f4c494d455f4641524d3a20416d6f756e74206d7573742062652067726561746560008201527f72207468616e2030000000000000000000000000000000000000000000000000602082015250565b6123e881612039565b81146123f357600080fd5b50565b6123ff8161204b565b811461240a57600080fd5b50565b61241681612057565b811461242157600080fd5b50565b61242d81612069565b811461243857600080fd5b50565b612444816120a5565b811461244f57600080fd5b5056fea2646970667358221220ad163d9ce9f4c7784fc0eccaa5a8205e1ea22866addae7124838e422a88d0b1e64736f6c63430008020033",
    "immutableReferences": {},
    "source": "// SPDX-License-Identifier: MIT\npragma solidity ^0.8.2;\n\nimport \"./LimeToken.sol\";\n\ninterface ITokenFarm {\n\n    struct Pool {\n        uint256 poolSize;\n        uint256 limePerBlock;\n        bool taxFree;\n        // The actual token to be staked\n        IERC20 token;\n    }\n    struct UserInfo {\n        uint256 stakedAmount;\n        uint256 stakeBlock;\n        uint256 debt;\n    }\n    // Events\n    event Deposit(\n        address indexed user,\n        uint256 indexed poolIndex,\n        uint256 amount\n    );\n    event Withdrawal(\n        address indexed user,\n        uint256 indexed poolIndex,\n        uint256 amount\n    );\n\n    /**\n     * @dev Deposit `_amount` tokens in the pool `_poolIndex` for harvesting.\n     * Calls transferRewardsToDebt to store the current rewards.\n     * Calls transferFrom in the desired token.\n     * Increases taxed(`_amount`) from poolSize\n     * Charge 0.9% tax on it (if not tax-free pool)\n     */\n    function depositTokens(uint256 _amount, uint128 _poolIndex)\n        external\n        returns (bool);\n\n    /**\n     * @dev Withdraw `_amount` tokens from the harvesting pool `_poolIndex`.\n     * Calls transferRewardsToDebt to store the current rewards\n     * Reduces `_amount` from poolSize\n     * Charge 3.5% tax on it (if not tax-free pool)\n     */\n    function withdrawTokens(uint256 _amount, uint128 _poolIndex)\n        external\n        returns (bool);\n\n    /**\n     * @dev Harvest the earned tokens in the pool `_poolIndex`, which are:\n     * UserInfo.debt + calculateAmount(pool, holdings)\n     * Can only be called on harvesting periods\n     */\n    function harvestLimes(uint128 _poolIndex) external;\n\n    /**\n     * @dev Create a pool with the token `_token`\n     * Determine if the pool charges taxes with `_taxFree`\n     * Determine how much LIME it's multiplied with the block delta with `_limePerBlock`\n     * Can only be called by the owner\n     */\n    function createPool(\n        IERC20 _token,\n        uint256 _limePerBlock,\n        bool _taxFree\n    ) external;\n\n    /**\n     * @dev Function that transfers rewards to debt in the pool `poolIndex`\n     * creating a \"Checkpoint\", meaning that the earned tokens are now\n     * fixed.\n     */\n    function checkpoint(\n        uint128 _poolIndex\n    ) external;\n\n\n    /**\n     * @dev View function to check if harvesting is enabled\n     * Will check if the timestamp is divisible by 7 days\n     */\n    function isHarvestingPeriod() external view returns (bool);\n\n    /**\n     * @dev View function to check how many pools there are\n     */\n    function totalPools() external view returns (uint256);\n\n    /**\n     * @dev View function to check how much stake a user has in\n     * the pool `_poolIndex`\n     */\n    function userStakeInPool(uint128 _poolIndex) external view returns (uint256);\n\n    /**\n     * @dev View function to check how much LIME the user would receive\n     * if they harvested in the moment\n     * in the pool `_poolIndex`\n     */\n    function userAvailableHarvest(uint128 _poolIndex)\n        external\n        view\n        returns (uint256);\n\n    /**\n     * @dev View function to check the pool size of `_poolIndex`\n     */\n    function getPoolSize(uint128 _poolIndex) external view returns (uint256);\n\n    /**\n\n     * @dev View function to get the pools\n     */\n    function getPools() external view returns (Pool[] memory);\n}\n\ncontract TokenFarm is Ownable, ITokenFarm{\n\n    string public name = \"LIME Token Farm\";\n\n    // The LIME token\n    LimeToken public limeToken;\n\n    // Owner and dev addresses\n    address public dev;\n\n    Pool[] public pools;\n\n    // holdings stores how many tokens are staked by each user\n    // mapping(poolIndex => mapping(userAddress => UserInfo))\n\n    mapping(uint256 => mapping(address => UserInfo)) public holdings;\n\n    modifier onHarvestingPeriod() {\n        require(\n            block.timestamp % 14 days < 1 days,\n            \"LIME_FARM: Not in harvesting period\"\n        );\n        _;\n    }\n\n    constructor(address _dev, LimeToken _limeToken) {\n        limeToken = _limeToken;\n        dev = _dev;\n    }\n\n    function createPool(\n        IERC20 _token,\n        uint256 _limePerBlock,\n        bool _taxFree\n    ) external override onlyOwner {\n        pools.push(\n            Pool({\n                poolSize: 0,\n                token: _token,\n                limePerBlock: _limePerBlock,\n                taxFree: _taxFree\n            })\n        );\n    }\n\n    function depositTokens(uint256 _amount, uint128 _poolIndex)\n        external\n        override\n        returns (bool)\n    {\n        require(_amount > 0, \"LIME_FARM: Amount must be greater than 0\");\n\n        Pool storage pool = pools[_poolIndex];\n        UserInfo storage _userInfo = holdings[_poolIndex][address(msg.sender)];\n\n        if (_userInfo.stakedAmount > 0) {\n            // Store current rewards as debt and reset the block\n            transferRewardsToDebt(_poolIndex);\n        } else {\n            _userInfo.stakeBlock = block.number;\n        }\n\n        // Transfer the tokens to the contract\n        pool.token.transferFrom(address(msg.sender), address(this), _amount);\n        uint256 amountToDeposit;\n\n        if (pool.taxFree) {\n            amountToDeposit = _amount;\n        } else {\n            // Dev commission (0.9% in deposits)\n            pool.token.transfer(dev, _amount * 90 / 10000 );\n            // Save the remaining amount deposited\n            amountToDeposit = _amount * 9910 / 10000;\n        }\n\n        _userInfo.stakedAmount += amountToDeposit;\n\n        pools[_poolIndex].poolSize += \n            amountToDeposit;\n\n        emit Deposit(address(msg.sender), _poolIndex, amountToDeposit);\n\n        return true;\n    }\n\n    function withdrawTokens(uint256 _amount, uint128 _poolIndex)\n        external\n        override\n        returns (bool)\n    {\n        Pool storage pool = pools[_poolIndex];\n        UserInfo storage _userInfo = holdings[_poolIndex][address(msg.sender)];\n\n        // Amount shouldn't be 0 and the user needs to have the balance\n        require(\n            _amount > 0 && _userInfo.stakedAmount >= _amount,\n            \"LIME_FARM: Invalid withdrawal amount\"\n        );\n\n        transferRewardsToDebt(_poolIndex);\n\n        _userInfo.stakedAmount -= _amount;\n        pool.poolSize -= _amount;\n\n        if (pool.taxFree) {\n            pool.token.transfer(address(msg.sender), _amount);\n        } else {\n            // Dev comission (3.5% in withdrawals)\n            pool.token.transfer(dev, _amount / 1000 * 35);\n            pool.token.transfer(\n                address(msg.sender),\n                _amount / 1000 * 965\n            );\n        }\n\n\n        emit Withdrawal(address(msg.sender), _poolIndex, _amount);\n\n        return true;\n    }\n\n    function harvestLimes(uint128 _poolIndex) external override onHarvestingPeriod {\n        Pool storage pool = pools[_poolIndex];\n        UserInfo storage _userInfo = holdings[_poolIndex][address(msg.sender)];\n\n        uint256 debt = _userInfo.debt;\n        uint256 lastRewards = calculateRewards(\n            block.number - _userInfo.stakeBlock,\n            pool.limePerBlock,\n            _userInfo.stakedAmount,\n            pool.poolSize\n        );\n\n        // Reset the block and debt\n        _userInfo.stakeBlock = block.number;\n        _userInfo.debt = 0;\n\n        limeToken.mint(address(msg.sender), debt + lastRewards);\n    }\n\n    function checkpoint(\n        uint128 _poolIndex\n    ) external override {\n        transferRewardsToDebt(_poolIndex);\n    }\n\n\n    /**\n     * @dev Internal function that checks the user staked amount,\n     * calculates the rewards for it and stores them as debt. Then it\n     * resets the stakeBlock to the current block number.\n     */\n    function transferRewardsToDebt(uint128 _poolIndex) internal {\n        Pool storage pool = pools[_poolIndex];\n        UserInfo storage _userInfo = holdings[_poolIndex][address(msg.sender)];\n        uint256 rewards = calculateRewards(\n            block.number - _userInfo.stakeBlock,\n            pool.limePerBlock,\n            _userInfo.stakedAmount,\n            pool.poolSize\n        );\n        _userInfo.debt += rewards;\n        _userInfo.stakeBlock = block.number;\n    }\n\n    /**\n     * @dev Pure function that calculates how much LIME the user needs to get.\n     * Amount = blocks holded * LIME per block * (stake / poolSize)\n     *\n     */\n    function calculateRewards(\n        uint256 _blocksHolded,\n        uint256 _limePerBlock,\n        uint256 _stake,\n        uint256 _poolSize\n    ) internal pure returns (uint256) {\n        require(\n            _stake <= _poolSize,\n            \"LIME_FARM: Invalid rewards calculation\"\n        );\n        if (_poolSize < 1 ether){\n            return _blocksHolded\n                * _limePerBlock;\n        } \n        return\n            _blocksHolded\n                 * _limePerBlock\n                 * (_stake / (_poolSize / 1 ether))\n                 / 1 ether;\n    }\n\n    function isHarvestingPeriod() external override view returns (bool) {\n        return block.timestamp % 14 days < 1 days;\n    }\n\n    function userStakeInPool(uint128 _poolIndex)\n        external\n        override\n        view\n        returns (uint256)\n    {\n        return holdings[_poolIndex][address(msg.sender)].stakedAmount;\n    }\n\n    function userAvailableHarvest(uint128 _poolIndex)\n        external\n        view\n        override\n        returns (uint256)\n    {\n        UserInfo storage _userInfo = holdings[_poolIndex][address(msg.sender)];\n        Pool storage _poolInfo = pools[_poolIndex];\n\n        uint256 additionalRewards;\n\n        if( _userInfo.stakedAmount > 0 ){\n            additionalRewards = calculateRewards(\n                block.number - _userInfo.stakeBlock,\n                _poolInfo.limePerBlock,\n                _userInfo.stakedAmount,\n                _poolInfo.poolSize\n            );\n        }\n        else{\n            additionalRewards = 0;\n        }\n        return _userInfo.debt + additionalRewards;\n\n    }\n\n    function totalPools() external view override returns (uint256) {\n        return pools.length;\n    }\n\n    function getPoolSize(uint128 _poolIndex) external view override returns (uint256) {\n        return pools[_poolIndex].poolSize;\n    }\n\n    function getPools() external view override returns (Pool[] memory) {\n        return pools;\n    }\n}\n",
    "sourcePath": "/root/crypto/lemon-finance/core-contracts/contracts/TokenFarm.sol",
    "compiler": {
        "name": "solc",
        "version": "0.8.2+commit.661d1103.Emscripten.clang"
    },
    "schemaVersion": "3.3.4",
    "updatedAt": "2021-07-21T15:11:45.410Z",
    "devdoc": {
        "kind": "dev",
        "methods": {
            "checkpoint(uint128)": {
                "details": "Function that transfers rewards to debt in the pool `poolIndex` creating a \"Checkpoint\", meaning that the earned tokens are now fixed."
            },
            "createPool(address,uint256,bool)": {
                "details": "Create a pool with the token `_token` Determine if the pool charges taxes with `_taxFree` Determine how much LIME it's multiplied with the block delta with `_limePerBlock` Can only be called by the owner"
            },
            "depositTokens(uint256,uint128)": {
                "details": "Deposit `_amount` tokens in the pool `_poolIndex` for harvesting. Calls transferRewardsToDebt to store the current rewards. Calls transferFrom in the desired token. Increases taxed(`_amount`) from poolSize Charge 0.9% tax on it (if not tax-free pool)"
            },
            "getPoolSize(uint128)": {
                "details": "View function to check the pool size of `_poolIndex`"
            },
            "getPools()": {
                "details": "View function to get the pools"
            },
            "harvestLimes(uint128)": {
                "details": "Harvest the earned tokens in the pool `_poolIndex`, which are: UserInfo.debt + calculateAmount(pool, holdings) Can only be called on harvesting periods"
            },
            "isHarvestingPeriod()": {
                "details": "View function to check if harvesting is enabled Will check if the timestamp is divisible by 7 days"
            },
            "owner()": {
                "details": "Returns the address of the current owner."
            },
            "renounceOwnership()": {
                "details": "Leaves the contract without owner. It will not be possible to call `onlyOwner` functions anymore. Can only be called by the current owner. NOTE: Renouncing ownership will leave the contract without an owner, thereby removing any functionality that is only available to the owner."
            },
            "totalPools()": {
                "details": "View function to check how many pools there are"
            },
            "transferOwnership(address)": {
                "details": "Transfers ownership of the contract to a new account (`newOwner`). Can only be called by the current owner."
            },
            "userAvailableHarvest(uint128)": {
                "details": "View function to check how much LIME the user would receive if they harvested in the moment in the pool `_poolIndex`"
            },
            "userStakeInPool(uint128)": {
                "details": "View function to check how much stake a user has in the pool `_poolIndex`"
            },
            "withdrawTokens(uint256,uint128)": {
                "details": "Withdraw `_amount` tokens from the harvesting pool `_poolIndex`. Calls transferRewardsToDebt to store the current rewards Reduces `_amount` from poolSize Charge 3.5% tax on it (if not tax-free pool)"
            }
        },
        "version": 1
    },
    "userdoc": {
        "kind": "user",
        "methods": {},
        "version": 1
    }
}