{
  "contractName": "Lottery",
  "abi": [
    {
      "inputs": [
        {
          "internalType": "contract ILotteryGovernance",
          "name": "_governance",
          "type": "address"
        },
        {
          "internalType": "address",
          "name": "_link",
          "type": "address"
        },
        {
          "internalType": "contract LimeToken",
          "name": "_limeToken",
          "type": "address"
        }
      ],
      "stateMutability": "nonpayable",
      "type": "constructor"
    },
    {
      "anonymous": false,
      "inputs": [
        {
          "indexed": true,
          "internalType": "bytes32",
          "name": "id",
          "type": "bytes32"
        }
      ],
      "name": "ChainlinkCancelled",
      "type": "event"
    },
    {
      "anonymous": false,
      "inputs": [
        {
          "indexed": true,
          "internalType": "bytes32",
          "name": "id",
          "type": "bytes32"
        }
      ],
      "name": "ChainlinkFulfilled",
      "type": "event"
    },
    {
      "anonymous": false,
      "inputs": [
        {
          "indexed": true,
          "internalType": "bytes32",
          "name": "id",
          "type": "bytes32"
        }
      ],
      "name": "ChainlinkRequested",
      "type": "event"
    },
    {
      "anonymous": false,
      "inputs": [
        {
          "indexed": false,
          "internalType": "address",
          "name": "winner",
          "type": "address"
        },
        {
          "indexed": false,
          "internalType": "uint256",
          "name": "amount",
          "type": "uint256"
        }
      ],
      "name": "LotteryWon",
      "type": "event"
    },
    {
      "anonymous": false,
      "inputs": [
        {
          "indexed": true,
          "internalType": "address",
          "name": "previousOwner",
          "type": "address"
        },
        {
          "indexed": true,
          "internalType": "address",
          "name": "newOwner",
          "type": "address"
        }
      ],
      "name": "OwnershipTransferred",
      "type": "event"
    },
    {
      "inputs": [],
      "name": "currLotteryId",
      "outputs": [
        {
          "internalType": "uint256",
          "name": "",
          "type": "uint256"
        }
      ],
      "stateMutability": "view",
      "type": "function"
    },
    {
      "inputs": [],
      "name": "currLotteryParticipations",
      "outputs": [
        {
          "internalType": "uint256",
          "name": "",
          "type": "uint256"
        }
      ],
      "stateMutability": "view",
      "type": "function"
    },
    {
      "inputs": [],
      "name": "currWinner",
      "outputs": [
        {
          "internalType": "address payable",
          "name": "owner",
          "type": "address"
        },
        {
          "internalType": "uint32",
          "name": "number",
          "type": "uint32"
        }
      ],
      "stateMutability": "view",
      "type": "function"
    },
    {
      "inputs": [],
      "name": "governance",
      "outputs": [
        {
          "internalType": "contract ILotteryGovernance",
          "name": "",
          "type": "address"
        }
      ],
      "stateMutability": "view",
      "type": "function"
    },
    {
      "inputs": [],
      "name": "lastWonAmount",
      "outputs": [
        {
          "internalType": "uint256",
          "name": "",
          "type": "uint256"
        }
      ],
      "stateMutability": "view",
      "type": "function"
    },
    {
      "inputs": [],
      "name": "limeToken",
      "outputs": [
        {
          "internalType": "contract LimeToken",
          "name": "",
          "type": "address"
        }
      ],
      "stateMutability": "view",
      "type": "function"
    },
    {
      "inputs": [],
      "name": "lotteryState",
      "outputs": [
        {
          "internalType": "enum Lottery.LOTTERY_STATE",
          "name": "",
          "type": "uint8"
        }
      ],
      "stateMutability": "view",
      "type": "function"
    },
    {
      "inputs": [
        {
          "internalType": "uint256",
          "name": "",
          "type": "uint256"
        },
        {
          "internalType": "uint256",
          "name": "",
          "type": "uint256"
        }
      ],
      "name": "lotteryTickets",
      "outputs": [
        {
          "internalType": "address payable",
          "name": "owner",
          "type": "address"
        },
        {
          "internalType": "uint32",
          "name": "number",
          "type": "uint32"
        }
      ],
      "stateMutability": "view",
      "type": "function"
    },
    {
      "inputs": [],
      "name": "owner",
      "outputs": [
        {
          "internalType": "address",
          "name": "",
          "type": "address"
        }
      ],
      "stateMutability": "view",
      "type": "function"
    },
    {
      "inputs": [],
      "name": "renounceOwnership",
      "outputs": [],
      "stateMutability": "nonpayable",
      "type": "function"
    },
    {
      "inputs": [
        {
          "internalType": "address",
          "name": "newOwner",
          "type": "address"
        }
      ],
      "name": "transferOwnership",
      "outputs": [],
      "stateMutability": "nonpayable",
      "type": "function"
    },
    {
      "stateMutability": "payable",
      "type": "receive"
    },
    {
      "inputs": [],
      "name": "startNewLottery",
      "outputs": [],
      "stateMutability": "nonpayable",
      "type": "function"
    },
    {
      "inputs": [],
      "name": "endLottery",
      "outputs": [],
      "stateMutability": "nonpayable",
      "type": "function"
    },
    {
      "inputs": [
        {
          "internalType": "uint32[]",
          "name": "_numbers",
          "type": "uint32[]"
        }
      ],
      "name": "buyTickets",
      "outputs": [],
      "stateMutability": "nonpayable",
      "type": "function"
    },
    {
      "inputs": [
        {
          "internalType": "uint256",
          "name": "randomness",
          "type": "uint256"
        }
      ],
      "name": "fulfillRandomness",
      "outputs": [],
      "stateMutability": "nonpayable",
      "type": "function"
    },
    {
      "inputs": [],
      "name": "getPot",
      "outputs": [
        {
          "internalType": "uint256",
          "name": "",
          "type": "uint256"
        }
      ],
      "stateMutability": "view",
      "type": "function"
    },
    {
      "inputs": [],
      "name": "getTicketPrice",
      "outputs": [
        {
          "internalType": "uint256",
          "name": "",
          "type": "uint256"
        }
      ],
      "stateMutability": "view",
      "type": "function"
    },
    {
      "inputs": [],
      "name": "getUserNumbers",
      "outputs": [
        {
          "internalType": "uint32[]",
          "name": "_numbers",
          "type": "uint32[]"
        }
      ],
      "stateMutability": "view",
      "type": "function"
    },
    {
      "inputs": [
        {
          "internalType": "uint32",
          "name": "_number",
          "type": "uint32"
        }
      ],
      "name": "isNumberUsed",
      "outputs": [
        {
          "internalType": "bool",
          "name": "used",
          "type": "bool"
        }
      ],
      "stateMutability": "view",
      "type": "function"
    },
    {
      "inputs": [],
      "name": "getTotalTicketsBought",
      "outputs": [
        {
          "internalType": "uint256",
          "name": "_amount",
          "type": "uint256"
        }
      ],
      "stateMutability": "view",
      "type": "function"
    }
  ],
  "bytecode": "0x608060405260016004556031600b55620186a0600c553480156200002257600080fd5b5060405162002e1f38038062002e1f8339818101604052810190620000489190620002c5565b600160068190555062000070620000646200016e60201b60201c565b6200017660201b60201c565b62000081826200023c60201b60201c565b6000600d8190555060016008819055506001600760146101000a81548160ff02191690836002811115620000de577f4e487b7100000000000000000000000000000000000000000000000000000000600052602160045260246000fd5b021790555082600960006101000a81548173ffffffffffffffffffffffffffffffffffffffff021916908373ffffffffffffffffffffffffffffffffffffffff16021790555080600a60006101000a81548173ffffffffffffffffffffffffffffffffffffffff021916908373ffffffffffffffffffffffffffffffffffffffff160217905550505050620003c5565b600033905090565b6000600760009054906101000a900473ffffffffffffffffffffffffffffffffffffffff16905081600760006101000a81548173ffffffffffffffffffffffffffffffffffffffff021916908373ffffffffffffffffffffffffffffffffffffffff1602179055508173ffffffffffffffffffffffffffffffffffffffff168173ffffffffffffffffffffffffffffffffffffffff167f8be0079c531659141344cd1fd0a4f28419497f9722a3daafe3b4186f6b6457e060405160405180910390a35050565b80600260006101000a81548173ffffffffffffffffffffffffffffffffffffffff021916908373ffffffffffffffffffffffffffffffffffffffff16021790555050565b600081519050620002918162000377565b92915050565b600081519050620002a88162000391565b92915050565b600081519050620002bf81620003ab565b92915050565b600080600060608486031215620002db57600080fd5b6000620002eb8682870162000297565b9350506020620002fe8682870162000280565b92505060406200031186828701620002ae565b9150509250925092565b6000620003288262000357565b9050919050565b60006200033c826200031b565b9050919050565b600062000350826200031b565b9050919050565b600073ffffffffffffffffffffffffffffffffffffffff82169050919050565b62000382816200031b565b81146200038e57600080fd5b50565b6200039c816200032f565b8114620003a857600080fd5b50565b620003b68162000343565b8114620003c257600080fd5b50565b612a4a80620003d56000396000f3fe6080604052600436106101235760003560e01c80635aa6e675116100a05780638da5cb5b116100645780638da5cb5b1461038a578063e1059fe5146103b5578063e2f3e82d146103de578063f2fde38b1461041b578063f54eb67e146104445761012a565b80635aa6e675146102c65780636939864b146102f1578063715018a61461031c578063793c68c31461033357806387bb7ae01461035f5761012a565b8063495bd94e116100e7578063495bd94e146101f257806349c0de881461021b578063500449011461025957806356c43f8e146102845780635727cb59146102af5761012a565b80631593a8c71461012f578063197bdb33146101465780633acff7f7146101715780633c33be6a1461019c578063403c9fa8146101c75761012a565b3661012a57005b600080fd5b34801561013b57600080fd5b5061014461046f565b005b34801561015257600080fd5b5061015b610608565b604051610168919061211b565b60405180910390f35b34801561017d57600080fd5b5061018661062e565b6040516101939190612351565b60405180910390f35b3480156101a857600080fd5b506101b1610634565b6040516101be9190612351565b60405180910390f35b3480156101d357600080fd5b506101dc61063a565b6040516101e99190612351565b60405180910390f35b3480156101fe57600080fd5b5061021960048036038101906102149190611c02565b610642565b005b34801561022757600080fd5b50610242600480360381019061023d9190611c54565b610abd565b604051610250929190612071565b60405180910390f35b34801561026557600080fd5b5061026e610b2a565b60405161027b91906120c3565b60405180910390f35b34801561029057600080fd5b50610299610bfe565b6040516102a69190612351565b60405180910390f35b3480156102bb57600080fd5b506102c4610c1e565b005b3480156102d257600080fd5b506102db610daf565b6040516102e89190612100565b60405180910390f35b3480156102fd57600080fd5b50610306610dd5565b6040516103139190612136565b60405180910390f35b34801561032857600080fd5b50610331610de8565b005b34801561033f57600080fd5b50610348610e70565b604051610356929190612071565b60405180910390f35b34801561036b57600080fd5b50610374610eb2565b6040516103819190612351565b60405180910390f35b34801561039657600080fd5b5061039f610f66565b6040516103ac919061202d565b60405180910390f35b3480156103c157600080fd5b506103dc60048036038101906103d79190611bbd565b610f90565b005b3480156103ea57600080fd5b5061040560048036038101906104009190611c90565b6115cd565b60405161041291906120e5565b60405180910390f35b34801561042757600080fd5b50610442600480360381019061043d9190611b6b565b611616565b005b34801561045057600080fd5b5061045961170e565b6040516104669190612351565b60405180910390f35b610477611714565b73ffffffffffffffffffffffffffffffffffffffff16610495610f66565b73ffffffffffffffffffffffffffffffffffffffff16146104eb576040517f08c379a00000000000000000000000000000000000000000000000000000000081526004016104e290612291565b60405180910390fd5b60006002811115610525577f4e487b7100000000000000000000000000000000000000000000000000000000600052602160045260246000fd5b600760149054906101000a900460ff16600281111561056d577f4e487b7100000000000000000000000000000000000000000000000000000000600052602160045260246000fd5b146105ad576040517f08c379a00000000000000000000000000000000000000000000000000000000081526004016105a490612271565b60405180910390fd5b6002600760146101000a81548160ff021916908360028111156105f9577f4e487b7100000000000000000000000000000000000000000000000000000000600052602160045260246000fd5b021790555061060661171c565b565b600a60009054906101000a900473ffffffffffffffffffffffffffffffffffffffff1681565b600d5481565b60085481565b600047905090565b60028081111561067b577f4e487b7100000000000000000000000000000000000000000000000000000000600052602160045260246000fd5b600760149054906101000a900460ff1660028111156106c3577f4e487b7100000000000000000000000000000000000000000000000000000000600052602160045260246000fd5b14610703576040517f08c379a00000000000000000000000000000000000000000000000000000000081526004016106fa90612331565b60405180910390fd5b60008111610746576040517f08c379a000000000000000000000000000000000000000000000000000000000815260040161073d906122d1565b60405180910390fd5b600960009054906101000a900473ffffffffffffffffffffffffffffffffffffffff1673ffffffffffffffffffffffffffffffffffffffff1663360131896040518163ffffffff1660e01b815260040160206040518083038186803b1580156107ae57600080fd5b505afa1580156107c2573d6000803e3d6000fd5b505050506040513d601f19601f820116820180604052508101906107e69190611b94565b73ffffffffffffffffffffffffffffffffffffffff163373ffffffffffffffffffffffffffffffffffffffff1614610847577f4e487b7100000000000000000000000000000000000000000000000000000000600052600160045260246000fd5b6000601060006008548152602001908152602001600020805490508261086d91906125f8565b9050600060106000600854815260200190815260200160002082815481106108be577f4e487b7100000000000000000000000000000000000000000000000000000000600052603260045260246000fd5b9060005260206000200160000160009054906101000a900473ffffffffffffffffffffffffffffffffffffffff169050601060006008548152602001908152602001600020828154811061093b577f4e487b7100000000000000000000000000000000000000000000000000000000600052603260045260246000fd5b90600052602060002001600e6000820160009054906101000a900473ffffffffffffffffffffffffffffffffffffffff168160000160006101000a81548173ffffffffffffffffffffffffffffffffffffffff021916908373ffffffffffffffffffffffffffffffffffffffff1602179055506000820160149054906101000a900463ffffffff168160000160146101000a81548163ffffffff021916908363ffffffff1602179055509050506109f061063a565b600f819055507f2e798dd4337e515c79b64c40e1a93baa1aefbd9180ac7905e02508edd7971e5081610a2061063a565b604051610a2e929190612048565b60405180910390a1610a4781610a4261063a565b6118eb565b60086000815480929190610a5a906125af565b91905055506000600d819055506001600760146101000a81548160ff02191690836002811115610ab3577f4e487b7100000000000000000000000000000000000000000000000000000000600052602160045260246000fd5b0217905550505050565b60106020528160005260406000208181548110610ad957600080fd5b90600052602060002001600091509150508060000160009054906101000a900473ffffffffffffffffffffffffffffffffffffffff16908060000160149054906101000a900463ffffffff16905082565b606060126000600854815260200190815260200160002060003373ffffffffffffffffffffffffffffffffffffffff1673ffffffffffffffffffffffffffffffffffffffff168152602001908152602001600020805480602002602001604051908101604052809291908181526020018280548015610bf457602002820191906000526020600020906000905b82829054906101000a900463ffffffff1663ffffffff1681526020019060040190602082600301049283019260010382029150808411610bb75790505b5050505050905090565b600060106000600854815260200190815260200160002080549050905090565b610c26611714565b73ffffffffffffffffffffffffffffffffffffffff16610c44610f66565b73ffffffffffffffffffffffffffffffffffffffff1614610c9a576040517f08c379a0000000000000000000000000000000000000000000000000000000008152600401610c9190612291565b60405180910390fd5b60016002811115610cd4577f4e487b7100000000000000000000000000000000000000000000000000000000600052602160045260246000fd5b600760149054906101000a900460ff166002811115610d1c577f4e487b7100000000000000000000000000000000000000000000000000000000600052602160045260246000fd5b14610d5c576040517f08c379a0000000000000000000000000000000000000000000000000000000008152600401610d53906122f1565b60405180910390fd5b6000600760146101000a81548160ff02191690836002811115610da8577f4e487b7100000000000000000000000000000000000000000000000000000000600052602160045260246000fd5b0217905550565b600960009054906101000a900473ffffffffffffffffffffffffffffffffffffffff1681565b600760149054906101000a900460ff1681565b610df0611714565b73ffffffffffffffffffffffffffffffffffffffff16610e0e610f66565b73ffffffffffffffffffffffffffffffffffffffff1614610e64576040517f08c379a0000000000000000000000000000000000000000000000000000000008152600401610e5b90612291565b60405180910390fd5b610e6e60006119df565b565b600e8060000160009054906101000a900473ffffffffffffffffffffffffffffffffffffffff16908060000160149054906101000a900463ffffffff16905082565b60006103e8600a60009054906101000a900473ffffffffffffffffffffffffffffffffffffffff1673ffffffffffffffffffffffffffffffffffffffff166318160ddd6040518163ffffffff1660e01b815260040160206040518083038186803b158015610f1f57600080fd5b505afa158015610f33573d6000803e3d6000fd5b505050506040513d601f19601f82011682018060405250810190610f579190611c2b565b610f619190612417565b905090565b6000600760009054906101000a900473ffffffffffffffffffffffffffffffffffffffff16905090565b60026006541415610fd6576040517f08c379a0000000000000000000000000000000000000000000000000000000008152600401610fcd90612311565b60405180910390fd5b6002600681905550610fe733611aa5565b15611027576040517f08c379a000000000000000000000000000000000000000000000000000000000815260040161101e90612191565b60405180910390fd5b3273ffffffffffffffffffffffffffffffffffffffff163373ffffffffffffffffffffffffffffffffffffffff1614611095576040517f08c379a000000000000000000000000000000000000000000000000000000000815260040161108c90612251565b60405180910390fd5b60008282905014156110dc576040517f08c379a00000000000000000000000000000000000000000000000000000000081526004016110d390612231565b60405180910390fd5b60006002811115611116577f4e487b7100000000000000000000000000000000000000000000000000000000600052602160045260246000fd5b600760149054906101000a900460ff16600281111561115e577f4e487b7100000000000000000000000000000000000000000000000000000000600052602160045260246000fd5b1461119e576040517f08c379a000000000000000000000000000000000000000000000000000000000815260040161119590612151565b60405180910390fd5b600060126000600854815260200190815260200160002060003373ffffffffffffffffffffffffffffffffffffffff1673ffffffffffffffffffffffffffffffffffffffff1681526020019081526020016000209050600b5483839050828054905061120a91906123c1565b111561124b576040517f08c379a000000000000000000000000000000000000000000000000000000000815260040161124290612211565b60405180910390fd5b600a60009054906101000a900473ffffffffffffffffffffffffffffffffffffffff1673ffffffffffffffffffffffffffffffffffffffff166379cc679033611292610eb2565b868690506112a09190612448565b6040518363ffffffff1660e01b81526004016112bd92919061209a565b600060405180830381600087803b1580156112d757600080fd5b505af11580156112eb573d6000803e3d6000fd5b5050505060005b838390508110156115a7576000848483818110611338577f4e487b7100000000000000000000000000000000000000000000000000000000600052603260045260246000fd5b905060200201602081019061134d9190611c90565b90506000151560116000600854815260200190815260200160002060008363ffffffff1663ffffffff16815260200190815260200160002060009054906101000a900460ff161515146113d5576040517f08c379a00000000000000000000000000000000000000000000000000000000081526004016113cc906122b1565b60405180910390fd5b600c548163ffffffff161115611420576040517f08c379a0000000000000000000000000000000000000000000000000000000008152600401611417906121f1565b60405180910390fd5b600160116000600854815260200190815260200160002060008363ffffffff1663ffffffff16815260200190815260200160002060006101000a81548160ff02191690831515021790555060106000600854815260200190815260200160002060405180604001604052803373ffffffffffffffffffffffffffffffffffffffff1681526020018363ffffffff168152509080600181540180825580915050600190039060005260206000200160009091909190915060008201518160000160006101000a81548173ffffffffffffffffffffffffffffffffffffffff021916908373ffffffffffffffffffffffffffffffffffffffff16021790555060208201518160000160146101000a81548163ffffffff021916908363ffffffff1602179055505050828190806001815401808255809150506001900390600052602060002090600891828204019190066004029091909190916101000a81548163ffffffff021916908363ffffffff16021790555050808061159f906125af565b9150506112f2565b50600d60008154809291906115bb906125af565b91905055505060016006819055505050565b600060116000600854815260200190815260200160002060008363ffffffff1663ffffffff16815260200190815260200160002060009054906101000a900460ff169050919050565b61161e611714565b73ffffffffffffffffffffffffffffffffffffffff1661163c610f66565b73ffffffffffffffffffffffffffffffffffffffff1614611692576040517f08c379a000000000000000000000000000000000000000000000000000000000815260040161168990612291565b60405180910390fd5b600073ffffffffffffffffffffffffffffffffffffffff168173ffffffffffffffffffffffffffffffffffffffff161415611702576040517f08c379a00000000000000000000000000000000000000000000000000000000081526004016116f990612171565b60405180910390fd5b61170b816119df565b50565b600f5481565b600033905090565b600280811115611755577f4e487b7100000000000000000000000000000000000000000000000000000000600052602160045260246000fd5b600760149054906101000a900460ff16600281111561179d577f4e487b7100000000000000000000000000000000000000000000000000000000600052602160045260246000fd5b146117dd576040517f08c379a00000000000000000000000000000000000000000000000000000000081526004016117d490612331565b60405180910390fd5b600960009054906101000a900473ffffffffffffffffffffffffffffffffffffffff1673ffffffffffffffffffffffffffffffffffffffff1663360131896040518163ffffffff1660e01b815260040160206040518083038186803b15801561184557600080fd5b505afa158015611859573d6000803e3d6000fd5b505050506040513d601f19601f8201168201806040525081019061187d9190611b94565b73ffffffffffffffffffffffffffffffffffffffff1663b37217a46008546040518263ffffffff1660e01b81526004016118b79190612351565b600060405180830381600087803b1580156118d157600080fd5b505af11580156118e5573d6000803e3d6000fd5b50505050565b8047101561192e576040517f08c379a0000000000000000000000000000000000000000000000000000000008152600401611925906121d1565b60405180910390fd5b60008273ffffffffffffffffffffffffffffffffffffffff168260405161195490612018565b60006040518083038185875af1925050503d8060008114611991576040519150601f19603f3d011682016040523d82523d6000602084013e611996565b606091505b50509050806119da576040517f08c379a00000000000000000000000000000000000000000000000000000000081526004016119d1906121b1565b60405180910390fd5b505050565b6000600760009054906101000a900473ffffffffffffffffffffffffffffffffffffffff16905081600760006101000a81548173ffffffffffffffffffffffffffffffffffffffff021916908373ffffffffffffffffffffffffffffffffffffffff1602179055508173ffffffffffffffffffffffffffffffffffffffff168173ffffffffffffffffffffffffffffffffffffffff167f8be0079c531659141344cd1fd0a4f28419497f9722a3daafe3b4186f6b6457e060405160405180910390a35050565b600080823b905060008111915050919050565b600081359050611ac7816129cf565b92915050565b600081519050611adc816129cf565b92915050565b60008083601f840112611af457600080fd5b8235905067ffffffffffffffff811115611b0d57600080fd5b602083019150836020820283011115611b2557600080fd5b9250929050565b600081359050611b3b816129e6565b92915050565b600081519050611b50816129e6565b92915050565b600081359050611b65816129fd565b92915050565b600060208284031215611b7d57600080fd5b6000611b8b84828501611ab8565b91505092915050565b600060208284031215611ba657600080fd5b6000611bb484828501611acd565b91505092915050565b60008060208385031215611bd057600080fd5b600083013567ffffffffffffffff811115611bea57600080fd5b611bf685828601611ae2565b92509250509250929050565b600060208284031215611c1457600080fd5b6000611c2284828501611b2c565b91505092915050565b600060208284031215611c3d57600080fd5b6000611c4b84828501611b41565b91505092915050565b60008060408385031215611c6757600080fd5b6000611c7585828601611b2c565b9250506020611c8685828601611b2c565b9150509250929050565b600060208284031215611ca257600080fd5b6000611cb084828501611b56565b91505092915050565b6000611cc58383611ffa565b60208301905092915050565b611cda8161251f565b82525050565b611ce9816124b4565b82525050565b611cf8816124a2565b82525050565b6000611d098261237c565b611d138185612394565b9350611d1e8361236c565b8060005b83811015611d4f578151611d368882611cb9565b9750611d4183612387565b925050600181019050611d22565b5085935050505092915050565b611d65816124c6565b82525050565b611d7481612531565b82525050565b611d8381612555565b82525050565b611d9281612579565b82525050565b6000611da56014836123b0565b9150611db0826126b6565b602082019050919050565b6000611dc86026836123b0565b9150611dd3826126df565b604082019050919050565b6000611deb6014836123b0565b9150611df68261272e565b602082019050919050565b6000611e0e603a836123b0565b9150611e1982612757565b604082019050919050565b6000611e31601d836123b0565b9150611e3c826127a6565b602082019050919050565b6000611e54601d836123b0565b9150611e5f826127cf565b602082019050919050565b6000611e77601e836123b0565b9150611e82826127f8565b602082019050919050565b6000611e9a6013836123b0565b9150611ea582612821565b602082019050919050565b6000611ebd601a836123b0565b9150611ec88261284a565b602082019050919050565b6000611ee06020836123b0565b9150611eeb82612873565b602082019050919050565b6000611f036020836123b0565b9150611f0e8261289c565b602082019050919050565b6000611f266024836123b0565b9150611f31826128c5565b604082019050919050565b6000611f496000836123a5565b9150611f5482612914565b600082019050919050565b6000611f6c6010836123b0565b9150611f7782612917565b602082019050919050565b6000611f8f601d836123b0565b9150611f9a82612940565b602082019050919050565b6000611fb2601f836123b0565b9150611fbd82612969565b602082019050919050565b6000611fd5601d836123b0565b9150611fe082612992565b602082019050919050565b611ff481612505565b82525050565b6120038161250f565b82525050565b6120128161250f565b82525050565b600061202382611f3c565b9150819050919050565b60006020820190506120426000830184611cef565b92915050565b600060408201905061205d6000830185611cd1565b61206a6020830184611feb565b9392505050565b60006040820190506120866000830185611ce0565b6120936020830184612009565b9392505050565b60006040820190506120af6000830185611cef565b6120bc6020830184611feb565b9392505050565b600060208201905081810360008301526120dd8184611cfe565b905092915050565b60006020820190506120fa6000830184611d5c565b92915050565b60006020820190506121156000830184611d6b565b92915050565b60006020820190506121306000830184611d7a565b92915050565b600060208201905061214b6000830184611d89565b92915050565b6000602082019050818103600083015261216a81611d98565b9050919050565b6000602082019050818103600083015261218a81611dbb565b9050919050565b600060208201905081810360008301526121aa81611dde565b9050919050565b600060208201905081810360008301526121ca81611e01565b9050919050565b600060208201905081810360008301526121ea81611e24565b9050919050565b6000602082019050818103600083015261220a81611e47565b9050919050565b6000602082019050818103600083015261222a81611e6a565b9050919050565b6000602082019050818103600083015261224a81611e8d565b9050919050565b6000602082019050818103600083015261226a81611eb0565b9050919050565b6000602082019050818103600083015261228a81611ed3565b9050919050565b600060208201905081810360008301526122aa81611ef6565b9050919050565b600060208201905081810360008301526122ca81611f19565b9050919050565b600060208201905081810360008301526122ea81611f5f565b9050919050565b6000602082019050818103600083015261230a81611f82565b9050919050565b6000602082019050818103600083015261232a81611fa5565b9050919050565b6000602082019050818103600083015261234a81611fc8565b9050919050565b60006020820190506123666000830184611feb565b92915050565b6000819050602082019050919050565b600081519050919050565b6000602082019050919050565b600082825260208201905092915050565b600081905092915050565b600082825260208201905092915050565b60006123cc82612505565b91506123d783612505565b9250827fffffffffffffffffffffffffffffffffffffffffffffffffffffffffffffffff0382111561240c5761240b612629565b5b828201905092915050565b600061242282612505565b915061242d83612505565b92508261243d5761243c612658565b5b828204905092915050565b600061245382612505565b915061245e83612505565b9250817fffffffffffffffffffffffffffffffffffffffffffffffffffffffffffffffff048311821515161561249757612496612629565b5b828202905092915050565b60006124ad826124e5565b9050919050565b60006124bf826124e5565b9050919050565b60008115159050919050565b60008190506124e0826129bb565b919050565b600073ffffffffffffffffffffffffffffffffffffffff82169050919050565b6000819050919050565b600063ffffffff82169050919050565b600061252a8261258b565b9050919050565b600061253c82612543565b9050919050565b600061254e826124e5565b9050919050565b600061256082612567565b9050919050565b6000612572826124e5565b9050919050565b6000612584826124d2565b9050919050565b60006125968261259d565b9050919050565b60006125a8826124e5565b9050919050565b60006125ba82612505565b91507fffffffffffffffffffffffffffffffffffffffffffffffffffffffffffffffff8214156125ed576125ec612629565b5b600182019050919050565b600061260382612505565b915061260e83612505565b92508261261e5761261d612658565b5b828206905092915050565b7f4e487b7100000000000000000000000000000000000000000000000000000000600052601160045260246000fd5b7f4e487b7100000000000000000000000000000000000000000000000000000000600052601260045260246000fd5b7f4e487b7100000000000000000000000000000000000000000000000000000000600052602160045260246000fd5b7f4c6f7474657279206d757374206265206f70656e000000000000000000000000600082015250565b7f4f776e61626c653a206e6577206f776e657220697320746865207a65726f206160008201527f6464726573730000000000000000000000000000000000000000000000000000602082015250565b7f436f6e7472616374206e6f7420616c6c6f776564000000000000000000000000600082015250565b7f416464726573733a20756e61626c6520746f2073656e642076616c75652c207260008201527f6563697069656e74206d61792068617665207265766572746564000000000000602082015250565b7f416464726573733a20696e73756666696369656e742062616c616e6365000000600082015250565b7f4e756d62657220697320686967686572207468616e20746865206d6178000000600082015250565b7f43616e277420627579206d6f7265207468616e203439207469636b6574730000600082015250565b7f4e6f207469636b65742073706563696669656400000000000000000000000000600082015250565b7f50726f787920636f6e7472616374206e6f7420616c6c6f776564000000000000600082015250565b7f546865206c6f7474657279206861736e2774206576656e207374617274656421600082015250565b7f4f776e61626c653a2063616c6c6572206973206e6f7420746865206f776e6572600082015250565b7f4f6e65206f6620746865206e756d6265727320697320616c726561647920746160008201527f6b656e2e00000000000000000000000000000000000000000000000000000000602082015250565b50565b7f72616e646f6d2d6e6f742d666f756e6400000000000000000000000000000000600082015250565b7f43616e27742073746172742061206e6577206c6f747465727920796574000000600082015250565b7f5265656e7472616e637947756172643a207265656e7472616e742063616c6c00600082015250565b7f596f75206172656e277420617420746861742073746167652079657421000000600082015250565b600381106129cc576129cb612687565b5b50565b6129d8816124a2565b81146129e357600080fd5b50565b6129ef81612505565b81146129fa57600080fd5b50565b612a068161250f565b8114612a1157600080fd5b5056fea2646970667358221220319b24f930f64094884c56b043cffdbd4996c1085e959adbb8984bf46f68e6d264736f6c63430008020033",
  "immutableReferences": {},
  "source": "// SPDX-License-Identifier: MIT\npragma solidity ^0.8.2;\n\nimport \"@chainlink/contracts/src/v0.8/ChainlinkClient.sol\";\n\nimport \"@openzeppelin/contracts/access/Ownable.sol\";\nimport \"@openzeppelin/contracts/utils/Address.sol\";\nimport \"@openzeppelin/contracts/security/ReentrancyGuard.sol\";\n\nimport \"./LimeToken.sol\";\nimport \"./interfaces/IRandomness.sol\";\nimport \"./interfaces/ILotteryGovernance.sol\";\n\ncontract Lottery is ChainlinkClient, ReentrancyGuard, Ownable {\n  LOTTERY_STATE public lotteryState;\n  uint256 public currLotteryId;\n\n  ILotteryGovernance public governance;\n  LimeToken public limeToken;\n\n  uint256 MAX_TICKET_PURCHASE = 49;\n  uint256 MAX_LOTTERY_NUMBER = 100000;\n\n  struct Ticket {\n    address payable owner;\n    uint32 number;\n  }\n\n  // Track the number of participations.\n  // A participation is when a user buys tickets.\n  // It's almost a one-to-one relationship with participants, but less expensive.\n  uint256 public currLotteryParticipations;\n\n  // The current winner. Could be a mapping for lottery id,\n  // but this is cheaper and info can be retrieved using\n  // the event LotteryWon\n  Ticket public currWinner;\n  \n  uint256 public lastWonAmount;\n\n  // Using three mappings:\n  // - lotteryId => Ticket[]: To pick the winner\n  // - lotteryId => (ticketNumber => bool): To check if a number is used\n  // - lotteryId => (userAddress => numbers): To check which numbers a user bought\n\n  mapping(uint256 => Ticket[]) public lotteryTickets;\n  mapping(uint256 => mapping(uint32 => bool)) numbersInUse;\n  mapping(uint256 => mapping(address => uint32[])) userNumbers;\n\n  enum LOTTERY_STATE {\n    OPEN,\n    CLOSED,\n    CALCULATING_WINNER\n  }\n\n  modifier notContract() {\n    require(!Address.isContract(msg.sender), \"Contract not allowed\");\n    require(msg.sender == tx.origin, \"Proxy contract not allowed\");\n    _;\n  }\n\n  event LotteryWon(address winner, uint256 amount);\n\n  receive() external payable {}\n\n  constructor(\n    ILotteryGovernance _governance,\n    address _link,\n    LimeToken _limeToken\n  ) {\n    setChainlinkToken(_link);\n    currLotteryParticipations = 0;\n    currLotteryId = 1;\n    lotteryState = LOTTERY_STATE.CLOSED;\n    governance = _governance;\n    limeToken = _limeToken;\n  }\n\n  function startNewLottery() public onlyOwner {\n    require(lotteryState == LOTTERY_STATE.CLOSED, \"Can't start a new lottery yet\");\n    lotteryState = LOTTERY_STATE.OPEN;\n  }\n\n  function endLottery() public onlyOwner {\n    require(lotteryState == LOTTERY_STATE.OPEN, \"The lottery hasn't even started!\");\n    lotteryState = LOTTERY_STATE.CALCULATING_WINNER;\n    pickWinner();\n  }\n\n  function buyTickets(uint32[] calldata _numbers) external nonReentrant notContract {\n    require(_numbers.length != 0, \"No ticket specified\");\n    require(lotteryState == LOTTERY_STATE.OPEN, \"Lottery must be open\");\n\n    uint32[] storage currUserNumbers = userNumbers[currLotteryId][msg.sender];\n\n    require(\n      currUserNumbers.length + _numbers.length <= MAX_TICKET_PURCHASE,\n      \"Can't buy more than 49 tickets\"\n    );\n\n    // Burn LIME to participate\n    limeToken.burnFrom(msg.sender, _numbers.length * getTicketPrice());\n\n    for (uint256 index = 0; index < _numbers.length; index++) {\n      uint32 currentNumber = _numbers[index];\n\n      require(\n        numbersInUse[currLotteryId][currentNumber] == false,\n        \"One of the numbers is already taken.\"\n      );\n      require(currentNumber <= MAX_LOTTERY_NUMBER, \"Number is higher than the max\");\n\n      numbersInUse[currLotteryId][currentNumber] = true;\n      lotteryTickets[currLotteryId].push(\n        Ticket({ number: currentNumber, owner: payable(msg.sender) })\n      );\n      currUserNumbers.push(currentNumber);\n    }\n   \n    currLotteryParticipations++;\n  }\n\n  function pickWinner() private {\n    require(lotteryState == LOTTERY_STATE.CALCULATING_WINNER, \"You aren't at that stage yet!\");\n    IRandomness(governance.randomness()).getRandomNumber(currLotteryId);\n    //this kicks off the request and returns through fulfill_random\n  }\n\n  function fulfillRandomness(uint256 randomness) external {\n    require(lotteryState == LOTTERY_STATE.CALCULATING_WINNER, \"You aren't at that stage yet!\");\n    require(randomness > 0, \"random-not-found\");\n    assert(msg.sender == governance.randomness());\n\n    uint256 index = randomness % lotteryTickets[currLotteryId].length;\n    address payable winner = lotteryTickets[currLotteryId][index].owner;\n\n    currWinner = lotteryTickets[currLotteryId][index];\n    lastWonAmount = getPot();\n    emit LotteryWon(winner, getPot());\n    Address.sendValue(winner, getPot());\n\n    currLotteryId++;\n    currLotteryParticipations = 0;\n    lotteryState = LOTTERY_STATE.CLOSED;\n  }\n\n  // ----- VIEW FUNCTIONS ------\n\n  function getPot() public view returns (uint256) {\n    return address(this).balance;\n  }\n\n  function getTicketPrice() public view returns (uint256) {\n    // 0.1% of totalSupp\n    return limeToken.totalSupply() / 1000;\n  }\n\n  function getUserNumbers() external view returns (uint32[] memory _numbers) {\n    _numbers = userNumbers[currLotteryId][msg.sender];\n  }\n\n  function isNumberUsed(uint32 _number) external view returns (bool used) {\n    used = numbersInUse[currLotteryId][_number];\n  }\n\n  function getTotalTicketsBought() external view returns (uint256 _amount) {\n    return lotteryTickets[currLotteryId].length;\n  }\n}\n",
  "sourcePath": "/root/crypto/lemon-finance/core-contracts/contracts/Lottery.sol",
  "compiler": {
    "name": "solc",
    "version": "0.8.2+commit.661d1103.Emscripten.clang"
  },
  "schemaVersion": "3.3.4",
  "updatedAt": "2021-08-02T02:53:26.664Z",
  "devdoc": {
    "kind": "dev",
    "methods": {
      "owner()": {
        "details": "Returns the address of the current owner."
      },
      "renounceOwnership()": {
        "details": "Leaves the contract without owner. It will not be possible to call `onlyOwner` functions anymore. Can only be called by the current owner. NOTE: Renouncing ownership will leave the contract without an owner, thereby removing any functionality that is only available to the owner."
      },
      "transferOwnership(address)": {
        "details": "Transfers ownership of the contract to a new account (`newOwner`). Can only be called by the current owner."
      }
    },
    "version": 1
  },
  "userdoc": {
    "kind": "user",
    "methods": {},
    "version": 1
  }
}