{
  "contractName": "TokenFarm",
  "abi": [
    {
      "inputs": [
        {
          "internalType": "address",
          "name": "_dev",
          "type": "address"
        },
        {
          "internalType": "contract LimeToken",
          "name": "_limeToken",
          "type": "address"
        }
      ],
      "payable": false,
      "stateMutability": "nonpayable",
      "type": "constructor"
    },
    {
      "anonymous": false,
      "inputs": [
        {
          "indexed": true,
          "internalType": "address",
          "name": "user",
          "type": "address"
        },
        {
          "indexed": true,
          "internalType": "uint256",
          "name": "poolIndex",
          "type": "uint256"
        },
        {
          "indexed": false,
          "internalType": "uint256",
          "name": "amount",
          "type": "uint256"
        }
      ],
      "name": "Deposit",
      "type": "event"
    },
    {
      "anonymous": false,
      "inputs": [
        {
          "indexed": true,
          "internalType": "address",
          "name": "previousOwner",
          "type": "address"
        },
        {
          "indexed": true,
          "internalType": "address",
          "name": "newOwner",
          "type": "address"
        }
      ],
      "name": "OwnershipTransferred",
      "type": "event"
    },
    {
      "anonymous": false,
      "inputs": [
        {
          "indexed": true,
          "internalType": "address",
          "name": "user",
          "type": "address"
        },
        {
          "indexed": true,
          "internalType": "uint256",
          "name": "poolIndex",
          "type": "uint256"
        },
        {
          "indexed": false,
          "internalType": "uint256",
          "name": "amount",
          "type": "uint256"
        }
      ],
      "name": "Withdrawal",
      "type": "event"
    },
    {
      "constant": true,
      "inputs": [],
      "name": "dev",
      "outputs": [
        {
          "internalType": "address",
          "name": "",
          "type": "address"
        }
      ],
      "payable": false,
      "stateMutability": "view",
      "type": "function"
    },
    {
      "constant": true,
      "inputs": [
        {
          "internalType": "uint256",
          "name": "",
          "type": "uint256"
        },
        {
          "internalType": "address",
          "name": "",
          "type": "address"
        }
      ],
      "name": "holdings",
      "outputs": [
        {
          "internalType": "uint256",
          "name": "stakedAmount",
          "type": "uint256"
        },
        {
          "internalType": "uint256",
          "name": "stakeBlock",
          "type": "uint256"
        },
        {
          "internalType": "uint256",
          "name": "debt",
          "type": "uint256"
        }
      ],
      "payable": false,
      "stateMutability": "view",
      "type": "function"
    },
    {
      "constant": true,
      "inputs": [],
      "name": "limeToken",
      "outputs": [
        {
          "internalType": "contract LimeToken",
          "name": "",
          "type": "address"
        }
      ],
      "payable": false,
      "stateMutability": "view",
      "type": "function"
    },
    {
      "constant": true,
      "inputs": [],
      "name": "name",
      "outputs": [
        {
          "internalType": "string",
          "name": "",
          "type": "string"
        }
      ],
      "payable": false,
      "stateMutability": "view",
      "type": "function"
    },
    {
      "constant": true,
      "inputs": [],
      "name": "owner",
      "outputs": [
        {
          "internalType": "address",
          "name": "",
          "type": "address"
        }
      ],
      "payable": false,
      "stateMutability": "view",
      "type": "function"
    },
    {
      "constant": true,
      "inputs": [
        {
          "internalType": "uint256",
          "name": "",
          "type": "uint256"
        }
      ],
      "name": "pools",
      "outputs": [
        {
          "internalType": "uint256",
          "name": "poolSize",
          "type": "uint256"
        },
        {
          "internalType": "uint256",
          "name": "limePerBlock",
          "type": "uint256"
        },
        {
          "internalType": "bool",
          "name": "taxFree",
          "type": "bool"
        },
        {
          "internalType": "contract IBEP20",
          "name": "token",
          "type": "address"
        }
      ],
      "payable": false,
      "stateMutability": "view",
      "type": "function"
    },
    {
      "constant": false,
      "inputs": [],
      "name": "renounceOwnership",
      "outputs": [],
      "payable": false,
      "stateMutability": "nonpayable",
      "type": "function"
    },
    {
      "constant": false,
      "inputs": [
        {
          "internalType": "address",
          "name": "newOwner",
          "type": "address"
        }
      ],
      "name": "transferOwnership",
      "outputs": [],
      "payable": false,
      "stateMutability": "nonpayable",
      "type": "function"
    },
    {
      "constant": false,
      "inputs": [
        {
          "internalType": "contract IBEP20",
          "name": "_token",
          "type": "address"
        },
        {
          "internalType": "uint256",
          "name": "_limePerBlock",
          "type": "uint256"
        },
        {
          "internalType": "bool",
          "name": "_taxFree",
          "type": "bool"
        }
      ],
      "name": "createPool",
      "outputs": [],
      "payable": false,
      "stateMutability": "nonpayable",
      "type": "function"
    },
    {
      "constant": false,
      "inputs": [
        {
          "internalType": "uint256",
          "name": "_amount",
          "type": "uint256"
        },
        {
          "internalType": "uint128",
          "name": "_poolIndex",
          "type": "uint128"
        }
      ],
      "name": "depositTokens",
      "outputs": [
        {
          "internalType": "bool",
          "name": "",
          "type": "bool"
        }
      ],
      "payable": false,
      "stateMutability": "nonpayable",
      "type": "function"
    },
    {
      "constant": false,
      "inputs": [
        {
          "internalType": "uint256",
          "name": "_amount",
          "type": "uint256"
        },
        {
          "internalType": "uint128",
          "name": "_poolIndex",
          "type": "uint128"
        }
      ],
      "name": "withdrawTokens",
      "outputs": [
        {
          "internalType": "bool",
          "name": "",
          "type": "bool"
        }
      ],
      "payable": false,
      "stateMutability": "nonpayable",
      "type": "function"
    },
    {
      "constant": false,
      "inputs": [
        {
          "internalType": "uint128",
          "name": "_poolIndex",
          "type": "uint128"
        }
      ],
      "name": "harvestLimes",
      "outputs": [],
      "payable": false,
      "stateMutability": "nonpayable",
      "type": "function"
    },
    {
      "constant": false,
      "inputs": [
        {
          "internalType": "uint128",
          "name": "_poolIndex",
          "type": "uint128"
        }
      ],
      "name": "checkpoint",
      "outputs": [],
      "payable": false,
      "stateMutability": "nonpayable",
      "type": "function"
    },
    {
      "constant": true,
      "inputs": [],
      "name": "isHarvestingPeriod",
      "outputs": [
        {
          "internalType": "bool",
          "name": "",
          "type": "bool"
        }
      ],
      "payable": false,
      "stateMutability": "view",
      "type": "function"
    },
    {
      "constant": true,
      "inputs": [
        {
          "internalType": "uint128",
          "name": "_poolIndex",
          "type": "uint128"
        }
      ],
      "name": "userStakeInPool",
      "outputs": [
        {
          "internalType": "uint256",
          "name": "",
          "type": "uint256"
        }
      ],
      "payable": false,
      "stateMutability": "view",
      "type": "function"
    },
    {
      "constant": true,
      "inputs": [
        {
          "internalType": "uint128",
          "name": "_poolIndex",
          "type": "uint128"
        }
      ],
      "name": "userAvailableHarvest",
      "outputs": [
        {
          "internalType": "uint256",
          "name": "",
          "type": "uint256"
        }
      ],
      "payable": false,
      "stateMutability": "view",
      "type": "function"
    },
    {
      "constant": true,
      "inputs": [],
      "name": "totalPools",
      "outputs": [
        {
          "internalType": "uint256",
          "name": "",
          "type": "uint256"
        }
      ],
      "payable": false,
      "stateMutability": "view",
      "type": "function"
    },
    {
      "constant": true,
      "inputs": [
        {
          "internalType": "uint128",
          "name": "_poolIndex",
          "type": "uint128"
        }
      ],
      "name": "getPoolSize",
      "outputs": [
        {
          "internalType": "uint256",
          "name": "",
          "type": "uint256"
        }
      ],
      "payable": false,
      "stateMutability": "view",
      "type": "function"
    },
    {
      "constant": true,
      "inputs": [],
      "name": "getPools",
      "outputs": [
        {
          "components": [
            {
              "internalType": "uint256",
              "name": "poolSize",
              "type": "uint256"
            },
            {
              "internalType": "uint256",
              "name": "limePerBlock",
              "type": "uint256"
            },
            {
              "internalType": "bool",
              "name": "taxFree",
              "type": "bool"
            },
            {
              "internalType": "contract IBEP20",
              "name": "token",
              "type": "address"
            }
          ],
          "internalType": "struct ITokenFarm.Pool[]",
          "name": "",
          "type": "tuple[]"
        }
      ],
      "payable": false,
      "stateMutability": "view",
      "type": "function"
    }
  ],
  "bytecode": "0x60806040526040518060400160405280600f81526020017f4c494d4520546f6b656e204661726d00000000000000000000000000000000008152506001908051906020019062000051929190620001c7565b503480156200005f57600080fd5b5060405162002b2338038062002b238339818101604052620000859190810190620002a4565b600062000097620001bf60201b60201c565b9050806000806101000a81548173ffffffffffffffffffffffffffffffffffffffff021916908373ffffffffffffffffffffffffffffffffffffffff1602179055508073ffffffffffffffffffffffffffffffffffffffff16600073ffffffffffffffffffffffffffffffffffffffff167f8be0079c531659141344cd1fd0a4f28419497f9722a3daafe3b4186f6b6457e060405160405180910390a35080600260006101000a81548173ffffffffffffffffffffffffffffffffffffffff021916908373ffffffffffffffffffffffffffffffffffffffff16021790555081600360006101000a81548173ffffffffffffffffffffffffffffffffffffffff021916908373ffffffffffffffffffffffffffffffffffffffff160217905550505062000361565b600033905090565b828054600181600116156101000203166002900490600052602060002090601f016020900481019282601f106200020a57805160ff19168380011785556200023b565b828001600101855582156200023b579182015b828111156200023a5782518255916020019190600101906200021d565b5b5090506200024a91906200024e565b5090565b6200027391905b808211156200026f57600081600090555060010162000255565b5090565b90565b60008151905062000287816200032d565b92915050565b6000815190506200029e8162000347565b92915050565b60008060408385031215620002b857600080fd5b6000620002c88582860162000276565b9250506020620002db858286016200028d565b9150509250929050565b6000620002f2826200030d565b9050919050565b60006200030682620002e5565b9050919050565b600073ffffffffffffffffffffffffffffffffffffffff82169050919050565b6200033881620002e5565b81146200034457600080fd5b50565b6200035281620002f9565b81146200035e57600080fd5b50565b6127b280620003716000396000f3fe608060405234801561001057600080fd5b50600436106101215760003560e01c806391cca3db116100ad578063e01de29711610071578063e01de297146102fd578063e28c55271461032d578063f2fde38b14610349578063f7e251f814610365578063fa62b61f1461039557610121565b806391cca3db14610242578063a1fc069c14610260578063ab3c7e521461027c578063ac4afa381461029a578063bdc30898146102cd57610121565b80632af04478116100f45780632af04478146101b05780633c3837e0146101e0578063673a2a1f146101fc578063715018a61461021a5780638da5cb5b1461022457610121565b806301d65ca41461012657806306fdde0314610156578063197bdb33146101745780632236498214610192575b600080fd5b610140600480360361013b9190810190611cf2565b6103c7565b60405161014d91906124a4565b60405180910390f35b61015e6104c8565b60405161016b9190612360565b60405180910390f35b61017c610566565b6040516101899190612345565b60405180910390f35b61019a61058c565b6040516101a7919061232a565b60405180910390f35b6101ca60048036036101c59190810190611cf2565b6105ae565b6040516101d791906124a4565b60405180910390f35b6101fa60048036036101f59190810190611ca3565b61061d565b005b61020461079d565b6040516102119190612308565b60405180910390f35b610222610881565b005b61022c6109d6565b6040516102399190612264565b60405180910390f35b61024a6109ff565b6040516102579190612264565b60405180910390f35b61027a60048036036102759190810190611cf2565b610a25565b005b610284610a31565b60405161029191906124a4565b60405180910390f35b6102b460048036036102af9190810190611d1b565b610a3e565b6040516102c494939291906124e8565b60405180910390f35b6102e760048036036102e29190810190611d80565b610aa8565b6040516102f4919061232a565b60405180910390f35b61031760048036036103129190810190611d80565b610eeb565b604051610324919061232a565b60405180910390f35b61034760048036036103429190810190611cf2565b6112eb565b005b610363600480360361035e9190810190611c51565b6114f3565b005b61037f600480360361037a9190810190611cf2565b611595565b60405161038c91906124a4565b60405180910390f35b6103af60048036036103aa9190810190611d44565b6115cf565b6040516103be9392919061252d565b60405180910390f35b60008060056000846fffffffffffffffffffffffffffffffff16815260200190815260200160002060003373ffffffffffffffffffffffffffffffffffffffff1673ffffffffffffffffffffffffffffffffffffffff168152602001908152602001600020905060006004846fffffffffffffffffffffffffffffffff168154811061044f57fe5b90600052602060002090600302019050600080836000015411156104a25761049b61048784600101544361160690919063ffffffff16565b836001015485600001548560000154611650565b90506104a7565b600090505b6104be81846002015461173590919063ffffffff16565b9350505050919050565b60018054600181600116156101000203166002900480601f01602080910402602001604051908101604052809291908181526020018280546001816001161561010002031660029004801561055e5780601f106105335761010080835404028352916020019161055e565b820191906000526020600020905b81548152906001019060200180831161054157829003601f168201915b505050505081565b600260009054906101000a900473ffffffffffffffffffffffffffffffffffffffff1681565b6000620151806105a862093a804261178a90919063ffffffff16565b10905090565b600060056000836fffffffffffffffffffffffffffffffff16815260200190815260200160002060003373ffffffffffffffffffffffffffffffffffffffff1673ffffffffffffffffffffffffffffffffffffffff168152602001908152602001600020600001549050919050565b6106256117d4565b73ffffffffffffffffffffffffffffffffffffffff166000809054906101000a900473ffffffffffffffffffffffffffffffffffffffff1673ffffffffffffffffffffffffffffffffffffffff16146106b3576040517f08c379a00000000000000000000000000000000000000000000000000000000081526004016106aa90612444565b60405180910390fd5b600460405180608001604052806000815260200184815260200183151581526020018573ffffffffffffffffffffffffffffffffffffffff1681525090806001815401808255809150509060018203906000526020600020906003020160009091929091909150600082015181600001556020820151816001015560408201518160020160006101000a81548160ff02191690831515021790555060608201518160020160016101000a81548173ffffffffffffffffffffffffffffffffffffffff021916908373ffffffffffffffffffffffffffffffffffffffff160217905550505050505050565b60606004805480602002602001604051908101604052809291908181526020016000905b82821015610878578382906000526020600020906003020160405180608001604052908160008201548152602001600182015481526020016002820160009054906101000a900460ff161515151581526020016002820160019054906101000a900473ffffffffffffffffffffffffffffffffffffffff1673ffffffffffffffffffffffffffffffffffffffff1673ffffffffffffffffffffffffffffffffffffffff1681525050815260200190600101906107c1565b50505050905090565b6108896117d4565b73ffffffffffffffffffffffffffffffffffffffff166000809054906101000a900473ffffffffffffffffffffffffffffffffffffffff1673ffffffffffffffffffffffffffffffffffffffff1614610917576040517f08c379a000000000000000000000000000000000000000000000000000000000815260040161090e90612444565b60405180910390fd5b600073ffffffffffffffffffffffffffffffffffffffff166000809054906101000a900473ffffffffffffffffffffffffffffffffffffffff1673ffffffffffffffffffffffffffffffffffffffff167f8be0079c531659141344cd1fd0a4f28419497f9722a3daafe3b4186f6b6457e060405160405180910390a360008060006101000a81548173ffffffffffffffffffffffffffffffffffffffff021916908373ffffffffffffffffffffffffffffffffffffffff160217905550565b60008060009054906101000a900473ffffffffffffffffffffffffffffffffffffffff16905090565b600360009054906101000a900473ffffffffffffffffffffffffffffffffffffffff1681565b610a2e816117dc565b50565b6000600480549050905090565b60048181548110610a4b57fe5b90600052602060002090600302016000915090508060000154908060010154908060020160009054906101000a900460ff16908060020160019054906101000a900473ffffffffffffffffffffffffffffffffffffffff16905084565b6000806004836fffffffffffffffffffffffffffffffff1681548110610aca57fe5b90600052602060002090600302019050600060056000856fffffffffffffffffffffffffffffffff16815260200190815260200160002060003373ffffffffffffffffffffffffffffffffffffffff1673ffffffffffffffffffffffffffffffffffffffff1681526020019081526020016000209050600085118015610b54575084816000015410155b610b93576040517f08c379a0000000000000000000000000000000000000000000000000000000008152600401610b8a90612404565b60405180910390fd5b610b9c846117dc565b610bb385826000015461160690919063ffffffff16565b8160000181905550610bd285836000015461160690919063ffffffff16565b82600001819055508160020160009054906101000a900460ff1615610ca8578160020160019054906101000a900473ffffffffffffffffffffffffffffffffffffffff1673ffffffffffffffffffffffffffffffffffffffff1663a9059cbb33876040518363ffffffff1660e01b8152600401610c509291906122b6565b602060405180830381600087803b158015610c6a57600080fd5b505af1158015610c7e573d6000803e3d6000fd5b505050506040513d601f19601f82011682018060405250610ca29190810190611c7a565b50610e7e565b8160020160019054906101000a900473ffffffffffffffffffffffffffffffffffffffff1673ffffffffffffffffffffffffffffffffffffffff1663a9059cbb600360009054906101000a900473ffffffffffffffffffffffffffffffffffffffff16610d336023610d256103e88b6118d390919063ffffffff16565b61191d90919063ffffffff16565b6040518363ffffffff1660e01b8152600401610d509291906122df565b602060405180830381600087803b158015610d6a57600080fd5b505af1158015610d7e573d6000803e3d6000fd5b505050506040513d601f19601f82011682018060405250610da29190810190611c7a565b508160020160019054906101000a900473ffffffffffffffffffffffffffffffffffffffff1673ffffffffffffffffffffffffffffffffffffffff1663a9059cbb33610e0d6103c5610dff6103e88b6118d390919063ffffffff16565b61191d90919063ffffffff16565b6040518363ffffffff1660e01b8152600401610e2a9291906122b6565b602060405180830381600087803b158015610e4457600080fd5b505af1158015610e58573d6000803e3d6000fd5b505050506040513d601f19601f82011682018060405250610e7c9190810190611c7a565b505b836fffffffffffffffffffffffffffffffff163373ffffffffffffffffffffffffffffffffffffffff167fdf273cb619d95419a9cd0ec88123a0538c85064229baa6363788f743fff90deb87604051610ed791906124a4565b60405180910390a360019250505092915050565b6000808311610f2f576040517f08c379a0000000000000000000000000000000000000000000000000000000008152600401610f2690612484565b60405180910390fd5b60006004836fffffffffffffffffffffffffffffffff1681548110610f5057fe5b90600052602060002090600302019050600060056000856fffffffffffffffffffffffffffffffff16815260200190815260200160002060003373ffffffffffffffffffffffffffffffffffffffff1673ffffffffffffffffffffffffffffffffffffffff1681526020019081526020016000209050600081600001541115610fe157610fdc846117dc565b610feb565b4381600101819055505b8160020160019054906101000a900473ffffffffffffffffffffffffffffffffffffffff1673ffffffffffffffffffffffffffffffffffffffff166323b872dd3330886040518463ffffffff1660e01b815260040161104c9392919061227f565b602060405180830381600087803b15801561106657600080fd5b505af115801561107a573d6000803e3d6000fd5b505050506040513d601f19601f8201168201806040525061109e9190810190611c7a565b5060008260020160009054906101000a900460ff16156110c0578590506111e7565b8260020160019054906101000a900473ffffffffffffffffffffffffffffffffffffffff1673ffffffffffffffffffffffffffffffffffffffff1663a9059cbb600360009054906101000a900473ffffffffffffffffffffffffffffffffffffffff1661114b600561113d6103e88c6118d390919063ffffffff16565b61191d90919063ffffffff16565b6040518363ffffffff1660e01b81526004016111689291906122df565b602060405180830381600087803b15801561118257600080fd5b505af1158015611196573d6000803e3d6000fd5b505050506040513d601f19601f820116820180604052506111ba9190810190611c7a565b506111e46103e36111d66103e8896118d390919063ffffffff16565b61191d90919063ffffffff16565b90505b6111fe81836000015461173590919063ffffffff16565b8260000181905550611249816004876fffffffffffffffffffffffffffffffff168154811061122957fe5b90600052602060002090600302016000015461173590919063ffffffff16565b6004866fffffffffffffffffffffffffffffffff168154811061126857fe5b906000526020600020906003020160000181905550846fffffffffffffffffffffffffffffffff163373ffffffffffffffffffffffffffffffffffffffff167f90890809c654f11d6e72a28fa60149770a0d11ec6c92319d6ceb2bb0a4ea1a15836040516112d691906124a4565b60405180910390a36001935050505092915050565b6201518061130562093a804261178a90919063ffffffff16565b10611345576040517f08c379a000000000000000000000000000000000000000000000000000000000815260040161133c90612464565b60405180910390fd5b60006004826fffffffffffffffffffffffffffffffff168154811061136657fe5b90600052602060002090600302019050600060056000846fffffffffffffffffffffffffffffffff16815260200190815260200160002060003373ffffffffffffffffffffffffffffffffffffffff1673ffffffffffffffffffffffffffffffffffffffff1681526020019081526020016000209050600081600201549050600061141561140184600101544361160690919063ffffffff16565b856001015485600001548760000154611650565b905043836001018190555060008360020181905550600260009054906101000a900473ffffffffffffffffffffffffffffffffffffffff1673ffffffffffffffffffffffffffffffffffffffff166394bf804d61147b838561173590919063ffffffff16565b336040518363ffffffff1660e01b81526004016114999291906124bf565b602060405180830381600087803b1580156114b357600080fd5b505af11580156114c7573d6000803e3d6000fd5b505050506040513d601f19601f820116820180604052506114eb9190810190611c7a565b505050505050565b6114fb6117d4565b73ffffffffffffffffffffffffffffffffffffffff166000809054906101000a900473ffffffffffffffffffffffffffffffffffffffff1673ffffffffffffffffffffffffffffffffffffffff1614611589576040517f08c379a000000000000000000000000000000000000000000000000000000000815260040161158090612444565b60405180910390fd5b6115928161198d565b50565b60006004826fffffffffffffffffffffffffffffffff16815481106115b657fe5b9060005260206000209060030201600001549050919050565b6005602052816000526040600020602052806000526040600020600091509150508060000154908060010154908060020154905083565b600061164883836040518060400160405280601e81526020017f536166654d6174683a207375627472616374696f6e206f766572666c6f770000815250611abb565b905092915050565b600081831115611695576040517f08c379a000000000000000000000000000000000000000000000000000000000815260040161168c906123c4565b60405180910390fd5b670de0b6b3a76400008210156116bf576116b8848661191d90919063ffffffff16565b905061172d565b61172a670de0b6b3a764000061171c6116fb6116ec670de0b6b3a7640000876118d390919063ffffffff16565b876118d390919063ffffffff16565b61170e888a61191d90919063ffffffff16565b61191d90919063ffffffff16565b6118d390919063ffffffff16565b90505b949350505050565b600080828401905083811015611780576040517f08c379a0000000000000000000000000000000000000000000000000000000008152600401611777906123e4565b60405180910390fd5b8091505092915050565b60006117cc83836040518060400160405280601881526020017f536166654d6174683a206d6f64756c6f206279207a65726f0000000000000000815250611b16565b905092915050565b600033905090565b60006004826fffffffffffffffffffffffffffffffff16815481106117fd57fe5b90600052602060002090600302019050600060056000846fffffffffffffffffffffffffffffffff16815260200190815260200160002060003373ffffffffffffffffffffffffffffffffffffffff1673ffffffffffffffffffffffffffffffffffffffff168152602001908152602001600020905060006118a361188f83600101544361160690919063ffffffff16565b846001015484600001548660000154611650565b90506118bc81836002015461173590919063ffffffff16565b826002018190555043826001018190555050505050565b600061191583836040518060400160405280601a81526020017f536166654d6174683a206469766973696f6e206279207a65726f000000000000815250611b72565b905092915050565b6000808314156119305760009050611987565b600082840290508284828161194157fe5b0414611982576040517f08c379a000000000000000000000000000000000000000000000000000000000815260040161197990612424565b60405180910390fd5b809150505b92915050565b600073ffffffffffffffffffffffffffffffffffffffff168173ffffffffffffffffffffffffffffffffffffffff1614156119fd576040517f08c379a00000000000000000000000000000000000000000000000000000000081526004016119f4906123a4565b60405180910390fd5b8073ffffffffffffffffffffffffffffffffffffffff166000809054906101000a900473ffffffffffffffffffffffffffffffffffffffff1673ffffffffffffffffffffffffffffffffffffffff167f8be0079c531659141344cd1fd0a4f28419497f9722a3daafe3b4186f6b6457e060405160405180910390a3806000806101000a81548173ffffffffffffffffffffffffffffffffffffffff021916908373ffffffffffffffffffffffffffffffffffffffff16021790555050565b6000838311158290611b03576040517f08c379a0000000000000000000000000000000000000000000000000000000008152600401611afa9190612382565b60405180910390fd5b5060008385039050809150509392505050565b6000808314158290611b5e576040517f08c379a0000000000000000000000000000000000000000000000000000000008152600401611b559190612382565b60405180910390fd5b50828481611b6857fe5b0690509392505050565b60008083118290611bb9576040517f08c379a0000000000000000000000000000000000000000000000000000000008152600401611bb09190612382565b60405180910390fd5b506000838581611bc557fe5b049050809150509392505050565b600081359050611be2816126fc565b92915050565b600081359050611bf781612713565b92915050565b600081519050611c0c81612713565b92915050565b600081359050611c218161272a565b92915050565b600081359050611c3681612741565b92915050565b600081359050611c4b81612758565b92915050565b600060208284031215611c6357600080fd5b6000611c7184828501611bd3565b91505092915050565b600060208284031215611c8c57600080fd5b6000611c9a84828501611bfd565b91505092915050565b600080600060608486031215611cb857600080fd5b6000611cc686828701611c12565b9350506020611cd786828701611c3c565b9250506040611ce886828701611be8565b9150509250925092565b600060208284031215611d0457600080fd5b6000611d1284828501611c27565b91505092915050565b600060208284031215611d2d57600080fd5b6000611d3b84828501611c3c565b91505092915050565b60008060408385031215611d5757600080fd5b6000611d6585828601611c3c565b9250506020611d7685828601611bd3565b9150509250929050565b60008060408385031215611d9357600080fd5b6000611da185828601611c3c565b9250506020611db285828601611c27565b9150509250929050565b6000611dc883836121f1565b60808301905092915050565b611ddd8161263a565b82525050565b611dec816125c4565b82525050565b6000611dfd82612574565b611e0781856125a2565b9350611e1283612564565b8060005b83811015611e43578151611e2a8882611dbc565b9750611e3583612595565b925050600181019050611e16565b5085935050505092915050565b611e59816125d6565b82525050565b611e68816125d6565b82525050565b611e778161264c565b82525050565b611e868161264c565b82525050565b611e9581612670565b82525050565b6000611ea68261258a565b611eb081856125b3565b9350611ec08185602086016126b8565b611ec9816126eb565b840191505092915050565b6000611edf8261257f565b611ee981856125b3565b9350611ef98185602086016126b8565b611f02816126eb565b840191505092915050565b6000611f1a6026836125b3565b91507f4f776e61626c653a206e6577206f776e657220697320746865207a65726f206160008301527f64647265737300000000000000000000000000000000000000000000000000006020830152604082019050919050565b6000611f806026836125b3565b91507f6c696d655f4641524d3a20496e76616c696420726577617264732063616c637560008301527f6c6174696f6e00000000000000000000000000000000000000000000000000006020830152604082019050919050565b6000611fe6601b836125b3565b91507f536166654d6174683a206164646974696f6e206f766572666c6f7700000000006000830152602082019050919050565b60006120266024836125b3565b91507f6c696d655f4641524d3a20496e76616c6964207769746864726177616c20616d60008301527f6f756e74000000000000000000000000000000000000000000000000000000006020830152604082019050919050565b600061208c6021836125b3565b91507f536166654d6174683a206d756c7469706c69636174696f6e206f766572666c6f60008301527f77000000000000000000000000000000000000000000000000000000000000006020830152604082019050919050565b60006120f26020836125b3565b91507f4f776e61626c653a2063616c6c6572206973206e6f7420746865206f776e65726000830152602082019050919050565b60006121326023836125b3565b91507f6c696d655f4641524d3a204e6f7420696e2068617276657374696e672070657260008301527f696f6400000000000000000000000000000000000000000000000000000000006020830152604082019050919050565b60006121986028836125b3565b91507f6c696d655f4641524d3a20416d6f756e74206d7573742062652067726561746560008301527f72207468616e20300000000000000000000000000000000000000000000000006020830152604082019050919050565b6080820160008201516122076000850182612246565b50602082015161221a6020850182612246565b50604082015161222d6040850182611e50565b5060608201516122406060850182611e6e565b50505050565b61224f81612630565b82525050565b61225e81612630565b82525050565b60006020820190506122796000830184611de3565b92915050565b60006060820190506122946000830186611dd4565b6122a16020830185611de3565b6122ae6040830184612255565b949350505050565b60006040820190506122cb6000830185611dd4565b6122d86020830184612255565b9392505050565b60006040820190506122f46000830185611de3565b6123016020830184612255565b9392505050565b600060208201905081810360008301526123228184611df2565b905092915050565b600060208201905061233f6000830184611e5f565b92915050565b600060208201905061235a6000830184611e8c565b92915050565b6000602082019050818103600083015261237a8184611ed4565b905092915050565b6000602082019050818103600083015261239c8184611e9b565b905092915050565b600060208201905081810360008301526123bd81611f0d565b9050919050565b600060208201905081810360008301526123dd81611f73565b9050919050565b600060208201905081810360008301526123fd81611fd9565b9050919050565b6000602082019050818103600083015261241d81612019565b9050919050565b6000602082019050818103600083015261243d8161207f565b9050919050565b6000602082019050818103600083015261245d816120e5565b9050919050565b6000602082019050818103600083015261247d81612125565b9050919050565b6000602082019050818103600083015261249d8161218b565b9050919050565b60006020820190506124b96000830184612255565b92915050565b60006040820190506124d46000830185612255565b6124e16020830184611dd4565b9392505050565b60006080820190506124fd6000830187612255565b61250a6020830186612255565b6125176040830185611e5f565b6125246060830184611e7d565b95945050505050565b60006060820190506125426000830186612255565b61254f6020830185612255565b61255c6040830184612255565b949350505050565b6000819050602082019050919050565b600081519050919050565b600081519050919050565b600081519050919050565b6000602082019050919050565b600082825260208201905092915050565b600082825260208201905092915050565b60006125cf82612610565b9050919050565b60008115159050919050565b60006125ed826125c4565b9050919050565b60006fffffffffffffffffffffffffffffffff82169050919050565b600073ffffffffffffffffffffffffffffffffffffffff82169050919050565b6000819050919050565b600061264582612694565b9050919050565b60006126578261265e565b9050919050565b600061266982612610565b9050919050565b600061267b82612682565b9050919050565b600061268d82612610565b9050919050565b600061269f826126a6565b9050919050565b60006126b182612610565b9050919050565b60005b838110156126d65780820151818401526020810190506126bb565b838111156126e5576000848401525b50505050565b6000601f19601f8301169050919050565b612705816125c4565b811461271057600080fd5b50565b61271c816125d6565b811461272757600080fd5b50565b612733816125e2565b811461273e57600080fd5b50565b61274a816125f4565b811461275557600080fd5b50565b61276181612630565b811461276c57600080fd5b5056fea365627a7a72315820f15aaf2aa43d185426f96919697d00d76f5417b6e88b78693c2691e76beae64f6c6578706572696d656e74616cf564736f6c63430005100040",
  "source": "pragma solidity 0.5.16;\npragma experimental ABIEncoderV2;\n\nimport \"./LimeToken.sol\";\n\ninterface ITokenFarm {\n    struct Pool {\n        uint256 poolSize;\n        uint256 limePerBlock;\n        bool taxFree;\n        // The actual token to be staked\n        IBEP20 token;\n    }\n    struct UserInfo {\n        uint256 stakedAmount;\n        uint256 stakeBlock;\n        uint256 debt;\n    }\n    // Events\n    event Deposit(\n        address indexed user,\n        uint256 indexed poolIndex,\n        uint256 amount\n    );\n    event Withdrawal(\n        address indexed user,\n        uint256 indexed poolIndex,\n        uint256 amount\n    );\n    /**\n     * @dev Deposit `_amount` tokens in the pool `_poolIndex` for harvesting.\n     * Calls transferRewardsToDebt to store the current rewards.\n     * Calls transferFrom in the desired token.\n     * Increases taxed(`_amount`) from poolSize\n     * Charge 0.5% tax on it (if not tax-free pool)\n     */\n    function depositTokens(uint256 _amount, uint128 _poolIndex)\n        external\n        returns (bool);\n\n    /**\n     * @dev Withdraw `_amount` tokens from the harvesting pool `_poolIndex`.\n     * Calls transferRewardsToDebt to store the current rewards\n     * Reduces `_amount` from poolSize\n     * Charge 3.5% tax on it (if not tax-free pool)\n     */\n    function withdrawTokens(uint256 _amount, uint128 _poolIndex)\n        external\n        returns (bool);\n\n    /**\n     * @dev Harvest the earned tokens in the pool `_poolIndex`, which are:\n     * UserInfo.debt + calculateAmount(pool, holdings)\n     * Can only be called on harvesting periods\n     */\n    function harvestLimes(uint128 _poolIndex) external;\n\n    /**\n     * @dev Create a pool with the token `_token`\n     * Determine if the pool charges taxes with `_taxFree`\n     * Determine how much LIME it's multiplied with the block delta with `_limePerBlock`\n     * Can only be called by the owner\n     */\n    function createPool(\n        IBEP20 _token,\n        uint256 _limePerBlock,\n        bool _taxFree\n    ) external;\n\n    /**\n     * @dev Function that transfers rewards to debt in the pool `poolIndex`\n     * creating a \"Checkpoint\", meaning that the earned tokens are now\n     * fixed.\n     */\n    function checkpoint(\n        uint128 _poolIndex\n    ) external;\n\n\n    /**\n     * @dev View function to check if harvesting is enabled\n     * Will check if the timestamp is divisible by 7 days\n     */\n    function isHarvestingPeriod() external view returns (bool);\n\n    /**\n     * @dev View function to check how many pools there are\n     */\n    function totalPools() external view returns (uint256);\n\n    /**\n     * @dev View function to check how much stake a user has in\n     * the pool `_poolIndex`\n     */\n    function userStakeInPool(uint128 _poolIndex) external view returns (uint256);\n\n    /**\n     * @dev View function to check how much LIME the user would receive\n     * if they harvested in the moment\n     * in the pool `_poolIndex`\n     */\n    function userAvailableHarvest(uint128 _poolIndex)\n        external\n        view\n        returns (uint256);\n\n    /**\n     * @dev View function to check the pool size of `_poolIndex`\n     */\n    function getPoolSize(uint128 _poolIndex) external view returns (uint256);\n\n    /**\n\n     * @dev View function to get the pools\n     */\n    function getPools() external view returns (Pool[] memory);\n}\n\ncontract TokenFarm is Ownable, ITokenFarm{\n    using SafeMath for uint256;\n\n    string public name = \"LIME Token Farm\";\n\n    // The LIME token\n    LimeToken public limeToken;\n\n    // Owner and dev addresses\n    address public dev;\n\n    Pool[] public pools;\n\n    // holdings stores how many tokens are staked by each user\n    // mapping(poolIndex => mapping(userAddress => UserInfo))\n\n    mapping(uint256 => mapping(address => UserInfo)) public holdings;\n\n    modifier onHarvestingPeriod() {\n        require(\n            block.timestamp.mod(7 days) < 1 days,\n            \"lime_FARM: Not in harvesting period\"\n        );\n        _;\n    }\n\n\n\n\n    constructor(address _dev, LimeToken _limeToken) public {\n        limeToken = _limeToken;\n        dev = _dev;\n    }\n\n    function createPool(\n        IBEP20 _token,\n        uint256 _limePerBlock,\n        bool _taxFree\n    ) external onlyOwner {\n        pools.push(\n            Pool({\n                poolSize: 0,\n                token: _token,\n                limePerBlock: _limePerBlock,\n                taxFree: _taxFree\n            })\n        );\n    }\n\n    function depositTokens(uint256 _amount, uint128 _poolIndex)\n        external\n        returns (bool)\n    {\n        require(_amount > 0, \"lime_FARM: Amount must be greater than 0\");\n\n        Pool storage pool = pools[_poolIndex];\n        UserInfo storage _userInfo = holdings[_poolIndex][address(msg.sender)];\n\n        if (_userInfo.stakedAmount > 0) {\n            // Store current rewards as debt and reset the block\n            transferRewardsToDebt(_poolIndex);\n        } else {\n            _userInfo.stakeBlock = block.number;\n        }\n\n        // Transfer the tokens to the contract\n        pool.token.transferFrom(address(msg.sender), address(this), _amount);\n        uint256 amountToDeposit;\n\n        if (pool.taxFree) {\n            amountToDeposit = _amount;\n        } else {\n            // Dev commission (0.5% in deposits)\n            pool.token.transfer(dev, _amount.div(1000).mul(5));\n            // Save the remaining amount deposited\n            amountToDeposit = _amount.div(1000).mul(995);\n        }\n\n        _userInfo.stakedAmount = _userInfo.stakedAmount.add(amountToDeposit);\n\n        pools[_poolIndex].poolSize = pools[_poolIndex].poolSize.add(\n            amountToDeposit\n        );\n\n        emit Deposit(address(msg.sender), _poolIndex, amountToDeposit);\n\n        return true;\n    }\n\n    function withdrawTokens(uint256 _amount, uint128 _poolIndex)\n        external\n        returns (bool)\n    {\n        Pool storage pool = pools[_poolIndex];\n        UserInfo storage _userInfo = holdings[_poolIndex][address(msg.sender)];\n\n        // Amount shouldn't be 0 and the user needs to have the balance\n        require(\n            _amount > 0 && _userInfo.stakedAmount >= _amount,\n            \"lime_FARM: Invalid withdrawal amount\"\n        );\n\n        transferRewardsToDebt(_poolIndex);\n\n        // Protect from reentrancy\n        _userInfo.stakedAmount = _userInfo.stakedAmount.sub(_amount);\n        pool.poolSize = pool.poolSize.sub(_amount);\n\n        if (pool.taxFree) {\n            pool.token.transfer(address(msg.sender), _amount);\n        } else {\n            // Dev comission (3.5% in withdrawals)\n            pool.token.transfer(dev, _amount.div(1000).mul(35));\n            pool.token.transfer(\n                address(msg.sender),\n                _amount.div(1000).mul(965)\n            );\n        }\n\n\n        emit Withdrawal(address(msg.sender), _poolIndex, _amount);\n\n        return true;\n    }\n\n    function harvestLimes(uint128 _poolIndex) external onHarvestingPeriod {\n        Pool storage pool = pools[_poolIndex];\n        UserInfo storage _userInfo = holdings[_poolIndex][address(msg.sender)];\n        uint256 debt = _userInfo.debt;\n        uint256 lastRewards = calculateRewards(\n            block.number.sub(_userInfo.stakeBlock),\n            pool.limePerBlock,\n            _userInfo.stakedAmount,\n            pool.poolSize\n        );\n        // Reset the block and debt\n        _userInfo.stakeBlock = block.number;\n        _userInfo.debt = 0;\n\n        limeToken.mint(debt.add(lastRewards), address(msg.sender));\n\n    }\n\n    function checkpoint(\n        uint128 _poolIndex\n    ) external {\n        transferRewardsToDebt(_poolIndex);\n    }\n\n\n    /**\n     * @dev Internal function that checks the user staked amount,\n     * calculates the rewards for it and stores them as debt. Then it\n     * resets the stakeBlock to the current block number.\n     */\n    function transferRewardsToDebt(uint128 _poolIndex) internal {\n        Pool storage pool = pools[_poolIndex];\n        UserInfo storage _userInfo = holdings[_poolIndex][address(msg.sender)];\n        uint256 rewards = calculateRewards(\n            block.number.sub(_userInfo.stakeBlock),\n            pool.limePerBlock,\n            _userInfo.stakedAmount,\n            pool.poolSize\n        );\n        _userInfo.debt = _userInfo.debt.add(rewards);\n        _userInfo.stakeBlock = block.number;\n    }\n\n    /**\n     * @dev Pure function that calculates how much LIME the user needs to get.\n     * Amount = blocks holded * LIME per block * (stake / poolSize)\n     *\n     */\n    function calculateRewards(\n        uint256 _blocksHolded,\n        uint256 _limePerBlock,\n        uint256 _stake,\n        uint256 _poolSize\n    ) internal pure returns (uint256) {\n        require(\n            _stake <= _poolSize,\n            \"lime_FARM: Invalid rewards calculation\"\n        );\n        if (_poolSize < 1 ether){\n            return _blocksHolded\n                .mul(_limePerBlock);\n        } \n        return\n            _blocksHolded\n                .mul(_limePerBlock)\n                .mul(_stake.div(_poolSize.div(1 ether)))\n                .div(1 ether);\n    }\n\n    function isHarvestingPeriod() external view returns (bool) {\n        return block.timestamp.mod(7 days) < 1 days;\n    }\n\n    function userStakeInPool(uint128 _poolIndex)\n        external\n        view\n        returns (uint256)\n    {\n        return holdings[_poolIndex][address(msg.sender)].stakedAmount;\n    }\n\n    function userAvailableHarvest(uint128 _poolIndex)\n        external\n        view\n        returns (uint256)\n    {\n        UserInfo storage _userInfo = holdings[_poolIndex][address(msg.sender)];\n        Pool storage _poolInfo = pools[_poolIndex];\n\n        uint256 additionalRewards;\n\n        if( _userInfo.stakedAmount > 0 ){\n            additionalRewards = calculateRewards(\n                block.number.sub(_userInfo.stakeBlock),\n                _poolInfo.limePerBlock,\n                _userInfo.stakedAmount,\n                _poolInfo.poolSize\n            );\n        }\n        else{\n            additionalRewards = 0;\n        }\n        return _userInfo.debt.add(additionalRewards);\n\n    }\n\n    function totalPools() external view returns (uint256) {\n        return pools.length;\n    }\n\n    function getPoolSize(uint128 _poolIndex) external view returns (uint256) {\n        return pools[_poolIndex].poolSize;\n    }\n\n    function getPools() external view returns (Pool[] memory) {\n        return pools;\n    }\n}\n",
  "sourcePath": "/root/crypto/lemon-finance/core-contracts/contracts/TokenFarm.sol",
  "compiler": {
    "name": "solc",
    "version": "0.5.16+commit.9c3226ce.Emscripten.clang"
  },
  "schemaVersion": "3.3.4",
  "updatedAt": "2021-07-12T19:30:15.115Z",
  "networkType": "ethereum",
  "devdoc": {
    "methods": {
      "owner()": {
        "details": "Returns the address of the current owner."
      },
      "renounceOwnership()": {
        "details": "Leaves the contract without owner. It will not be possible to call `onlyOwner` functions anymore. Can only be called by the current owner.     * NOTE: Renouncing ownership will leave the contract without an owner, thereby removing any functionality that is only available to the owner."
      },
      "transferOwnership(address)": {
        "details": "Transfers ownership of the contract to a new account (`newOwner`). Can only be called by the current owner."
      }
    }
  },
  "userdoc": {
    "methods": {}
  }
}